{
  "contractName": "RustToken721",
  "abi": [
    {
      "inputs": [],
      "stateMutability": "nonpayable",
      "type": "constructor"
    },
    {
      "anonymous": false,
      "inputs": [
        {
          "indexed": true,
          "internalType": "address",
          "name": "owner",
          "type": "address"
        },
        {
          "indexed": true,
          "internalType": "address",
          "name": "approved",
          "type": "address"
        },
        {
          "indexed": true,
          "internalType": "uint256",
          "name": "tokenId",
          "type": "uint256"
        }
      ],
      "name": "Approval",
      "type": "event"
    },
    {
      "anonymous": false,
      "inputs": [
        {
          "indexed": true,
          "internalType": "address",
          "name": "owner",
          "type": "address"
        },
        {
          "indexed": true,
          "internalType": "address",
          "name": "operator",
          "type": "address"
        },
        {
          "indexed": false,
          "internalType": "bool",
          "name": "approved",
          "type": "bool"
        }
      ],
      "name": "ApprovalForAll",
      "type": "event"
    },
    {
      "anonymous": false,
      "inputs": [
        {
          "indexed": true,
          "internalType": "address",
          "name": "previousOwner",
          "type": "address"
        },
        {
          "indexed": true,
          "internalType": "address",
          "name": "newOwner",
          "type": "address"
        }
      ],
      "name": "OwnershipTransferred",
      "type": "event"
    },
    {
      "anonymous": false,
      "inputs": [
        {
          "indexed": true,
          "internalType": "address",
          "name": "from",
          "type": "address"
        },
        {
          "indexed": true,
          "internalType": "address",
          "name": "to",
          "type": "address"
        },
        {
          "indexed": true,
          "internalType": "uint256",
          "name": "tokenId",
          "type": "uint256"
        }
      ],
      "name": "Transfer",
      "type": "event"
    },
    {
      "inputs": [
        {
          "internalType": "address",
          "name": "to",
          "type": "address"
        },
        {
          "internalType": "uint256",
          "name": "tokenId",
          "type": "uint256"
        }
      ],
      "name": "approve",
      "outputs": [],
      "stateMutability": "nonpayable",
      "type": "function"
    },
    {
      "inputs": [
        {
          "internalType": "address",
          "name": "owner",
          "type": "address"
        }
      ],
      "name": "balanceOf",
      "outputs": [
        {
          "internalType": "uint256",
          "name": "",
          "type": "uint256"
        }
      ],
      "stateMutability": "view",
      "type": "function",
      "constant": true
    },
    {
      "inputs": [
        {
          "internalType": "uint256",
          "name": "tokenId",
          "type": "uint256"
        }
      ],
      "name": "getApproved",
      "outputs": [
        {
          "internalType": "address",
          "name": "",
          "type": "address"
        }
      ],
      "stateMutability": "view",
      "type": "function",
      "constant": true
    },
    {
      "inputs": [
        {
          "internalType": "address",
          "name": "owner",
          "type": "address"
        },
        {
          "internalType": "address",
          "name": "operator",
          "type": "address"
        }
      ],
      "name": "isApprovedForAll",
      "outputs": [
        {
          "internalType": "bool",
          "name": "",
          "type": "bool"
        }
      ],
      "stateMutability": "view",
      "type": "function",
      "constant": true
    },
    {
      "inputs": [],
      "name": "name",
      "outputs": [
        {
          "internalType": "string",
          "name": "",
          "type": "string"
        }
      ],
      "stateMutability": "view",
      "type": "function",
      "constant": true
    },
    {
      "inputs": [],
      "name": "owner",
      "outputs": [
        {
          "internalType": "address",
          "name": "",
          "type": "address"
        }
      ],
      "stateMutability": "view",
      "type": "function",
      "constant": true
    },
    {
      "inputs": [
        {
          "internalType": "uint256",
          "name": "tokenId",
          "type": "uint256"
        }
      ],
      "name": "ownerOf",
      "outputs": [
        {
          "internalType": "address",
          "name": "",
          "type": "address"
        }
      ],
      "stateMutability": "view",
      "type": "function",
      "constant": true
    },
    {
      "inputs": [],
      "name": "renounceOwnership",
      "outputs": [],
      "stateMutability": "nonpayable",
      "type": "function"
    },
    {
      "inputs": [
        {
          "internalType": "address",
          "name": "from",
          "type": "address"
        },
        {
          "internalType": "address",
          "name": "to",
          "type": "address"
        },
        {
          "internalType": "uint256",
          "name": "tokenId",
          "type": "uint256"
        }
      ],
      "name": "safeTransferFrom",
      "outputs": [],
      "stateMutability": "nonpayable",
      "type": "function"
    },
    {
      "inputs": [
        {
          "internalType": "address",
          "name": "from",
          "type": "address"
        },
        {
          "internalType": "address",
          "name": "to",
          "type": "address"
        },
        {
          "internalType": "uint256",
          "name": "tokenId",
          "type": "uint256"
        },
        {
          "internalType": "bytes",
          "name": "_data",
          "type": "bytes"
        }
      ],
      "name": "safeTransferFrom",
      "outputs": [],
      "stateMutability": "nonpayable",
      "type": "function"
    },
    {
      "inputs": [
        {
          "internalType": "address",
          "name": "operator",
          "type": "address"
        },
        {
          "internalType": "bool",
          "name": "approved",
          "type": "bool"
        }
      ],
      "name": "setApprovalForAll",
      "outputs": [],
      "stateMutability": "nonpayable",
      "type": "function"
    },
    {
      "inputs": [
        {
          "internalType": "bytes4",
          "name": "interfaceId",
          "type": "bytes4"
        }
      ],
      "name": "supportsInterface",
      "outputs": [
        {
          "internalType": "bool",
          "name": "",
          "type": "bool"
        }
      ],
      "stateMutability": "view",
      "type": "function",
      "constant": true
    },
    {
      "inputs": [],
      "name": "symbol",
      "outputs": [
        {
          "internalType": "string",
          "name": "",
          "type": "string"
        }
      ],
      "stateMutability": "view",
      "type": "function",
      "constant": true
    },
    {
      "inputs": [
        {
          "internalType": "uint256",
          "name": "index",
          "type": "uint256"
        }
      ],
      "name": "tokenByIndex",
      "outputs": [
        {
          "internalType": "uint256",
          "name": "",
          "type": "uint256"
        }
      ],
      "stateMutability": "view",
      "type": "function",
      "constant": true
    },
    {
      "inputs": [
        {
          "internalType": "address",
          "name": "owner",
          "type": "address"
        },
        {
          "internalType": "uint256",
          "name": "index",
          "type": "uint256"
        }
      ],
      "name": "tokenOfOwnerByIndex",
      "outputs": [
        {
          "internalType": "uint256",
          "name": "",
          "type": "uint256"
        }
      ],
      "stateMutability": "view",
      "type": "function",
      "constant": true
    },
    {
      "inputs": [],
      "name": "totalSupply",
      "outputs": [
        {
          "internalType": "uint256",
          "name": "",
          "type": "uint256"
        }
      ],
      "stateMutability": "view",
      "type": "function",
      "constant": true
    },
    {
      "inputs": [
        {
          "internalType": "address",
          "name": "from",
          "type": "address"
        },
        {
          "internalType": "address",
          "name": "to",
          "type": "address"
        },
        {
          "internalType": "uint256",
          "name": "tokenId",
          "type": "uint256"
        }
      ],
      "name": "transferFrom",
      "outputs": [],
      "stateMutability": "nonpayable",
      "type": "function"
    },
    {
      "inputs": [
        {
          "internalType": "address",
          "name": "newOwner",
          "type": "address"
        }
      ],
      "name": "transferOwnership",
      "outputs": [],
      "stateMutability": "nonpayable",
      "type": "function"
    },
    {
      "inputs": [
        {
          "internalType": "string",
          "name": "baseURI",
          "type": "string"
        }
      ],
      "name": "setTokenBaseURI",
      "outputs": [],
      "stateMutability": "nonpayable",
      "type": "function"
    },
    {
      "inputs": [
        {
          "internalType": "address",
          "name": "to",
          "type": "address"
        },
        {
          "internalType": "string",
          "name": "tokenName",
          "type": "string"
        }
      ],
      "name": "mint",
      "outputs": [],
      "stateMutability": "nonpayable",
      "type": "function"
    },
    {
      "inputs": [
        {
          "internalType": "uint256",
          "name": "tokenId",
          "type": "uint256"
        }
      ],
      "name": "tokenURI",
      "outputs": [
        {
          "internalType": "string",
          "name": "",
          "type": "string"
        }
      ],
      "stateMutability": "view",
      "type": "function",
      "constant": true
    },
    {
      "inputs": [
        {
          "internalType": "string",
          "name": "tokenName",
          "type": "string"
        }
      ],
      "name": "ownerAddressOf",
      "outputs": [
        {
          "internalType": "address",
          "name": "",
          "type": "address"
        }
      ],
      "stateMutability": "view",
      "type": "function",
      "constant": true
    },
    {
      "inputs": [],
      "name": "currentSupply",
      "outputs": [
        {
          "internalType": "uint256",
          "name": "",
          "type": "uint256"
        }
      ],
      "stateMutability": "view",
      "type": "function",
      "constant": true
    }
  ],
  "bytecode": "0x60806040526001600d5560405180602001604052806000815250600e908051906020019062000030929190620001d3565b503480156200003e57600080fd5b506040518060400160405280600c81526020017f52757374546f6b656e37323100000000000000000000000000000000000000008152506040518060400160405280600281526020017f52540000000000000000000000000000000000000000000000000000000000008152508160009080519060200190620000c3929190620001d3565b508060019080519060200190620000dc929190620001d3565b505050620000ff620000f36200010560201b60201c565b6200010d60201b60201c565b620002e8565b600033905090565b6000600a60009054906101000a900473ffffffffffffffffffffffffffffffffffffffff16905081600a60006101000a81548173ffffffffffffffffffffffffffffffffffffffff021916908373ffffffffffffffffffffffffffffffffffffffff1602179055508173ffffffffffffffffffffffffffffffffffffffff168173ffffffffffffffffffffffffffffffffffffffff167f8be0079c531659141344cd1fd0a4f28419497f9722a3daafe3b4186f6b6457e060405160405180910390a35050565b828054620001e190620002b2565b90600052602060002090601f01602090048101928262000205576000855562000251565b82601f106200022057805160ff191683800117855562000251565b8280016001018555821562000251579182015b828111156200025057825182559160200191906001019062000233565b5b50905062000260919062000264565b5090565b5b808211156200027f57600081600090555060010162000265565b5090565b7f4e487b7100000000000000000000000000000000000000000000000000000000600052602260045260246000fd5b60006002820490506001821680620002cb57607f821691505b60208210811415620002e257620002e162000283565b5b50919050565b6136c080620002f86000396000f3fe608060405234801561001057600080fd5b506004361061014d5760003560e01c806370a08231116100c3578063a22cb4651161007c578063a22cb465146103b2578063b88d4fde146103ce578063c87b56dd146103ea578063d0def5211461041a578063e985e9c514610436578063f2fde38b146104665761014d565b806370a0823114610302578063715018a614610332578063771282f61461033c5780638da5cb5b1461035a5780638ef79e911461037857806395d89b41146103945761014d565b806323b872dd1161011557806323b872dd1461020a5780632f745c591461022657806342842e0e146102565780634f6ccce71461027257806350c8fc35146102a25780636352211e146102d25761014d565b806301ffc9a71461015257806306fdde0314610182578063081812fc146101a0578063095ea7b3146101d057806318160ddd146101ec575b600080fd5b61016c600480360381019061016791906121e7565b610482565b604051610179919061222f565b60405180910390f35b61018a6104fc565b60405161019791906122e3565b60405180910390f35b6101ba60048036038101906101b5919061233b565b61058e565b6040516101c791906123a9565b60405180910390f35b6101ea60048036038101906101e591906123f0565b610613565b005b6101f461072b565b604051610201919061243f565b60405180910390f35b610224600480360381019061021f919061245a565b610738565b005b610240600480360381019061023b91906123f0565b610798565b60405161024d919061243f565b60405180910390f35b610270600480360381019061026b919061245a565b61083d565b005b61028c6004803603810190610287919061233b565b61085d565b604051610299919061243f565b60405180910390f35b6102bc60048036038101906102b791906125e2565b6108ce565b6040516102c991906123a9565b60405180910390f35b6102ec60048036038101906102e7919061233b565b61091b565b6040516102f991906123a9565b60405180910390f35b61031c6004803603810190610317919061262b565b6109cd565b604051610329919061243f565b60405180910390f35b61033a610a85565b005b610344610b0d565b604051610351919061243f565b60405180910390f35b610362610b23565b60405161036f91906123a9565b60405180910390f35b610392600480360381019061038d91906125e2565b610b4d565b005b61039c610c27565b6040516103a991906122e3565b60405180910390f35b6103cc60048036038101906103c79190612684565b610cb9565b005b6103e860048036038101906103e39190612765565b610ccf565b005b61040460048036038101906103ff919061233b565b610d31565b60405161041191906122e3565b60405180910390f35b610434600480360381019061042f91906127e8565b610dfe565b005b610450600480360381019061044b9190612844565b610f56565b60405161045d919061222f565b60405180910390f35b610480600480360381019061047b919061262b565b610fea565b005b60007f780e9d63000000000000000000000000000000000000000000000000000000007bffffffffffffffffffffffffffffffffffffffffffffffffffffffff1916827bffffffffffffffffffffffffffffffffffffffffffffffffffffffff191614806104f557506104f4826110e2565b5b9050919050565b60606000805461050b906128b3565b80601f0160208091040260200160405190810160405280929190818152602001828054610537906128b3565b80156105845780601f1061055957610100808354040283529160200191610584565b820191906000526020600020905b81548152906001019060200180831161056757829003601f168201915b5050505050905090565b6000610599826111c4565b6105d8576040517f08c379a00000000000000000000000000000000000000000000000000000000081526004016105cf90612957565b60405180910390fd5b6004600083815260200190815260200160002060009054906101000a900473ffffffffffffffffffffffffffffffffffffffff169050919050565b600061061e8261091b565b90508073ffffffffffffffffffffffffffffffffffffffff168373ffffffffffffffffffffffffffffffffffffffff16141561068f576040517f08c379a0000000000000000000000000000000000000000000000000000000008152600401610686906129e9565b60405180910390fd5b8073ffffffffffffffffffffffffffffffffffffffff166106ae611230565b73ffffffffffffffffffffffffffffffffffffffff1614806106dd57506106dc816106d7611230565b610f56565b5b61071c576040517f08c379a000000000000000000000000000000000000000000000000000000000815260040161071390612a7b565b60405180910390fd5b6107268383611238565b505050565b6000600880549050905090565b610749610743611230565b826112f1565b610788576040517f08c379a000000000000000000000000000000000000000000000000000000000815260040161077f90612b0d565b60405180910390fd5b6107938383836113cf565b505050565b60006107a3836109cd565b82106107e4576040517f08c379a00000000000000000000000000000000000000000000000000000000081526004016107db90612b9f565b60405180910390fd5b600660008473ffffffffffffffffffffffffffffffffffffffff1673ffffffffffffffffffffffffffffffffffffffff168152602001908152602001600020600083815260200190815260200160002054905092915050565b61085883838360405180602001604052806000815250610ccf565b505050565b600061086761072b565b82106108a8576040517f08c379a000000000000000000000000000000000000000000000000000000000815260040161089f90612c31565b60405180910390fd5b600882815481106108bc576108bb612c51565b5b90600052602060002001549050919050565b600080600b836040516108e19190612cbc565b90815260200160405180910390205490506108fb816111c4565b610909576000915050610916565b6109128161091b565b9150505b919050565b6000806002600084815260200190815260200160002060009054906101000a900473ffffffffffffffffffffffffffffffffffffffff169050600073ffffffffffffffffffffffffffffffffffffffff168173ffffffffffffffffffffffffffffffffffffffff1614156109c4576040517f08c379a00000000000000000000000000000000000000000000000000000000081526004016109bb90612d45565b60405180910390fd5b80915050919050565b60008073ffffffffffffffffffffffffffffffffffffffff168273ffffffffffffffffffffffffffffffffffffffff161415610a3e576040517f08c379a0000000000000000000000000000000000000000000000000000000008152600401610a3590612dd7565b60405180910390fd5b600360008373ffffffffffffffffffffffffffffffffffffffff1673ffffffffffffffffffffffffffffffffffffffff168152602001908152602001600020549050919050565b610a8d611230565b73ffffffffffffffffffffffffffffffffffffffff16610aab610b23565b73ffffffffffffffffffffffffffffffffffffffff1614610b01576040517f08c379a0000000000000000000000000000000000000000000000000000000008152600401610af890612e43565b60405180910390fd5b610b0b6000611636565b565b60006001600d54610b1e9190612e92565b905090565b6000600a60009054906101000a900473ffffffffffffffffffffffffffffffffffffffff16905090565b610b55611230565b73ffffffffffffffffffffffffffffffffffffffff16610b73610b23565b73ffffffffffffffffffffffffffffffffffffffff1614610bc9576040517f08c379a0000000000000000000000000000000000000000000000000000000008152600401610bc090612e43565b60405180910390fd5b6000815111610c0d576040517f08c379a0000000000000000000000000000000000000000000000000000000008152600401610c0490612f12565b60405180910390fd5b80600e9080519060200190610c239291906120d8565b5050565b606060018054610c36906128b3565b80601f0160208091040260200160405190810160405280929190818152602001828054610c62906128b3565b8015610caf5780601f10610c8457610100808354040283529160200191610caf565b820191906000526020600020905b815481529060010190602001808311610c9257829003601f168201915b5050505050905090565b610ccb610cc4611230565b83836116fc565b5050565b610ce0610cda611230565b836112f1565b610d1f576040517f08c379a0000000000000000000000000000000000000000000000000000000008152600401610d1690612b0d565b60405180910390fd5b610d2b84848484611869565b50505050565b60606000600c60008481526020019081526020016000208054610d53906128b3565b80601f0160208091040260200160405190810160405280929190818152602001828054610d7f906128b3565b8015610dcc5780601f10610da157610100808354040283529160200191610dcc565b820191906000526020600020905b815481529060010190602001808311610daf57829003601f168201915b50505050509050600e81604051602001610de792919061305e565b604051602081830303815290604052915050919050565b610e06611230565b73ffffffffffffffffffffffffffffffffffffffff16610e24610b23565b73ffffffffffffffffffffffffffffffffffffffff1614610e7a576040517f08c379a0000000000000000000000000000000000000000000000000000000008152600401610e7190612e43565b60405180910390fd5b6000600b82604051610e8c9190612cbc565b90815260200160405180910390205414610edb576040517f08c379a0000000000000000000000000000000000000000000000000000000008152600401610ed2906130e4565b60405180910390fd5b6000600d54905080600b83604051610ef39190612cbc565b90815260200160405180910390208190555081600c60008381526020019081526020016000209080519060200190610f2c9291906120d8565b50610f3783826118c5565b6001600d6000828254610f4a9190613104565b92505081905550505050565b6000600560008473ffffffffffffffffffffffffffffffffffffffff1673ffffffffffffffffffffffffffffffffffffffff16815260200190815260200160002060008373ffffffffffffffffffffffffffffffffffffffff1673ffffffffffffffffffffffffffffffffffffffff16815260200190815260200160002060009054906101000a900460ff16905092915050565b610ff2611230565b73ffffffffffffffffffffffffffffffffffffffff16611010610b23565b73ffffffffffffffffffffffffffffffffffffffff1614611066576040517f08c379a000000000000000000000000000000000000000000000000000000000815260040161105d90612e43565b60405180910390fd5b600073ffffffffffffffffffffffffffffffffffffffff168173ffffffffffffffffffffffffffffffffffffffff1614156110d6576040517f08c379a00000000000000000000000000000000000000000000000000000000081526004016110cd906131cc565b60405180910390fd5b6110df81611636565b50565b60007f80ac58cd000000000000000000000000000000000000000000000000000000007bffffffffffffffffffffffffffffffffffffffffffffffffffffffff1916827bffffffffffffffffffffffffffffffffffffffffffffffffffffffff191614806111ad57507f5b5e139f000000000000000000000000000000000000000000000000000000007bffffffffffffffffffffffffffffffffffffffffffffffffffffffff1916827bffffffffffffffffffffffffffffffffffffffffffffffffffffffff1916145b806111bd57506111bc82611a9f565b5b9050919050565b60008073ffffffffffffffffffffffffffffffffffffffff166002600084815260200190815260200160002060009054906101000a900473ffffffffffffffffffffffffffffffffffffffff1673ffffffffffffffffffffffffffffffffffffffff1614159050919050565b600033905090565b816004600083815260200190815260200160002060006101000a81548173ffffffffffffffffffffffffffffffffffffffff021916908373ffffffffffffffffffffffffffffffffffffffff160217905550808273ffffffffffffffffffffffffffffffffffffffff166112ab8361091b565b73ffffffffffffffffffffffffffffffffffffffff167f8c5be1e5ebec7d5bd14f71427d1e84f3dd0314c0f7b2291e5b200ac8c7c3b92560405160405180910390a45050565b60006112fc826111c4565b61133b576040517f08c379a00000000000000000000000000000000000000000000000000000000081526004016113329061325e565b60405180910390fd5b60006113468361091b565b90508073ffffffffffffffffffffffffffffffffffffffff168473ffffffffffffffffffffffffffffffffffffffff1614806113b557508373ffffffffffffffffffffffffffffffffffffffff1661139d8461058e565b73ffffffffffffffffffffffffffffffffffffffff16145b806113c657506113c58185610f56565b5b91505092915050565b8273ffffffffffffffffffffffffffffffffffffffff166113ef8261091b565b73ffffffffffffffffffffffffffffffffffffffff1614611445576040517f08c379a000000000000000000000000000000000000000000000000000000000815260040161143c906132f0565b60405180910390fd5b600073ffffffffffffffffffffffffffffffffffffffff168273ffffffffffffffffffffffffffffffffffffffff1614156114b5576040517f08c379a00000000000000000000000000000000000000000000000000000000081526004016114ac90613382565b60405180910390fd5b6114c0838383611b09565b6114cb600082611238565b6001600360008573ffffffffffffffffffffffffffffffffffffffff1673ffffffffffffffffffffffffffffffffffffffff168152602001908152602001600020600082825461151b9190612e92565b925050819055506001600360008473ffffffffffffffffffffffffffffffffffffffff1673ffffffffffffffffffffffffffffffffffffffff16815260200190815260200160002060008282546115729190613104565b92505081905550816002600083815260200190815260200160002060006101000a81548173ffffffffffffffffffffffffffffffffffffffff021916908373ffffffffffffffffffffffffffffffffffffffff160217905550808273ffffffffffffffffffffffffffffffffffffffff168473ffffffffffffffffffffffffffffffffffffffff167fddf252ad1be2c89b69c2b068fc378daa952ba7f163c4a11628f55a4df523b3ef60405160405180910390a4611631838383611c1d565b505050565b6000600a60009054906101000a900473ffffffffffffffffffffffffffffffffffffffff16905081600a60006101000a81548173ffffffffffffffffffffffffffffffffffffffff021916908373ffffffffffffffffffffffffffffffffffffffff1602179055508173ffffffffffffffffffffffffffffffffffffffff168173ffffffffffffffffffffffffffffffffffffffff167f8be0079c531659141344cd1fd0a4f28419497f9722a3daafe3b4186f6b6457e060405160405180910390a35050565b8173ffffffffffffffffffffffffffffffffffffffff168373ffffffffffffffffffffffffffffffffffffffff16141561176b576040517f08c379a0000000000000000000000000000000000000000000000000000000008152600401611762906133ee565b60405180910390fd5b80600560008573ffffffffffffffffffffffffffffffffffffffff1673ffffffffffffffffffffffffffffffffffffffff16815260200190815260200160002060008473ffffffffffffffffffffffffffffffffffffffff1673ffffffffffffffffffffffffffffffffffffffff16815260200190815260200160002060006101000a81548160ff0219169083151502179055508173ffffffffffffffffffffffffffffffffffffffff168373ffffffffffffffffffffffffffffffffffffffff167f17307eab39ab6107e8899845ad3d59bd9653f200f220920489ca2b5937696c318360405161185c919061222f565b60405180910390a3505050565b6118748484846113cf565b61188084848484611c22565b6118bf576040517f08c379a00000000000000000000000000000000000000000000000000000000081526004016118b690613480565b60405180910390fd5b50505050565b600073ffffffffffffffffffffffffffffffffffffffff168273ffffffffffffffffffffffffffffffffffffffff161415611935576040517f08c379a000000000000000000000000000000000000000000000000000000000815260040161192c906134ec565b60405180910390fd5b61193e816111c4565b1561197e576040517f08c379a000000000000000000000000000000000000000000000000000000000815260040161197590613558565b60405180910390fd5b61198a60008383611b09565b6001600360008473ffffffffffffffffffffffffffffffffffffffff1673ffffffffffffffffffffffffffffffffffffffff16815260200190815260200160002060008282546119da9190613104565b92505081905550816002600083815260200190815260200160002060006101000a81548173ffffffffffffffffffffffffffffffffffffffff021916908373ffffffffffffffffffffffffffffffffffffffff160217905550808273ffffffffffffffffffffffffffffffffffffffff16600073ffffffffffffffffffffffffffffffffffffffff167fddf252ad1be2c89b69c2b068fc378daa952ba7f163c4a11628f55a4df523b3ef60405160405180910390a4611a9b60008383611c1d565b5050565b60007f01ffc9a7000000000000000000000000000000000000000000000000000000007bffffffffffffffffffffffffffffffffffffffffffffffffffffffff1916827bffffffffffffffffffffffffffffffffffffffffffffffffffffffff1916149050919050565b611b14838383611daa565b600073ffffffffffffffffffffffffffffffffffffffff168373ffffffffffffffffffffffffffffffffffffffff161415611b5757611b5281611daf565b611b96565b8173ffffffffffffffffffffffffffffffffffffffff168373ffffffffffffffffffffffffffffffffffffffff1614611b9557611b948382611df8565b5b5b600073ffffffffffffffffffffffffffffffffffffffff168273ffffffffffffffffffffffffffffffffffffffff161415611bd957611bd481611f65565b611c18565b8273ffffffffffffffffffffffffffffffffffffffff168273ffffffffffffffffffffffffffffffffffffffff1614611c1757611c168282612036565b5b5b505050565b505050565b6000611c438473ffffffffffffffffffffffffffffffffffffffff166120b5565b15611d9d578373ffffffffffffffffffffffffffffffffffffffff1663150b7a02611c6c611230565b8786866040518563ffffffff1660e01b8152600401611c8e94939291906135cd565b6020604051808303816000875af1925050508015611cca57506040513d601f19601f82011682018060405250810190611cc7919061362e565b60015b611d4d573d8060008114611cfa576040519150601f19603f3d011682016040523d82523d6000602084013e611cff565b606091505b50600081511415611d45576040517f08c379a0000000000000000000000000000000000000000000000000000000008152600401611d3c90613480565b60405180910390fd5b805181602001fd5b63150b7a0260e01b7bffffffffffffffffffffffffffffffffffffffffffffffffffffffff1916817bffffffffffffffffffffffffffffffffffffffffffffffffffffffff191614915050611da2565b600190505b949350505050565b505050565b6008805490506009600083815260200190815260200160002081905550600881908060018154018082558091505060019003906000526020600020016000909190919091505550565b60006001611e05846109cd565b611e0f9190612e92565b9050600060076000848152602001908152602001600020549050818114611ef4576000600660008673ffffffffffffffffffffffffffffffffffffffff1673ffffffffffffffffffffffffffffffffffffffff168152602001908152602001600020600084815260200190815260200160002054905080600660008773ffffffffffffffffffffffffffffffffffffffff1673ffffffffffffffffffffffffffffffffffffffff168152602001908152602001600020600084815260200190815260200160002081905550816007600083815260200190815260200160002081905550505b6007600084815260200190815260200160002060009055600660008573ffffffffffffffffffffffffffffffffffffffff1673ffffffffffffffffffffffffffffffffffffffff16815260200190815260200160002060008381526020019081526020016000206000905550505050565b60006001600880549050611f799190612e92565b9050600060096000848152602001908152602001600020549050600060088381548110611fa957611fa8612c51565b5b906000526020600020015490508060088381548110611fcb57611fca612c51565b5b90600052602060002001819055508160096000838152602001908152602001600020819055506009600085815260200190815260200160002060009055600880548061201a5761201961365b565b5b6001900381819060005260206000200160009055905550505050565b6000612041836109cd565b905081600660008573ffffffffffffffffffffffffffffffffffffffff1673ffffffffffffffffffffffffffffffffffffffff168152602001908152602001600020600083815260200190815260200160002081905550806007600084815260200190815260200160002081905550505050565b6000808273ffffffffffffffffffffffffffffffffffffffff163b119050919050565b8280546120e4906128b3565b90600052602060002090601f016020900481019282612106576000855561214d565b82601f1061211f57805160ff191683800117855561214d565b8280016001018555821561214d579182015b8281111561214c578251825591602001919060010190612131565b5b50905061215a919061215e565b5090565b5b8082111561217757600081600090555060010161215f565b5090565b6000604051905090565b600080fd5b600080fd5b60007fffffffff0000000000000000000000000000000000000000000000000000000082169050919050565b6121c48161218f565b81146121cf57600080fd5b50565b6000813590506121e1816121bb565b92915050565b6000602082840312156121fd576121fc612185565b5b600061220b848285016121d2565b91505092915050565b60008115159050919050565b61222981612214565b82525050565b60006020820190506122446000830184612220565b92915050565b600081519050919050565b600082825260208201905092915050565b60005b83811015612284578082015181840152602081019050612269565b83811115612293576000848401525b50505050565b6000601f19601f8301169050919050565b60006122b58261224a565b6122bf8185612255565b93506122cf818560208601612266565b6122d881612299565b840191505092915050565b600060208201905081810360008301526122fd81846122aa565b905092915050565b6000819050919050565b61231881612305565b811461232357600080fd5b50565b6000813590506123358161230f565b92915050565b60006020828403121561235157612350612185565b5b600061235f84828501612326565b91505092915050565b600073ffffffffffffffffffffffffffffffffffffffff82169050919050565b600061239382612368565b9050919050565b6123a381612388565b82525050565b60006020820190506123be600083018461239a565b92915050565b6123cd81612388565b81146123d857600080fd5b50565b6000813590506123ea816123c4565b92915050565b6000806040838503121561240757612406612185565b5b6000612415858286016123db565b925050602061242685828601612326565b9150509250929050565b61243981612305565b82525050565b60006020820190506124546000830184612430565b92915050565b60008060006060848603121561247357612472612185565b5b6000612481868287016123db565b9350506020612492868287016123db565b92505060406124a386828701612326565b9150509250925092565b600080fd5b600080fd5b7f4e487b7100000000000000000000000000000000000000000000000000000000600052604160045260246000fd5b6124ef82612299565b810181811067ffffffffffffffff8211171561250e5761250d6124b7565b5b80604052505050565b600061252161217b565b905061252d82826124e6565b919050565b600067ffffffffffffffff82111561254d5761254c6124b7565b5b61255682612299565b9050602081019050919050565b82818337600083830152505050565b600061258561258084612532565b612517565b9050828152602081018484840111156125a1576125a06124b2565b5b6125ac848285612563565b509392505050565b600082601f8301126125c9576125c86124ad565b5b81356125d9848260208601612572565b91505092915050565b6000602082840312156125f8576125f7612185565b5b600082013567ffffffffffffffff8111156126165761261561218a565b5b612622848285016125b4565b91505092915050565b60006020828403121561264157612640612185565b5b600061264f848285016123db565b91505092915050565b61266181612214565b811461266c57600080fd5b50565b60008135905061267e81612658565b92915050565b6000806040838503121561269b5761269a612185565b5b60006126a9858286016123db565b92505060206126ba8582860161266f565b9150509250929050565b600067ffffffffffffffff8211156126df576126de6124b7565b5b6126e882612299565b9050602081019050919050565b6000612708612703846126c4565b612517565b905082815260208101848484011115612724576127236124b2565b5b61272f848285612563565b509392505050565b600082601f83011261274c5761274b6124ad565b5b813561275c8482602086016126f5565b91505092915050565b6000806000806080858703121561277f5761277e612185565b5b600061278d878288016123db565b945050602061279e878288016123db565b93505060406127af87828801612326565b925050606085013567ffffffffffffffff8111156127d0576127cf61218a565b5b6127dc87828801612737565b91505092959194509250565b600080604083850312156127ff576127fe612185565b5b600061280d858286016123db565b925050602083013567ffffffffffffffff81111561282e5761282d61218a565b5b61283a858286016125b4565b9150509250929050565b6000806040838503121561285b5761285a612185565b5b6000612869858286016123db565b925050602061287a858286016123db565b9150509250929050565b7f4e487b7100000000000000000000000000000000000000000000000000000000600052602260045260246000fd5b600060028204905060018216806128cb57607f821691505b602082108114156128df576128de612884565b5b50919050565b7f4552433732313a20617070726f76656420717565727920666f72206e6f6e657860008201527f697374656e7420746f6b656e0000000000000000000000000000000000000000602082015250565b6000612941602c83612255565b915061294c826128e5565b604082019050919050565b6000602082019050818103600083015261297081612934565b9050919050565b7f4552433732313a20617070726f76616c20746f2063757272656e74206f776e6560008201527f7200000000000000000000000000000000000000000000000000000000000000602082015250565b60006129d3602183612255565b91506129de82612977565b604082019050919050565b60006020820190508181036000830152612a02816129c6565b9050919050565b7f4552433732313a20617070726f76652063616c6c6572206973206e6f74206f7760008201527f6e6572206e6f7220617070726f76656420666f7220616c6c0000000000000000602082015250565b6000612a65603883612255565b9150612a7082612a09565b604082019050919050565b60006020820190508181036000830152612a9481612a58565b9050919050565b7f4552433732313a207472616e736665722063616c6c6572206973206e6f74206f60008201527f776e6572206e6f7220617070726f766564000000000000000000000000000000602082015250565b6000612af7603183612255565b9150612b0282612a9b565b604082019050919050565b60006020820190508181036000830152612b2681612aea565b9050919050565b7f455243373231456e756d657261626c653a206f776e657220696e646578206f7560008201527f74206f6620626f756e6473000000000000000000000000000000000000000000602082015250565b6000612b89602b83612255565b9150612b9482612b2d565b604082019050919050565b60006020820190508181036000830152612bb881612b7c565b9050919050565b7f455243373231456e756d657261626c653a20676c6f62616c20696e646578206f60008201527f7574206f6620626f756e64730000000000000000000000000000000000000000602082015250565b6000612c1b602c83612255565b9150612c2682612bbf565b604082019050919050565b60006020820190508181036000830152612c4a81612c0e565b9050919050565b7f4e487b7100000000000000000000000000000000000000000000000000000000600052603260045260246000fd5b600081905092915050565b6000612c968261224a565b612ca08185612c80565b9350612cb0818560208601612266565b80840191505092915050565b6000612cc88284612c8b565b915081905092915050565b7f4552433732313a206f776e657220717565727920666f72206e6f6e657869737460008201527f656e7420746f6b656e0000000000000000000000000000000000000000000000602082015250565b6000612d2f602983612255565b9150612d3a82612cd3565b604082019050919050565b60006020820190508181036000830152612d5e81612d22565b9050919050565b7f4552433732313a2062616c616e636520717565727920666f7220746865207a6560008201527f726f206164647265737300000000000000000000000000000000000000000000602082015250565b6000612dc1602a83612255565b9150612dcc82612d65565b604082019050919050565b60006020820190508181036000830152612df081612db4565b9050919050565b7f4f776e61626c653a2063616c6c6572206973206e6f7420746865206f776e6572600082015250565b6000612e2d602083612255565b9150612e3882612df7565b602082019050919050565b60006020820190508181036000830152612e5c81612e20565b9050919050565b7f4e487b7100000000000000000000000000000000000000000000000000000000600052601160045260246000fd5b6000612e9d82612305565b9150612ea883612305565b925082821015612ebb57612eba612e63565b5b828203905092915050565b7f73686f756c6420736574206e6f7420656d70747920626173652075726c000000600082015250565b6000612efc601d83612255565b9150612f0782612ec6565b602082019050919050565b60006020820190508181036000830152612f2b81612eef565b9050919050565b60008190508160005260206000209050919050565b60008154612f54816128b3565b612f5e8186612c80565b94506001821660008114612f795760018114612f8a57612fbd565b60ff19831686528186019350612fbd565b612f9385612f32565b60005b83811015612fb557815481890152600182019150602081019050612f96565b838801955050505b50505092915050565b7f2f00000000000000000000000000000000000000000000000000000000000000600082015250565b6000612ffc600183612c80565b915061300782612fc6565b600182019050919050565b7f2e6d657461646174612e6a736f6e000000000000000000000000000000000000600082015250565b6000613048600e83612c80565b915061305382613012565b600e82019050919050565b600061306a8285612f47565b915061307582612fef565b91506130818284612c8b565b915061308c8261303b565b91508190509392505050565b7f616c7265616479206d696e740000000000000000000000000000000000000000600082015250565b60006130ce600c83612255565b91506130d982613098565b602082019050919050565b600060208201905081810360008301526130fd816130c1565b9050919050565b600061310f82612305565b915061311a83612305565b9250827fffffffffffffffffffffffffffffffffffffffffffffffffffffffffffffffff0382111561314f5761314e612e63565b5b828201905092915050565b7f4f776e61626c653a206e6577206f776e657220697320746865207a65726f206160008201527f6464726573730000000000000000000000000000000000000000000000000000602082015250565b60006131b6602683612255565b91506131c18261315a565b604082019050919050565b600060208201905081810360008301526131e5816131a9565b9050919050565b7f4552433732313a206f70657261746f7220717565727920666f72206e6f6e657860008201527f697374656e7420746f6b656e0000000000000000000000000000000000000000602082015250565b6000613248602c83612255565b9150613253826131ec565b604082019050919050565b600060208201905081810360008301526132778161323b565b9050919050565b7f4552433732313a207472616e736665722066726f6d20696e636f72726563742060008201527f6f776e6572000000000000000000000000000000000000000000000000000000602082015250565b60006132da602583612255565b91506132e58261327e565b604082019050919050565b60006020820190508181036000830152613309816132cd565b9050919050565b7f4552433732313a207472616e7366657220746f20746865207a65726f2061646460008201527f7265737300000000000000000000000000000000000000000000000000000000602082015250565b600061336c602483612255565b915061337782613310565b604082019050919050565b6000602082019050818103600083015261339b8161335f565b9050919050565b7f4552433732313a20617070726f766520746f2063616c6c657200000000000000600082015250565b60006133d8601983612255565b91506133e3826133a2565b602082019050919050565b60006020820190508181036000830152613407816133cb565b9050919050565b7f4552433732313a207472616e7366657220746f206e6f6e20455243373231526560008201527f63656976657220696d706c656d656e7465720000000000000000000000000000602082015250565b600061346a603283612255565b91506134758261340e565b604082019050919050565b600060208201905081810360008301526134998161345d565b9050919050565b7f4552433732313a206d696e7420746f20746865207a65726f2061646472657373600082015250565b60006134d6602083612255565b91506134e1826134a0565b602082019050919050565b60006020820190508181036000830152613505816134c9565b9050919050565b7f4552433732313a20746f6b656e20616c7265616479206d696e74656400000000600082015250565b6000613542601c83612255565b915061354d8261350c565b602082019050919050565b6000602082019050818103600083015261357181613535565b9050919050565b600081519050919050565b600082825260208201905092915050565b600061359f82613578565b6135a98185613583565b93506135b9818560208601612266565b6135c281612299565b840191505092915050565b60006080820190506135e2600083018761239a565b6135ef602083018661239a565b6135fc6040830185612430565b818103606083015261360e8184613594565b905095945050505050565b600081519050613628816121bb565b92915050565b60006020828403121561364457613643612185565b5b600061365284828501613619565b91505092915050565b7f4e487b7100000000000000000000000000000000000000000000000000000000600052603160045260246000fdfea264697066735822122010af7a322a567d41d359c2909dd41efc4b81480a03dd8d1bfb14cce0b5aea0c564736f6c634300080c0033",
  "immutableReferences": {},
  "source": "pragma solidity ^0.8.0;\n\nimport \"@openzeppelin/contracts/utils/Context.sol\";\nimport \"@openzeppelin/contracts/token/ERC721/extensions/ERC721Enumerable.sol\";\nimport \"@openzeppelin/contracts/access/Ownable.sol\";\n\ncontract RustToken721 is Context, ERC721Enumerable, Ownable {\n    mapping(string => uint256) private _name2token;\n    mapping(uint256 => string) private _token2name;\n    uint256 _localTokenId = 1;\n    string _tokenBaseURI = \"\";\n\n    constructor() ERC721(\"RustToken721\", \"RT\") {}\n\n    function setTokenBaseURI(string memory baseURI) public onlyOwner {\n        require(bytes(baseURI).length > 0, \"should set not empty base url\");\n        _tokenBaseURI = baseURI;\n    }\n\n    function mint(address to, string memory tokenName)\n        public\n        virtual\n        onlyOwner\n    {\n        require(_name2token[tokenName] == 0, \"already mint\");\n\n        uint256 tokenId = _localTokenId;\n        _name2token[tokenName] = tokenId;\n        _token2name[tokenId] = tokenName;\n        _mint(to, tokenId);\n\n        _localTokenId += 1;\n    }\n\n    function tokenURI(uint256 tokenId)\n        public\n        view\n        virtual\n        override\n        returns (string memory)\n    {\n        string memory tokenName = _token2name[tokenId];\n        return\n            string(\n                abi.encodePacked(\n                    _tokenBaseURI,\n                    \"/\",\n                    tokenName,\n                    \".metadata.json\"\n                )\n            );\n    }\n\n    function ownerAddressOf(string memory tokenName)\n        public\n        view\n        virtual\n        returns (address)\n    {\n        uint256 tokenId = _name2token[tokenName];\n        if (!_exists(tokenId)) {\n            return address(0);\n        }\n        return ownerOf(tokenId);\n    }\n\n    function currentSupply() public view virtual returns (uint256) {\n        return _localTokenId - 1;\n    }\n}\n",
  "sourcePath": "/Users/akiho/Applications/web3/rust-opensea/ethereum/contracts/ERC721.sol",
  "compiler": {
    "name": "solc",
    "version": "0.8.12+commit.f00d7308.Emscripten.clang"
  },
  "schemaVersion": "3.4.6",
  "updatedAt": "2022-03-16T11:22:03.233Z",
  "networkType": "ethereum",
  "devdoc": {
    "kind": "dev",
    "methods": {
      "approve(address,uint256)": {
        "details": "See {IERC721-approve}."
      },
      "balanceOf(address)": {
        "details": "See {IERC721-balanceOf}."
      },
      "getApproved(uint256)": {
        "details": "See {IERC721-getApproved}."
      },
      "isApprovedForAll(address,address)": {
        "details": "See {IERC721-isApprovedForAll}."
      },
      "name()": {
        "details": "See {IERC721Metadata-name}."
      },
      "owner()": {
        "details": "Returns the address of the current owner."
      },
      "ownerOf(uint256)": {
        "details": "See {IERC721-ownerOf}."
      },
      "renounceOwnership()": {
        "details": "Leaves the contract without owner. It will not be possible to call `onlyOwner` functions anymore. Can only be called by the current owner. NOTE: Renouncing ownership will leave the contract without an owner, thereby removing any functionality that is only available to the owner."
      },
      "safeTransferFrom(address,address,uint256)": {
        "details": "See {IERC721-safeTransferFrom}."
      },
      "safeTransferFrom(address,address,uint256,bytes)": {
        "details": "See {IERC721-safeTransferFrom}."
      },
      "setApprovalForAll(address,bool)": {
        "details": "See {IERC721-setApprovalForAll}."
      },
      "supportsInterface(bytes4)": {
        "details": "See {IERC165-supportsInterface}."
      },
      "symbol()": {
        "details": "See {IERC721Metadata-symbol}."
      },
      "tokenByIndex(uint256)": {
        "details": "See {IERC721Enumerable-tokenByIndex}."
      },
      "tokenOfOwnerByIndex(address,uint256)": {
        "details": "See {IERC721Enumerable-tokenOfOwnerByIndex}."
      },
      "tokenURI(uint256)": {
        "details": "See {IERC721Metadata-tokenURI}."
      },
      "totalSupply()": {
        "details": "See {IERC721Enumerable-totalSupply}."
      },
      "transferFrom(address,address,uint256)": {
        "details": "See {IERC721-transferFrom}."
      },
      "transferOwnership(address)": {
        "details": "Transfers ownership of the contract to a new account (`newOwner`). Can only be called by the current owner."
      }
    },
    "version": 1
  },
  "userdoc": {
    "kind": "user",
    "methods": {},
    "version": 1
  }
}