{
  "contractName": "RustToken1155",
  "abi": [
    {
      "inputs": [],
      "stateMutability": "nonpayable",
      "type": "constructor"
    },
    {
      "anonymous": false,
      "inputs": [
        {
          "indexed": true,
          "internalType": "address",
          "name": "account",
          "type": "address"
        },
        {
          "indexed": true,
          "internalType": "address",
          "name": "operator",
          "type": "address"
        },
        {
          "indexed": false,
          "internalType": "bool",
          "name": "approved",
          "type": "bool"
        }
      ],
      "name": "ApprovalForAll",
      "type": "event"
    },
    {
      "anonymous": false,
      "inputs": [
        {
          "indexed": true,
          "internalType": "address",
          "name": "previousOwner",
          "type": "address"
        },
        {
          "indexed": true,
          "internalType": "address",
          "name": "newOwner",
          "type": "address"
        }
      ],
      "name": "OwnershipTransferred",
      "type": "event"
    },
    {
      "anonymous": false,
      "inputs": [
        {
          "indexed": true,
          "internalType": "address",
          "name": "operator",
          "type": "address"
        },
        {
          "indexed": true,
          "internalType": "address",
          "name": "from",
          "type": "address"
        },
        {
          "indexed": true,
          "internalType": "address",
          "name": "to",
          "type": "address"
        },
        {
          "indexed": false,
          "internalType": "uint256[]",
          "name": "ids",
          "type": "uint256[]"
        },
        {
          "indexed": false,
          "internalType": "uint256[]",
          "name": "values",
          "type": "uint256[]"
        }
      ],
      "name": "TransferBatch",
      "type": "event"
    },
    {
      "anonymous": false,
      "inputs": [
        {
          "indexed": true,
          "internalType": "address",
          "name": "operator",
          "type": "address"
        },
        {
          "indexed": true,
          "internalType": "address",
          "name": "from",
          "type": "address"
        },
        {
          "indexed": true,
          "internalType": "address",
          "name": "to",
          "type": "address"
        },
        {
          "indexed": false,
          "internalType": "uint256",
          "name": "id",
          "type": "uint256"
        },
        {
          "indexed": false,
          "internalType": "uint256",
          "name": "value",
          "type": "uint256"
        }
      ],
      "name": "TransferSingle",
      "type": "event"
    },
    {
      "anonymous": false,
      "inputs": [
        {
          "indexed": false,
          "internalType": "string",
          "name": "value",
          "type": "string"
        },
        {
          "indexed": true,
          "internalType": "uint256",
          "name": "id",
          "type": "uint256"
        }
      ],
      "name": "URI",
      "type": "event"
    },
    {
      "inputs": [
        {
          "internalType": "address",
          "name": "account",
          "type": "address"
        },
        {
          "internalType": "uint256",
          "name": "id",
          "type": "uint256"
        }
      ],
      "name": "balanceOf",
      "outputs": [
        {
          "internalType": "uint256",
          "name": "",
          "type": "uint256"
        }
      ],
      "stateMutability": "view",
      "type": "function",
      "constant": true
    },
    {
      "inputs": [
        {
          "internalType": "address[]",
          "name": "accounts",
          "type": "address[]"
        },
        {
          "internalType": "uint256[]",
          "name": "ids",
          "type": "uint256[]"
        }
      ],
      "name": "balanceOfBatch",
      "outputs": [
        {
          "internalType": "uint256[]",
          "name": "",
          "type": "uint256[]"
        }
      ],
      "stateMutability": "view",
      "type": "function",
      "constant": true
    },
    {
      "inputs": [
        {
          "internalType": "address",
          "name": "account",
          "type": "address"
        },
        {
          "internalType": "address",
          "name": "operator",
          "type": "address"
        }
      ],
      "name": "isApprovedForAll",
      "outputs": [
        {
          "internalType": "bool",
          "name": "",
          "type": "bool"
        }
      ],
      "stateMutability": "view",
      "type": "function",
      "constant": true
    },
    {
      "inputs": [],
      "name": "name",
      "outputs": [
        {
          "internalType": "string",
          "name": "",
          "type": "string"
        }
      ],
      "stateMutability": "view",
      "type": "function",
      "constant": true
    },
    {
      "inputs": [],
      "name": "owner",
      "outputs": [
        {
          "internalType": "address",
          "name": "",
          "type": "address"
        }
      ],
      "stateMutability": "view",
      "type": "function",
      "constant": true
    },
    {
      "inputs": [],
      "name": "renounceOwnership",
      "outputs": [],
      "stateMutability": "nonpayable",
      "type": "function"
    },
    {
      "inputs": [
        {
          "internalType": "address",
          "name": "from",
          "type": "address"
        },
        {
          "internalType": "address",
          "name": "to",
          "type": "address"
        },
        {
          "internalType": "uint256[]",
          "name": "ids",
          "type": "uint256[]"
        },
        {
          "internalType": "uint256[]",
          "name": "amounts",
          "type": "uint256[]"
        },
        {
          "internalType": "bytes",
          "name": "data",
          "type": "bytes"
        }
      ],
      "name": "safeBatchTransferFrom",
      "outputs": [],
      "stateMutability": "nonpayable",
      "type": "function"
    },
    {
      "inputs": [
        {
          "internalType": "address",
          "name": "from",
          "type": "address"
        },
        {
          "internalType": "address",
          "name": "to",
          "type": "address"
        },
        {
          "internalType": "uint256",
          "name": "id",
          "type": "uint256"
        },
        {
          "internalType": "uint256",
          "name": "amount",
          "type": "uint256"
        },
        {
          "internalType": "bytes",
          "name": "data",
          "type": "bytes"
        }
      ],
      "name": "safeTransferFrom",
      "outputs": [],
      "stateMutability": "nonpayable",
      "type": "function"
    },
    {
      "inputs": [
        {
          "internalType": "address",
          "name": "operator",
          "type": "address"
        },
        {
          "internalType": "bool",
          "name": "approved",
          "type": "bool"
        }
      ],
      "name": "setApprovalForAll",
      "outputs": [],
      "stateMutability": "nonpayable",
      "type": "function"
    },
    {
      "inputs": [
        {
          "internalType": "bytes4",
          "name": "interfaceId",
          "type": "bytes4"
        }
      ],
      "name": "supportsInterface",
      "outputs": [
        {
          "internalType": "bool",
          "name": "",
          "type": "bool"
        }
      ],
      "stateMutability": "view",
      "type": "function",
      "constant": true
    },
    {
      "inputs": [],
      "name": "symbol",
      "outputs": [
        {
          "internalType": "string",
          "name": "",
          "type": "string"
        }
      ],
      "stateMutability": "view",
      "type": "function",
      "constant": true
    },
    {
      "inputs": [
        {
          "internalType": "address",
          "name": "newOwner",
          "type": "address"
        }
      ],
      "name": "transferOwnership",
      "outputs": [],
      "stateMutability": "nonpayable",
      "type": "function"
    },
    {
      "inputs": [
        {
          "internalType": "string",
          "name": "baseURI",
          "type": "string"
        }
      ],
      "name": "setTokenBaseURI",
      "outputs": [],
      "stateMutability": "nonpayable",
      "type": "function"
    },
    {
      "inputs": [
        {
          "internalType": "address",
          "name": "to",
          "type": "address"
        },
        {
          "internalType": "string",
          "name": "tokenName",
          "type": "string"
        },
        {
          "internalType": "uint256",
          "name": "amount",
          "type": "uint256"
        }
      ],
      "name": "mint",
      "outputs": [],
      "stateMutability": "nonpayable",
      "type": "function"
    },
    {
      "inputs": [
        {
          "internalType": "address",
          "name": "to",
          "type": "address"
        },
        {
          "internalType": "string[]",
          "name": "tokenNames",
          "type": "string[]"
        },
        {
          "internalType": "uint256[]",
          "name": "amounts",
          "type": "uint256[]"
        }
      ],
      "name": "mintBatch",
      "outputs": [],
      "stateMutability": "nonpayable",
      "type": "function"
    },
    {
      "inputs": [
        {
          "internalType": "uint256",
          "name": "tokenId",
          "type": "uint256"
        }
      ],
      "name": "uri",
      "outputs": [
        {
          "internalType": "string",
          "name": "",
          "type": "string"
        }
      ],
      "stateMutability": "view",
      "type": "function",
      "constant": true
    },
    {
      "inputs": [],
      "name": "currentSupply",
      "outputs": [
        {
          "internalType": "uint256",
          "name": "",
          "type": "uint256"
        }
      ],
      "stateMutability": "view",
      "type": "function",
      "constant": true
    }
  ],
  "bytecode": "0x608060405260016006556040518060200160405280600081525060079080519060200190620000309291906200020d565b506040518060400160405280600d81526020017f52757374546f6b656e3131353500000000000000000000000000000000000000815250600890805190602001906200007e9291906200020d565b506040518060400160405280600281526020017f525400000000000000000000000000000000000000000000000000000000000081525060099080519060200190620000cc9291906200020d565b50348015620000da57600080fd5b5060405180602001604052806000815250620000fc816200012360201b60201c565b506200011d620001116200013f60201b60201c565b6200014760201b60201c565b62000322565b80600290805190602001906200013b9291906200020d565b5050565b600033905090565b6000600360009054906101000a900473ffffffffffffffffffffffffffffffffffffffff16905081600360006101000a81548173ffffffffffffffffffffffffffffffffffffffff021916908373ffffffffffffffffffffffffffffffffffffffff1602179055508173ffffffffffffffffffffffffffffffffffffffff168173ffffffffffffffffffffffffffffffffffffffff167f8be0079c531659141344cd1fd0a4f28419497f9722a3daafe3b4186f6b6457e060405160405180910390a35050565b8280546200021b90620002ec565b90600052602060002090601f0160209004810192826200023f57600085556200028b565b82601f106200025a57805160ff19168380011785556200028b565b828001600101855582156200028b579182015b828111156200028a5782518255916020019190600101906200026d565b5b5090506200029a91906200029e565b5090565b5b80821115620002b95760008160009055506001016200029f565b5090565b7f4e487b7100000000000000000000000000000000000000000000000000000000600052602260045260246000fd5b600060028204905060018216806200030557607f821691505b602082108114156200031c576200031b620002bd565b5b50919050565b613a8b80620003326000396000f3fe608060405234801561001057600080fd5b506004361061010a5760003560e01c8063771282f6116100a2578063a22cb46511610071578063a22cb465146102a5578063ba7aef43146102c1578063e985e9c5146102dd578063f242432a1461030d578063f2fde38b146103295761010a565b8063771282f61461022f5780638da5cb5b1461024d5780638ef79e911461026b57806395d89b41146102875761010a565b80632eb2c2d6116100de5780632eb2c2d6146101bd5780634d8437d8146101d95780634e1273f4146101f5578063715018a6146102255761010a565b8062fdd58e1461010f57806301ffc9a71461013f57806306fdde031461016f5780630e89341c1461018d575b600080fd5b6101296004803603810190610124919061211d565b610345565b604051610136919061216c565b60405180910390f35b610159600480360381019061015491906121df565b61040e565b6040516101669190612227565b60405180910390f35b6101776104f0565b60405161018491906122db565b60405180910390f35b6101a760048036038101906101a291906122fd565b61057e565b6040516101b491906122db565b60405180910390f35b6101d760048036038101906101d29190612527565b61064b565b005b6101f360048036038101906101ee9190612778565b6106ec565b005b61020f600480360381019061020a91906128c6565b610898565b60405161021c91906129fc565b60405180910390f35b61022d6109b1565b005b610237610a39565b604051610244919061216c565b60405180910390f35b610255610a4f565b6040516102629190612a2d565b60405180910390f35b61028560048036038101906102809190612a48565b610a79565b005b61028f610b53565b60405161029c91906122db565b60405180910390f35b6102bf60048036038101906102ba9190612abd565b610be1565b005b6102db60048036038101906102d69190612afd565b610bf7565b005b6102f760048036038101906102f29190612b6c565b610d61565b6040516103049190612227565b60405180910390f35b61032760048036038101906103229190612bac565b610df5565b005b610343600480360381019061033e9190612c43565b610e96565b005b60008073ffffffffffffffffffffffffffffffffffffffff168373ffffffffffffffffffffffffffffffffffffffff1614156103b6576040517f08c379a00000000000000000000000000000000000000000000000000000000081526004016103ad90612ce2565b60405180910390fd5b60008083815260200190815260200160002060008473ffffffffffffffffffffffffffffffffffffffff1673ffffffffffffffffffffffffffffffffffffffff16815260200190815260200160002054905092915050565b60007fd9b67a26000000000000000000000000000000000000000000000000000000007bffffffffffffffffffffffffffffffffffffffffffffffffffffffff1916827bffffffffffffffffffffffffffffffffffffffffffffffffffffffff191614806104d957507f0e89341c000000000000000000000000000000000000000000000000000000007bffffffffffffffffffffffffffffffffffffffffffffffffffffffff1916827bffffffffffffffffffffffffffffffffffffffffffffffffffffffff1916145b806104e957506104e882610f8e565b5b9050919050565b600880546104fd90612d31565b80601f016020809104026020016040519081016040528092919081815260200182805461052990612d31565b80156105765780601f1061054b57610100808354040283529160200191610576565b820191906000526020600020905b81548152906001019060200180831161055957829003601f168201915b505050505081565b606060006005600084815260200190815260200160002080546105a090612d31565b80601f01602080910402602001604051908101604052809291908181526020018280546105cc90612d31565b80156106195780601f106105ee57610100808354040283529160200191610619565b820191906000526020600020905b8154815290600101906020018083116105fc57829003601f168201915b50505050509050600781604051602001610634929190612ecb565b604051602081830303815290604052915050919050565b610653610ff8565b73ffffffffffffffffffffffffffffffffffffffff168573ffffffffffffffffffffffffffffffffffffffff161480610699575061069885610693610ff8565b610d61565b5b6106d8576040517f08c379a00000000000000000000000000000000000000000000000000000000081526004016106cf90612f77565b60405180910390fd5b6106e58585858585611000565b5050505050565b600a825111156106fb57600080fd5b6000825167ffffffffffffffff8111156107185761071761232f565b5b6040519080825280602002602001820160405280156107465781602001602082028036833780820191505090505b50905060005b835181101561087657600084828151811061076a57610769612f97565b5b6020026020010151905060006004826040516107869190612fc6565b908152602001604051809103902054146107d5576040517f08c379a00000000000000000000000000000000000000000000000000000000081526004016107cc90613029565b60405180910390fd5b60006006549050806004836040516107ed9190612fc6565b90815260200160405180910390208190555081600560008381526020019081526020016000209080519060200190610826929190611fd2565b508084848151811061083b5761083a612f97565b5b60200260200101818152505060016006600082825461085a9190613078565b925050819055505050808061086e906130ce565b91505061074c565b5061089284828460405180602001604052806000815250611314565b50505050565b606081518351146108de576040517f08c379a00000000000000000000000000000000000000000000000000000000081526004016108d590613189565b60405180910390fd5b6000835167ffffffffffffffff8111156108fb576108fa61232f565b5b6040519080825280602002602001820160405280156109295781602001602082028036833780820191505090505b50905060005b84518110156109a65761097685828151811061094e5761094d612f97565b5b602002602001015185838151811061096957610968612f97565b5b6020026020010151610345565b82828151811061098957610988612f97565b5b6020026020010181815250508061099f906130ce565b905061092f565b508091505092915050565b6109b9610ff8565b73ffffffffffffffffffffffffffffffffffffffff166109d7610a4f565b73ffffffffffffffffffffffffffffffffffffffff1614610a2d576040517f08c379a0000000000000000000000000000000000000000000000000000000008152600401610a24906131f5565b60405180910390fd5b610a376000611532565b565b60006001600654610a4a9190613215565b905090565b6000600360009054906101000a900473ffffffffffffffffffffffffffffffffffffffff16905090565b610a81610ff8565b73ffffffffffffffffffffffffffffffffffffffff16610a9f610a4f565b73ffffffffffffffffffffffffffffffffffffffff1614610af5576040517f08c379a0000000000000000000000000000000000000000000000000000000008152600401610aec906131f5565b60405180910390fd5b6000815111610b39576040517f08c379a0000000000000000000000000000000000000000000000000000000008152600401610b3090613295565b60405180910390fd5b8060079080519060200190610b4f929190611fd2565b5050565b60098054610b6090612d31565b80601f0160208091040260200160405190810160405280929190818152602001828054610b8c90612d31565b8015610bd95780601f10610bae57610100808354040283529160200191610bd9565b820191906000526020600020905b815481529060010190602001808311610bbc57829003601f168201915b505050505081565b610bf3610bec610ff8565b83836115f8565b5050565b610bff610ff8565b73ffffffffffffffffffffffffffffffffffffffff16610c1d610a4f565b73ffffffffffffffffffffffffffffffffffffffff1614610c73576040517f08c379a0000000000000000000000000000000000000000000000000000000008152600401610c6a906131f5565b60405180910390fd5b6000600483604051610c859190612fc6565b90815260200160405180910390205414610cd4576040517f08c379a0000000000000000000000000000000000000000000000000000000008152600401610ccb90613029565b60405180910390fd5b6000600654905080600484604051610cec9190612fc6565b90815260200160405180910390208190555082600560008381526020019081526020016000209080519060200190610d25929190611fd2565b50610d4184828460405180602001604052806000815250611765565b600160066000828254610d549190613078565b9250508190555050505050565b6000600160008473ffffffffffffffffffffffffffffffffffffffff1673ffffffffffffffffffffffffffffffffffffffff16815260200190815260200160002060008373ffffffffffffffffffffffffffffffffffffffff1673ffffffffffffffffffffffffffffffffffffffff16815260200190815260200160002060009054906101000a900460ff16905092915050565b610dfd610ff8565b73ffffffffffffffffffffffffffffffffffffffff168573ffffffffffffffffffffffffffffffffffffffff161480610e435750610e4285610e3d610ff8565b610d61565b5b610e82576040517f08c379a0000000000000000000000000000000000000000000000000000000008152600401610e7990613327565b60405180910390fd5b610e8f85858585856118fb565b5050505050565b610e9e610ff8565b73ffffffffffffffffffffffffffffffffffffffff16610ebc610a4f565b73ffffffffffffffffffffffffffffffffffffffff1614610f12576040517f08c379a0000000000000000000000000000000000000000000000000000000008152600401610f09906131f5565b60405180910390fd5b600073ffffffffffffffffffffffffffffffffffffffff168173ffffffffffffffffffffffffffffffffffffffff161415610f82576040517f08c379a0000000000000000000000000000000000000000000000000000000008152600401610f79906133b9565b60405180910390fd5b610f8b81611532565b50565b60007f01ffc9a7000000000000000000000000000000000000000000000000000000007bffffffffffffffffffffffffffffffffffffffffffffffffffffffff1916827bffffffffffffffffffffffffffffffffffffffffffffffffffffffff1916149050919050565b600033905090565b8151835114611044576040517f08c379a000000000000000000000000000000000000000000000000000000000815260040161103b9061344b565b60405180910390fd5b600073ffffffffffffffffffffffffffffffffffffffff168473ffffffffffffffffffffffffffffffffffffffff1614156110b4576040517f08c379a00000000000000000000000000000000000000000000000000000000081526004016110ab906134dd565b60405180910390fd5b60006110be610ff8565b90506110ce818787878787611b7d565b60005b845181101561127f5760008582815181106110ef576110ee612f97565b5b60200260200101519050600085838151811061110e5761110d612f97565b5b60200260200101519050600080600084815260200190815260200160002060008b73ffffffffffffffffffffffffffffffffffffffff1673ffffffffffffffffffffffffffffffffffffffff168152602001908152602001600020549050818110156111af576040517f08c379a00000000000000000000000000000000000000000000000000000000081526004016111a69061356f565b60405180910390fd5b81810360008085815260200190815260200160002060008c73ffffffffffffffffffffffffffffffffffffffff1673ffffffffffffffffffffffffffffffffffffffff168152602001908152602001600020819055508160008085815260200190815260200160002060008b73ffffffffffffffffffffffffffffffffffffffff1673ffffffffffffffffffffffffffffffffffffffff16815260200190815260200160002060008282546112649190613078565b9250508190555050505080611278906130ce565b90506110d1565b508473ffffffffffffffffffffffffffffffffffffffff168673ffffffffffffffffffffffffffffffffffffffff168273ffffffffffffffffffffffffffffffffffffffff167f4a39dc06d4c0dbc64b70af90fd698a233a518aa5d07e595d983b8c0526c8f7fb87876040516112f692919061358f565b60405180910390a461130c818787878787611b85565b505050505050565b600073ffffffffffffffffffffffffffffffffffffffff168473ffffffffffffffffffffffffffffffffffffffff161415611384576040517f08c379a000000000000000000000000000000000000000000000000000000000815260040161137b90613638565b60405180910390fd5b81518351146113c8576040517f08c379a00000000000000000000000000000000000000000000000000000000081526004016113bf9061344b565b60405180910390fd5b60006113d2610ff8565b90506113e381600087878787611b7d565b60005b845181101561149c5783818151811061140257611401612f97565b5b60200260200101516000808784815181106114205761141f612f97565b5b6020026020010151815260200190815260200160002060008873ffffffffffffffffffffffffffffffffffffffff1673ffffffffffffffffffffffffffffffffffffffff16815260200190815260200160002060008282546114829190613078565b925050819055508080611494906130ce565b9150506113e6565b508473ffffffffffffffffffffffffffffffffffffffff16600073ffffffffffffffffffffffffffffffffffffffff168273ffffffffffffffffffffffffffffffffffffffff167f4a39dc06d4c0dbc64b70af90fd698a233a518aa5d07e595d983b8c0526c8f7fb878760405161151492919061358f565b60405180910390a461152b81600087878787611b85565b5050505050565b6000600360009054906101000a900473ffffffffffffffffffffffffffffffffffffffff16905081600360006101000a81548173ffffffffffffffffffffffffffffffffffffffff021916908373ffffffffffffffffffffffffffffffffffffffff1602179055508173ffffffffffffffffffffffffffffffffffffffff168173ffffffffffffffffffffffffffffffffffffffff167f8be0079c531659141344cd1fd0a4f28419497f9722a3daafe3b4186f6b6457e060405160405180910390a35050565b8173ffffffffffffffffffffffffffffffffffffffff168373ffffffffffffffffffffffffffffffffffffffff161415611667576040517f08c379a000000000000000000000000000000000000000000000000000000000815260040161165e906136ca565b60405180910390fd5b80600160008573ffffffffffffffffffffffffffffffffffffffff1673ffffffffffffffffffffffffffffffffffffffff16815260200190815260200160002060008473ffffffffffffffffffffffffffffffffffffffff1673ffffffffffffffffffffffffffffffffffffffff16815260200190815260200160002060006101000a81548160ff0219169083151502179055508173ffffffffffffffffffffffffffffffffffffffff168373ffffffffffffffffffffffffffffffffffffffff167f17307eab39ab6107e8899845ad3d59bd9653f200f220920489ca2b5937696c31836040516117589190612227565b60405180910390a3505050565b600073ffffffffffffffffffffffffffffffffffffffff168473ffffffffffffffffffffffffffffffffffffffff1614156117d5576040517f08c379a00000000000000000000000000000000000000000000000000000000081526004016117cc90613638565b60405180910390fd5b60006117df610ff8565b9050611800816000876117f188611d5d565b6117fa88611d5d565b87611b7d565b8260008086815260200190815260200160002060008773ffffffffffffffffffffffffffffffffffffffff1673ffffffffffffffffffffffffffffffffffffffff168152602001908152602001600020600082825461185f9190613078565b925050819055508473ffffffffffffffffffffffffffffffffffffffff16600073ffffffffffffffffffffffffffffffffffffffff168273ffffffffffffffffffffffffffffffffffffffff167fc3d58168c5ae7397731d063d5bbf3d657854427343f4c083240f7aacaa2d0f6287876040516118dd9291906136ea565b60405180910390a46118f481600087878787611dd7565b5050505050565b600073ffffffffffffffffffffffffffffffffffffffff168473ffffffffffffffffffffffffffffffffffffffff16141561196b576040517f08c379a0000000000000000000000000000000000000000000000000000000008152600401611962906134dd565b60405180910390fd5b6000611975610ff8565b905061199581878761198688611d5d565b61198f88611d5d565b87611b7d565b600080600086815260200190815260200160002060008873ffffffffffffffffffffffffffffffffffffffff1673ffffffffffffffffffffffffffffffffffffffff16815260200190815260200160002054905083811015611a2c576040517f08c379a0000000000000000000000000000000000000000000000000000000008152600401611a239061356f565b60405180910390fd5b83810360008087815260200190815260200160002060008973ffffffffffffffffffffffffffffffffffffffff1673ffffffffffffffffffffffffffffffffffffffff168152602001908152602001600020819055508360008087815260200190815260200160002060008873ffffffffffffffffffffffffffffffffffffffff1673ffffffffffffffffffffffffffffffffffffffff1681526020019081526020016000206000828254611ae19190613078565b925050819055508573ffffffffffffffffffffffffffffffffffffffff168773ffffffffffffffffffffffffffffffffffffffff168373ffffffffffffffffffffffffffffffffffffffff167fc3d58168c5ae7397731d063d5bbf3d657854427343f4c083240f7aacaa2d0f628888604051611b5e9291906136ea565b60405180910390a4611b74828888888888611dd7565b50505050505050565b505050505050565b611ba48473ffffffffffffffffffffffffffffffffffffffff16611faf565b15611d55578373ffffffffffffffffffffffffffffffffffffffff1663bc197c8187878686866040518663ffffffff1660e01b8152600401611bea959493929190613768565b6020604051808303816000875af1925050508015611c2657506040513d601f19601f82011682018060405250810190611c2391906137e5565b60015b611ccc57611c3261381f565b806308c379a01415611c8f5750611c47613841565b80611c525750611c91565b806040517f08c379a0000000000000000000000000000000000000000000000000000000008152600401611c8691906122db565b60405180910390fd5b505b6040517f08c379a0000000000000000000000000000000000000000000000000000000008152600401611cc390613949565b60405180910390fd5b63bc197c8160e01b7bffffffffffffffffffffffffffffffffffffffffffffffffffffffff1916817bffffffffffffffffffffffffffffffffffffffffffffffffffffffff191614611d53576040517f08c379a0000000000000000000000000000000000000000000000000000000008152600401611d4a906139db565b60405180910390fd5b505b505050505050565b60606000600167ffffffffffffffff811115611d7c57611d7b61232f565b5b604051908082528060200260200182016040528015611daa5781602001602082028036833780820191505090505b5090508281600081518110611dc257611dc1612f97565b5b60200260200101818152505080915050919050565b611df68473ffffffffffffffffffffffffffffffffffffffff16611faf565b15611fa7578373ffffffffffffffffffffffffffffffffffffffff1663f23a6e6187878686866040518663ffffffff1660e01b8152600401611e3c9594939291906139fb565b6020604051808303816000875af1925050508015611e7857506040513d601f19601f82011682018060405250810190611e7591906137e5565b60015b611f1e57611e8461381f565b806308c379a01415611ee15750611e99613841565b80611ea45750611ee3565b806040517f08c379a0000000000000000000000000000000000000000000000000000000008152600401611ed891906122db565b60405180910390fd5b505b6040517f08c379a0000000000000000000000000000000000000000000000000000000008152600401611f1590613949565b60405180910390fd5b63f23a6e6160e01b7bffffffffffffffffffffffffffffffffffffffffffffffffffffffff1916817bffffffffffffffffffffffffffffffffffffffffffffffffffffffff191614611fa5576040517f08c379a0000000000000000000000000000000000000000000000000000000008152600401611f9c906139db565b60405180910390fd5b505b505050505050565b6000808273ffffffffffffffffffffffffffffffffffffffff163b119050919050565b828054611fde90612d31565b90600052602060002090601f0160209004810192826120005760008555612047565b82601f1061201957805160ff1916838001178555612047565b82800160010185558215612047579182015b8281111561204657825182559160200191906001019061202b565b5b5090506120549190612058565b5090565b5b80821115612071576000816000905550600101612059565b5090565b6000604051905090565b600080fd5b600080fd5b600073ffffffffffffffffffffffffffffffffffffffff82169050919050565b60006120b482612089565b9050919050565b6120c4816120a9565b81146120cf57600080fd5b50565b6000813590506120e1816120bb565b92915050565b6000819050919050565b6120fa816120e7565b811461210557600080fd5b50565b600081359050612117816120f1565b92915050565b600080604083850312156121345761213361207f565b5b6000612142858286016120d2565b925050602061215385828601612108565b9150509250929050565b612166816120e7565b82525050565b6000602082019050612181600083018461215d565b92915050565b60007fffffffff0000000000000000000000000000000000000000000000000000000082169050919050565b6121bc81612187565b81146121c757600080fd5b50565b6000813590506121d9816121b3565b92915050565b6000602082840312156121f5576121f461207f565b5b6000612203848285016121ca565b91505092915050565b60008115159050919050565b6122218161220c565b82525050565b600060208201905061223c6000830184612218565b92915050565b600081519050919050565b600082825260208201905092915050565b60005b8381101561227c578082015181840152602081019050612261565b8381111561228b576000848401525b50505050565b6000601f19601f8301169050919050565b60006122ad82612242565b6122b7818561224d565b93506122c781856020860161225e565b6122d081612291565b840191505092915050565b600060208201905081810360008301526122f581846122a2565b905092915050565b6000602082840312156123135761231261207f565b5b600061232184828501612108565b91505092915050565b600080fd5b7f4e487b7100000000000000000000000000000000000000000000000000000000600052604160045260246000fd5b61236782612291565b810181811067ffffffffffffffff821117156123865761238561232f565b5b80604052505050565b6000612399612075565b90506123a5828261235e565b919050565b600067ffffffffffffffff8211156123c5576123c461232f565b5b602082029050602081019050919050565b600080fd5b60006123ee6123e9846123aa565b61238f565b90508083825260208201905060208402830185811115612411576124106123d6565b5b835b8181101561243a57806124268882612108565b845260208401935050602081019050612413565b5050509392505050565b600082601f8301126124595761245861232a565b5b81356124698482602086016123db565b91505092915050565b600080fd5b600067ffffffffffffffff8211156124925761249161232f565b5b61249b82612291565b9050602081019050919050565b82818337600083830152505050565b60006124ca6124c584612477565b61238f565b9050828152602081018484840111156124e6576124e5612472565b5b6124f18482856124a8565b509392505050565b600082601f83011261250e5761250d61232a565b5b813561251e8482602086016124b7565b91505092915050565b600080600080600060a086880312156125435761254261207f565b5b6000612551888289016120d2565b9550506020612562888289016120d2565b945050604086013567ffffffffffffffff81111561258357612582612084565b5b61258f88828901612444565b935050606086013567ffffffffffffffff8111156125b0576125af612084565b5b6125bc88828901612444565b925050608086013567ffffffffffffffff8111156125dd576125dc612084565b5b6125e9888289016124f9565b9150509295509295909350565b600067ffffffffffffffff8211156126115761261061232f565b5b602082029050602081019050919050565b600067ffffffffffffffff82111561263d5761263c61232f565b5b61264682612291565b9050602081019050919050565b600061266661266184612622565b61238f565b90508281526020810184848401111561268257612681612472565b5b61268d8482856124a8565b509392505050565b600082601f8301126126aa576126a961232a565b5b81356126ba848260208601612653565b91505092915050565b60006126d66126d1846125f6565b61238f565b905080838252602082019050602084028301858111156126f9576126f86123d6565b5b835b8181101561274057803567ffffffffffffffff81111561271e5761271d61232a565b5b80860161272b8982612695565b855260208501945050506020810190506126fb565b5050509392505050565b600082601f83011261275f5761275e61232a565b5b813561276f8482602086016126c3565b91505092915050565b6000806000606084860312156127915761279061207f565b5b600061279f868287016120d2565b935050602084013567ffffffffffffffff8111156127c0576127bf612084565b5b6127cc8682870161274a565b925050604084013567ffffffffffffffff8111156127ed576127ec612084565b5b6127f986828701612444565b9150509250925092565b600067ffffffffffffffff82111561281e5761281d61232f565b5b602082029050602081019050919050565b600061284261283d84612803565b61238f565b90508083825260208201905060208402830185811115612865576128646123d6565b5b835b8181101561288e578061287a88826120d2565b845260208401935050602081019050612867565b5050509392505050565b600082601f8301126128ad576128ac61232a565b5b81356128bd84826020860161282f565b91505092915050565b600080604083850312156128dd576128dc61207f565b5b600083013567ffffffffffffffff8111156128fb576128fa612084565b5b61290785828601612898565b925050602083013567ffffffffffffffff81111561292857612927612084565b5b61293485828601612444565b9150509250929050565b600081519050919050565b600082825260208201905092915050565b6000819050602082019050919050565b612973816120e7565b82525050565b6000612985838361296a565b60208301905092915050565b6000602082019050919050565b60006129a98261293e565b6129b38185612949565b93506129be8361295a565b8060005b838110156129ef5781516129d68882612979565b97506129e183612991565b9250506001810190506129c2565b5085935050505092915050565b60006020820190508181036000830152612a16818461299e565b905092915050565b612a27816120a9565b82525050565b6000602082019050612a426000830184612a1e565b92915050565b600060208284031215612a5e57612a5d61207f565b5b600082013567ffffffffffffffff811115612a7c57612a7b612084565b5b612a8884828501612695565b91505092915050565b612a9a8161220c565b8114612aa557600080fd5b50565b600081359050612ab781612a91565b92915050565b60008060408385031215612ad457612ad361207f565b5b6000612ae2858286016120d2565b9250506020612af385828601612aa8565b9150509250929050565b600080600060608486031215612b1657612b1561207f565b5b6000612b24868287016120d2565b935050602084013567ffffffffffffffff811115612b4557612b44612084565b5b612b5186828701612695565b9250506040612b6286828701612108565b9150509250925092565b60008060408385031215612b8357612b8261207f565b5b6000612b91858286016120d2565b9250506020612ba2858286016120d2565b9150509250929050565b600080600080600060a08688031215612bc857612bc761207f565b5b6000612bd6888289016120d2565b9550506020612be7888289016120d2565b9450506040612bf888828901612108565b9350506060612c0988828901612108565b925050608086013567ffffffffffffffff811115612c2a57612c29612084565b5b612c36888289016124f9565b9150509295509295909350565b600060208284031215612c5957612c5861207f565b5b6000612c67848285016120d2565b91505092915050565b7f455243313135353a2062616c616e636520717565727920666f7220746865207a60008201527f65726f2061646472657373000000000000000000000000000000000000000000602082015250565b6000612ccc602b8361224d565b9150612cd782612c70565b604082019050919050565b60006020820190508181036000830152612cfb81612cbf565b9050919050565b7f4e487b7100000000000000000000000000000000000000000000000000000000600052602260045260246000fd5b60006002820490506001821680612d4957607f821691505b60208210811415612d5d57612d5c612d02565b5b50919050565b600081905092915050565b60008190508160005260206000209050919050565b60008154612d9081612d31565b612d9a8186612d63565b94506001821660008114612db55760018114612dc657612df9565b60ff19831686528186019350612df9565b612dcf85612d6e565b60005b83811015612df157815481890152600182019150602081019050612dd2565b838801955050505b50505092915050565b7f2f00000000000000000000000000000000000000000000000000000000000000600082015250565b6000612e38600183612d63565b9150612e4382612e02565b600182019050919050565b6000612e5982612242565b612e638185612d63565b9350612e7381856020860161225e565b80840191505092915050565b7f2e6d657461646174612e6a736f6e000000000000000000000000000000000000600082015250565b6000612eb5600e83612d63565b9150612ec082612e7f565b600e82019050919050565b6000612ed78285612d83565b9150612ee282612e2b565b9150612eee8284612e4e565b9150612ef982612ea8565b91508190509392505050565b7f455243313135353a207472616e736665722063616c6c6572206973206e6f742060008201527f6f776e6572206e6f7220617070726f7665640000000000000000000000000000602082015250565b6000612f6160328361224d565b9150612f6c82612f05565b604082019050919050565b60006020820190508181036000830152612f9081612f54565b9050919050565b7f4e487b7100000000000000000000000000000000000000000000000000000000600052603260045260246000fd5b6000612fd28284612e4e565b915081905092915050565b7f616c7265616479206d696e740000000000000000000000000000000000000000600082015250565b6000613013600c8361224d565b915061301e82612fdd565b602082019050919050565b6000602082019050818103600083015261304281613006565b9050919050565b7f4e487b7100000000000000000000000000000000000000000000000000000000600052601160045260246000fd5b6000613083826120e7565b915061308e836120e7565b9250827fffffffffffffffffffffffffffffffffffffffffffffffffffffffffffffffff038211156130c3576130c2613049565b5b828201905092915050565b60006130d9826120e7565b91507fffffffffffffffffffffffffffffffffffffffffffffffffffffffffffffffff82141561310c5761310b613049565b5b600182019050919050565b7f455243313135353a206163636f756e747320616e6420696473206c656e67746860008201527f206d69736d617463680000000000000000000000000000000000000000000000602082015250565b600061317360298361224d565b915061317e82613117565b604082019050919050565b600060208201905081810360008301526131a281613166565b9050919050565b7f4f776e61626c653a2063616c6c6572206973206e6f7420746865206f776e6572600082015250565b60006131df60208361224d565b91506131ea826131a9565b602082019050919050565b6000602082019050818103600083015261320e816131d2565b9050919050565b6000613220826120e7565b915061322b836120e7565b92508282101561323e5761323d613049565b5b828203905092915050565b7f73686f756c6420736574206e6f7420656d70747920626173652075726c000000600082015250565b600061327f601d8361224d565b915061328a82613249565b602082019050919050565b600060208201905081810360008301526132ae81613272565b9050919050565b7f455243313135353a2063616c6c6572206973206e6f74206f776e6572206e6f7260008201527f20617070726f7665640000000000000000000000000000000000000000000000602082015250565b600061331160298361224d565b915061331c826132b5565b604082019050919050565b6000602082019050818103600083015261334081613304565b9050919050565b7f4f776e61626c653a206e6577206f776e657220697320746865207a65726f206160008201527f6464726573730000000000000000000000000000000000000000000000000000602082015250565b60006133a360268361224d565b91506133ae82613347565b604082019050919050565b600060208201905081810360008301526133d281613396565b9050919050565b7f455243313135353a2069647320616e6420616d6f756e7473206c656e6774682060008201527f6d69736d61746368000000000000000000000000000000000000000000000000602082015250565b600061343560288361224d565b9150613440826133d9565b604082019050919050565b6000602082019050818103600083015261346481613428565b9050919050565b7f455243313135353a207472616e7366657220746f20746865207a65726f20616460008201527f6472657373000000000000000000000000000000000000000000000000000000602082015250565b60006134c760258361224d565b91506134d28261346b565b604082019050919050565b600060208201905081810360008301526134f6816134ba565b9050919050565b7f455243313135353a20696e73756666696369656e742062616c616e636520666f60008201527f72207472616e7366657200000000000000000000000000000000000000000000602082015250565b6000613559602a8361224d565b9150613564826134fd565b604082019050919050565b600060208201905081810360008301526135888161354c565b9050919050565b600060408201905081810360008301526135a9818561299e565b905081810360208301526135bd818461299e565b90509392505050565b7f455243313135353a206d696e7420746f20746865207a65726f2061646472657360008201527f7300000000000000000000000000000000000000000000000000000000000000602082015250565b600061362260218361224d565b915061362d826135c6565b604082019050919050565b6000602082019050818103600083015261365181613615565b9050919050565b7f455243313135353a2073657474696e6720617070726f76616c2073746174757360008201527f20666f722073656c660000000000000000000000000000000000000000000000602082015250565b60006136b460298361224d565b91506136bf82613658565b604082019050919050565b600060208201905081810360008301526136e3816136a7565b9050919050565b60006040820190506136ff600083018561215d565b61370c602083018461215d565b9392505050565b600081519050919050565b600082825260208201905092915050565b600061373a82613713565b613744818561371e565b935061375481856020860161225e565b61375d81612291565b840191505092915050565b600060a08201905061377d6000830188612a1e565b61378a6020830187612a1e565b818103604083015261379c818661299e565b905081810360608301526137b0818561299e565b905081810360808301526137c4818461372f565b90509695505050505050565b6000815190506137df816121b3565b92915050565b6000602082840312156137fb576137fa61207f565b5b6000613809848285016137d0565b91505092915050565b60008160e01c9050919050565b600060033d111561383e5760046000803e61383b600051613812565b90505b90565b600060443d1015613851576138d4565b613859612075565b60043d036004823e80513d602482011167ffffffffffffffff821117156138815750506138d4565b808201805167ffffffffffffffff81111561389f57505050506138d4565b80602083010160043d0385018111156138bc5750505050506138d4565b6138cb8260200185018661235e565b82955050505050505b90565b7f455243313135353a207472616e7366657220746f206e6f6e204552433131353560008201527f526563656976657220696d706c656d656e746572000000000000000000000000602082015250565b600061393360348361224d565b915061393e826138d7565b604082019050919050565b6000602082019050818103600083015261396281613926565b9050919050565b7f455243313135353a204552433131353552656365697665722072656a6563746560008201527f6420746f6b656e73000000000000000000000000000000000000000000000000602082015250565b60006139c560288361224d565b91506139d082613969565b604082019050919050565b600060208201905081810360008301526139f4816139b8565b9050919050565b600060a082019050613a106000830188612a1e565b613a1d6020830187612a1e565b613a2a604083018661215d565b613a37606083018561215d565b8181036080830152613a49818461372f565b9050969550505050505056fea26469706673582212209b2a7110b5794f8c545a90a9e941f360c1ab9ddb81746ec4987805e5ec4b93d664736f6c634300080c0033",
  "immutableReferences": {},
  "source": "pragma solidity ^0.8.0;\n\nimport \"@openzeppelin/contracts/utils/Context.sol\";\nimport \"@openzeppelin/contracts/token/ERC1155/ERC1155.sol\";\nimport \"@openzeppelin/contracts/access/Ownable.sol\";\n\ncontract RustToken1155 is Context, ERC1155, Ownable {\n    mapping(string => uint256) private _name2token;\n    mapping(uint256 => string) private _token2name;\n    uint256 _localTokenId = 1;\n    string _tokenBaseURI = \"\";\n\n    string public name = \"RustToken1155\";\n    string public symbol = \"RT\";\n\n    constructor() ERC1155(\"\") {}\n\n    function setTokenBaseURI(string memory baseURI) public onlyOwner {\n        require(bytes(baseURI).length > 0, \"should set not empty base url\");\n        _tokenBaseURI = baseURI;\n    }\n\n    function mint(\n        address to,\n        string memory tokenName,\n        uint256 amount\n    ) public virtual onlyOwner {\n        require(_name2token[tokenName] == 0, \"already mint\");\n\n        uint256 tokenId = _localTokenId;\n        _name2token[tokenName] = tokenId;\n        _token2name[tokenId] = tokenName;\n        _mint(to, tokenId, amount, \"\");\n\n        _localTokenId += 1;\n    }\n\n    function mintBatch(\n        address to,\n        string[] memory tokenNames,\n        uint256[] memory amounts\n    ) public {\n        require(tokenNames.length <= 10);\n\n        uint256[] memory tokenIds = new uint256[](tokenNames.length);\n        for (uint256 i = 0; i < tokenNames.length; i++) {\n            string memory tokenName = tokenNames[i];\n            require(_name2token[tokenName] == 0, \"already mint\");\n\n            uint256 tokenId = _localTokenId;\n            _name2token[tokenName] = tokenId;\n            _token2name[tokenId] = tokenName;\n            tokenIds[i] = tokenId;\n\n            _localTokenId += 1;\n        }\n\n        _mintBatch(to, tokenIds, amounts, \"\");\n    }\n\n    function uri(uint256 tokenId)\n        public\n        view\n        virtual\n        override\n        returns (string memory)\n    {\n        string memory tokenName = _token2name[tokenId];\n        return\n            string(\n                abi.encodePacked(\n                    _tokenBaseURI,\n                    \"/\",\n                    tokenName,\n                    \".metadata.json\"\n                )\n            );\n    }\n\n    function currentSupply() public view virtual returns (uint256) {\n        return _localTokenId - 1;\n    }\n}\n",
  "sourcePath": "/Users/akiho/Applications/web3/rust-opensea/ethereum/contracts/ERC1155.sol",
  "compiler": {
    "name": "solc",
    "version": "0.8.12+commit.f00d7308.Emscripten.clang"
  },
  "schemaVersion": "3.4.6",
  "updatedAt": "2022-03-16T11:22:03.254Z",
  "networkType": "ethereum",
  "devdoc": {
    "kind": "dev",
    "methods": {
      "balanceOf(address,uint256)": {
        "details": "See {IERC1155-balanceOf}. Requirements: - `account` cannot be the zero address."
      },
      "balanceOfBatch(address[],uint256[])": {
        "details": "See {IERC1155-balanceOfBatch}. Requirements: - `accounts` and `ids` must have the same length."
      },
      "isApprovedForAll(address,address)": {
        "details": "See {IERC1155-isApprovedForAll}."
      },
      "owner()": {
        "details": "Returns the address of the current owner."
      },
      "renounceOwnership()": {
        "details": "Leaves the contract without owner. It will not be possible to call `onlyOwner` functions anymore. Can only be called by the current owner. NOTE: Renouncing ownership will leave the contract without an owner, thereby removing any functionality that is only available to the owner."
      },
      "safeBatchTransferFrom(address,address,uint256[],uint256[],bytes)": {
        "details": "See {IERC1155-safeBatchTransferFrom}."
      },
      "safeTransferFrom(address,address,uint256,uint256,bytes)": {
        "details": "See {IERC1155-safeTransferFrom}."
      },
      "setApprovalForAll(address,bool)": {
        "details": "See {IERC1155-setApprovalForAll}."
      },
      "supportsInterface(bytes4)": {
        "details": "See {IERC165-supportsInterface}."
      },
      "transferOwnership(address)": {
        "details": "Transfers ownership of the contract to a new account (`newOwner`). Can only be called by the current owner."
      }
    },
    "version": 1
  },
  "userdoc": {
    "kind": "user",
    "methods": {},
    "version": 1
  }
}