{
  "contractName": "RustToken721",
  "abi": [
    {
      "inputs": [],
      "stateMutability": "nonpayable",
      "type": "constructor"
    },
    {
      "anonymous": false,
      "inputs": [
        {
          "indexed": true,
          "internalType": "address",
          "name": "owner",
          "type": "address"
        },
        {
          "indexed": true,
          "internalType": "address",
          "name": "approved",
          "type": "address"
        },
        {
          "indexed": true,
          "internalType": "uint256",
          "name": "tokenId",
          "type": "uint256"
        }
      ],
      "name": "Approval",
      "type": "event"
    },
    {
      "anonymous": false,
      "inputs": [
        {
          "indexed": true,
          "internalType": "address",
          "name": "owner",
          "type": "address"
        },
        {
          "indexed": true,
          "internalType": "address",
          "name": "operator",
          "type": "address"
        },
        {
          "indexed": false,
          "internalType": "bool",
          "name": "approved",
          "type": "bool"
        }
      ],
      "name": "ApprovalForAll",
      "type": "event"
    },
    {
      "anonymous": false,
      "inputs": [
        {
          "indexed": true,
          "internalType": "address",
          "name": "previousOwner",
          "type": "address"
        },
        {
          "indexed": true,
          "internalType": "address",
          "name": "newOwner",
          "type": "address"
        }
      ],
      "name": "OwnershipTransferred",
      "type": "event"
    },
    {
      "anonymous": false,
      "inputs": [
        {
          "indexed": true,
          "internalType": "address",
          "name": "from",
          "type": "address"
        },
        {
          "indexed": true,
          "internalType": "address",
          "name": "to",
          "type": "address"
        },
        {
          "indexed": true,
          "internalType": "uint256",
          "name": "tokenId",
          "type": "uint256"
        }
      ],
      "name": "Transfer",
      "type": "event"
    },
    {
      "inputs": [
        {
          "internalType": "address",
          "name": "to",
          "type": "address"
        },
        {
          "internalType": "uint256",
          "name": "tokenId",
          "type": "uint256"
        }
      ],
      "name": "approve",
      "outputs": [],
      "stateMutability": "nonpayable",
      "type": "function"
    },
    {
      "inputs": [
        {
          "internalType": "address",
          "name": "owner",
          "type": "address"
        }
      ],
      "name": "balanceOf",
      "outputs": [
        {
          "internalType": "uint256",
          "name": "",
          "type": "uint256"
        }
      ],
      "stateMutability": "view",
      "type": "function",
      "constant": true
    },
    {
      "inputs": [
        {
          "internalType": "uint256",
          "name": "tokenId",
          "type": "uint256"
        }
      ],
      "name": "getApproved",
      "outputs": [
        {
          "internalType": "address",
          "name": "",
          "type": "address"
        }
      ],
      "stateMutability": "view",
      "type": "function",
      "constant": true
    },
    {
      "inputs": [
        {
          "internalType": "address",
          "name": "owner",
          "type": "address"
        },
        {
          "internalType": "address",
          "name": "operator",
          "type": "address"
        }
      ],
      "name": "isApprovedForAll",
      "outputs": [
        {
          "internalType": "bool",
          "name": "",
          "type": "bool"
        }
      ],
      "stateMutability": "view",
      "type": "function",
      "constant": true
    },
    {
      "inputs": [],
      "name": "name",
      "outputs": [
        {
          "internalType": "string",
          "name": "",
          "type": "string"
        }
      ],
      "stateMutability": "view",
      "type": "function",
      "constant": true
    },
    {
      "inputs": [],
      "name": "owner",
      "outputs": [
        {
          "internalType": "address",
          "name": "",
          "type": "address"
        }
      ],
      "stateMutability": "view",
      "type": "function",
      "constant": true
    },
    {
      "inputs": [
        {
          "internalType": "uint256",
          "name": "tokenId",
          "type": "uint256"
        }
      ],
      "name": "ownerOf",
      "outputs": [
        {
          "internalType": "address",
          "name": "",
          "type": "address"
        }
      ],
      "stateMutability": "view",
      "type": "function",
      "constant": true
    },
    {
      "inputs": [],
      "name": "renounceOwnership",
      "outputs": [],
      "stateMutability": "nonpayable",
      "type": "function"
    },
    {
      "inputs": [
        {
          "internalType": "address",
          "name": "from",
          "type": "address"
        },
        {
          "internalType": "address",
          "name": "to",
          "type": "address"
        },
        {
          "internalType": "uint256",
          "name": "tokenId",
          "type": "uint256"
        }
      ],
      "name": "safeTransferFrom",
      "outputs": [],
      "stateMutability": "nonpayable",
      "type": "function"
    },
    {
      "inputs": [
        {
          "internalType": "address",
          "name": "from",
          "type": "address"
        },
        {
          "internalType": "address",
          "name": "to",
          "type": "address"
        },
        {
          "internalType": "uint256",
          "name": "tokenId",
          "type": "uint256"
        },
        {
          "internalType": "bytes",
          "name": "_data",
          "type": "bytes"
        }
      ],
      "name": "safeTransferFrom",
      "outputs": [],
      "stateMutability": "nonpayable",
      "type": "function"
    },
    {
      "inputs": [
        {
          "internalType": "address",
          "name": "operator",
          "type": "address"
        },
        {
          "internalType": "bool",
          "name": "approved",
          "type": "bool"
        }
      ],
      "name": "setApprovalForAll",
      "outputs": [],
      "stateMutability": "nonpayable",
      "type": "function"
    },
    {
      "inputs": [
        {
          "internalType": "bytes4",
          "name": "interfaceId",
          "type": "bytes4"
        }
      ],
      "name": "supportsInterface",
      "outputs": [
        {
          "internalType": "bool",
          "name": "",
          "type": "bool"
        }
      ],
      "stateMutability": "view",
      "type": "function",
      "constant": true
    },
    {
      "inputs": [],
      "name": "symbol",
      "outputs": [
        {
          "internalType": "string",
          "name": "",
          "type": "string"
        }
      ],
      "stateMutability": "view",
      "type": "function",
      "constant": true
    },
    {
      "inputs": [
        {
          "internalType": "uint256",
          "name": "index",
          "type": "uint256"
        }
      ],
      "name": "tokenByIndex",
      "outputs": [
        {
          "internalType": "uint256",
          "name": "",
          "type": "uint256"
        }
      ],
      "stateMutability": "view",
      "type": "function",
      "constant": true
    },
    {
      "inputs": [
        {
          "internalType": "address",
          "name": "owner",
          "type": "address"
        },
        {
          "internalType": "uint256",
          "name": "index",
          "type": "uint256"
        }
      ],
      "name": "tokenOfOwnerByIndex",
      "outputs": [
        {
          "internalType": "uint256",
          "name": "",
          "type": "uint256"
        }
      ],
      "stateMutability": "view",
      "type": "function",
      "constant": true
    },
    {
      "inputs": [],
      "name": "totalSupply",
      "outputs": [
        {
          "internalType": "uint256",
          "name": "",
          "type": "uint256"
        }
      ],
      "stateMutability": "view",
      "type": "function",
      "constant": true
    },
    {
      "inputs": [
        {
          "internalType": "address",
          "name": "from",
          "type": "address"
        },
        {
          "internalType": "address",
          "name": "to",
          "type": "address"
        },
        {
          "internalType": "uint256",
          "name": "tokenId",
          "type": "uint256"
        }
      ],
      "name": "transferFrom",
      "outputs": [],
      "stateMutability": "nonpayable",
      "type": "function"
    },
    {
      "inputs": [
        {
          "internalType": "address",
          "name": "newOwner",
          "type": "address"
        }
      ],
      "name": "transferOwnership",
      "outputs": [],
      "stateMutability": "nonpayable",
      "type": "function"
    },
    {
      "inputs": [
        {
          "internalType": "string",
          "name": "baseURI",
          "type": "string"
        }
      ],
      "name": "setTokenBaseURI",
      "outputs": [],
      "stateMutability": "nonpayable",
      "type": "function"
    },
    {
      "inputs": [
        {
          "internalType": "address",
          "name": "to",
          "type": "address"
        },
        {
          "internalType": "string",
          "name": "tokenName",
          "type": "string"
        }
      ],
      "name": "mint",
      "outputs": [],
      "stateMutability": "nonpayable",
      "type": "function"
    },
    {
      "inputs": [],
      "name": "tokenBaseURI",
      "outputs": [
        {
          "internalType": "string",
          "name": "",
          "type": "string"
        }
      ],
      "stateMutability": "view",
      "type": "function",
      "constant": true
    },
    {
      "inputs": [
        {
          "internalType": "uint256",
          "name": "tokenId",
          "type": "uint256"
        }
      ],
      "name": "tokenURI",
      "outputs": [
        {
          "internalType": "string",
          "name": "",
          "type": "string"
        }
      ],
      "stateMutability": "view",
      "type": "function",
      "constant": true
    },
    {
      "inputs": [
        {
          "internalType": "string",
          "name": "tokenName",
          "type": "string"
        }
      ],
      "name": "ownerAddressOf",
      "outputs": [
        {
          "internalType": "address",
          "name": "",
          "type": "address"
        }
      ],
      "stateMutability": "view",
      "type": "function",
      "constant": true
    },
    {
      "inputs": [],
      "name": "currentSupply",
      "outputs": [
        {
          "internalType": "uint256",
          "name": "",
          "type": "uint256"
        }
      ],
      "stateMutability": "view",
      "type": "function",
      "constant": true
    },
    {
      "inputs": [],
      "name": "usedTokenNames",
      "outputs": [
        {
          "internalType": "string[]",
          "name": "",
          "type": "string[]"
        }
      ],
      "stateMutability": "view",
      "type": "function",
      "constant": true
    }
  ],
  "bytecode": "0x60806040526001600d5560405180602001604052806000815250600e908051906020019062000030929190620001d3565b503480156200003e57600080fd5b506040518060400160405280600c81526020017f52757374546f6b656e37323100000000000000000000000000000000000000008152506040518060400160405280600281526020017f52540000000000000000000000000000000000000000000000000000000000008152508160009080519060200190620000c3929190620001d3565b508060019080519060200190620000dc929190620001d3565b505050620000ff620000f36200010560201b60201c565b6200010d60201b60201c565b620002e8565b600033905090565b6000600a60009054906101000a900473ffffffffffffffffffffffffffffffffffffffff16905081600a60006101000a81548173ffffffffffffffffffffffffffffffffffffffff021916908373ffffffffffffffffffffffffffffffffffffffff1602179055508173ffffffffffffffffffffffffffffffffffffffff168173ffffffffffffffffffffffffffffffffffffffff167f8be0079c531659141344cd1fd0a4f28419497f9722a3daafe3b4186f6b6457e060405160405180910390a35050565b828054620001e190620002b2565b90600052602060002090601f01602090048101928262000205576000855562000251565b82601f106200022057805160ff191683800117855562000251565b8280016001018555821562000251579182015b828111156200025057825182559160200191906001019062000233565b5b50905062000260919062000264565b5090565b5b808211156200027f57600081600090555060010162000265565b5090565b7f4e487b7100000000000000000000000000000000000000000000000000000000600052602260045260246000fd5b60006002820490506001821680620002cb57607f821691505b60208210811415620002e257620002e162000283565b5b50919050565b613ae180620002f86000396000f3fe608060405234801561001057600080fd5b50600436106101735760003560e01c806370a08231116100de57806395d89b4111610097578063c87b56dd11610071578063c87b56dd1461044c578063d0def5211461047c578063e985e9c514610498578063f2fde38b146104c857610173565b806395d89b41146103f6578063a22cb46514610414578063b88d4fde1461043057610173565b806370a0823114610346578063713805da14610376578063715018a614610394578063771282f61461039e5780638da5cb5b146103bc5780638ef79e91146103da57610173565b80632f745c59116101305780632f745c591461024c57806342842e0e1461027c5780634e99b800146102985780634f6ccce7146102b657806350c8fc35146102e65780636352211e1461031657610173565b806301ffc9a71461017857806306fdde03146101a8578063081812fc146101c6578063095ea7b3146101f657806318160ddd1461021257806323b872dd14610230575b600080fd5b610192600480360381019061018d9190612491565b6104e4565b60405161019f91906124d9565b60405180910390f35b6101b061055e565b6040516101bd919061258d565b60405180910390f35b6101e060048036038101906101db91906125e5565b6105f0565b6040516101ed9190612653565b60405180910390f35b610210600480360381019061020b919061269a565b610675565b005b61021a61078d565b60405161022791906126e9565b60405180910390f35b61024a60048036038101906102459190612704565b61079a565b005b6102666004803603810190610261919061269a565b6107fa565b60405161027391906126e9565b60405180910390f35b61029660048036038101906102919190612704565b61089f565b005b6102a06108bf565b6040516102ad919061258d565b60405180910390f35b6102d060048036038101906102cb91906125e5565b610951565b6040516102dd91906126e9565b60405180910390f35b61030060048036038101906102fb919061288c565b6109c2565b60405161030d9190612653565b60405180910390f35b610330600480360381019061032b91906125e5565b610a0f565b60405161033d9190612653565b60405180910390f35b610360600480360381019061035b91906128d5565b610ac1565b60405161036d91906126e9565b60405180910390f35b61037e610b79565b60405161038b9190612a0e565b60405180910390f35b61039c610d2f565b005b6103a6610db7565b6040516103b391906126e9565b60405180910390f35b6103c4610dcd565b6040516103d19190612653565b60405180910390f35b6103f460048036038101906103ef919061288c565b610df7565b005b6103fe610ed1565b60405161040b919061258d565b60405180910390f35b61042e60048036038101906104299190612a5c565b610f63565b005b61044a60048036038101906104459190612b3d565b610f79565b005b610466600480360381019061046191906125e5565b610fdb565b604051610473919061258d565b60405180910390f35b61049660048036038101906104919190612bc0565b6110a8565b005b6104b260048036038101906104ad9190612c1c565b611200565b6040516104bf91906124d9565b60405180910390f35b6104e260048036038101906104dd91906128d5565b611294565b005b60007f780e9d63000000000000000000000000000000000000000000000000000000007bffffffffffffffffffffffffffffffffffffffffffffffffffffffff1916827bffffffffffffffffffffffffffffffffffffffffffffffffffffffff1916148061055757506105568261138c565b5b9050919050565b60606000805461056d90612c8b565b80601f016020809104026020016040519081016040528092919081815260200182805461059990612c8b565b80156105e65780601f106105bb576101008083540402835291602001916105e6565b820191906000526020600020905b8154815290600101906020018083116105c957829003601f168201915b5050505050905090565b60006105fb8261146e565b61063a576040517f08c379a000000000000000000000000000000000000000000000000000000000815260040161063190612d2f565b60405180910390fd5b6004600083815260200190815260200160002060009054906101000a900473ffffffffffffffffffffffffffffffffffffffff169050919050565b600061068082610a0f565b90508073ffffffffffffffffffffffffffffffffffffffff168373ffffffffffffffffffffffffffffffffffffffff1614156106f1576040517f08c379a00000000000000000000000000000000000000000000000000000000081526004016106e890612dc1565b60405180910390fd5b8073ffffffffffffffffffffffffffffffffffffffff166107106114da565b73ffffffffffffffffffffffffffffffffffffffff16148061073f575061073e816107396114da565b611200565b5b61077e576040517f08c379a000000000000000000000000000000000000000000000000000000000815260040161077590612e53565b60405180910390fd5b61078883836114e2565b505050565b6000600880549050905090565b6107ab6107a56114da565b8261159b565b6107ea576040517f08c379a00000000000000000000000000000000000000000000000000000000081526004016107e190612ee5565b60405180910390fd5b6107f5838383611679565b505050565b600061080583610ac1565b8210610846576040517f08c379a000000000000000000000000000000000000000000000000000000000815260040161083d90612f77565b60405180910390fd5b600660008473ffffffffffffffffffffffffffffffffffffffff1673ffffffffffffffffffffffffffffffffffffffff168152602001908152602001600020600083815260200190815260200160002054905092915050565b6108ba83838360405180602001604052806000815250610f79565b505050565b6060600e80546108ce90612c8b565b80601f01602080910402602001604051908101604052809291908181526020018280546108fa90612c8b565b80156109475780601f1061091c57610100808354040283529160200191610947565b820191906000526020600020905b81548152906001019060200180831161092a57829003601f168201915b5050505050905090565b600061095b61078d565b821061099c576040517f08c379a000000000000000000000000000000000000000000000000000000000815260040161099390613009565b60405180910390fd5b600882815481106109b0576109af613029565b5b90600052602060002001549050919050565b600080600b836040516109d59190613094565b90815260200160405180910390205490506109ef8161146e565b6109fd576000915050610a0a565b610a0681610a0f565b9150505b919050565b6000806002600084815260200190815260200160002060009054906101000a900473ffffffffffffffffffffffffffffffffffffffff169050600073ffffffffffffffffffffffffffffffffffffffff168173ffffffffffffffffffffffffffffffffffffffff161415610ab8576040517f08c379a0000000000000000000000000000000000000000000000000000000008152600401610aaf9061311d565b60405180910390fd5b80915050919050565b60008073ffffffffffffffffffffffffffffffffffffffff168273ffffffffffffffffffffffffffffffffffffffff161415610b32576040517f08c379a0000000000000000000000000000000000000000000000000000000008152600401610b29906131af565b60405180910390fd5b600360008373ffffffffffffffffffffffffffffffffffffffff1673ffffffffffffffffffffffffffffffffffffffff168152602001908152602001600020549050919050565b60606001600d541415610bdc57600067ffffffffffffffff811115610ba157610ba0612761565b5b604051908082528060200260200182016040528015610bd457816020015b6060815260200190600190039081610bbf5790505b509050610d2c565b60006001600d54610bed91906131fe565b905060008167ffffffffffffffff811115610c0b57610c0a612761565b5b604051908082528060200260200182016040528015610c3e57816020015b6060815260200190600190039081610c295790505b50905060005b82811015610d2557600c6000600183610c5d9190613232565b81526020019081526020016000208054610c7690612c8b565b80601f0160208091040260200160405190810160405280929190818152602001828054610ca290612c8b565b8015610cef5780601f10610cc457610100808354040283529160200191610cef565b820191906000526020600020905b815481529060010190602001808311610cd257829003601f168201915b5050505050828281518110610d0757610d06613029565b5b60200260200101819052508080610d1d90613288565b915050610c44565b5080925050505b90565b610d376114da565b73ffffffffffffffffffffffffffffffffffffffff16610d55610dcd565b73ffffffffffffffffffffffffffffffffffffffff1614610dab576040517f08c379a0000000000000000000000000000000000000000000000000000000008152600401610da29061331d565b60405180910390fd5b610db560006118e0565b565b60006001600d54610dc891906131fe565b905090565b6000600a60009054906101000a900473ffffffffffffffffffffffffffffffffffffffff16905090565b610dff6114da565b73ffffffffffffffffffffffffffffffffffffffff16610e1d610dcd565b73ffffffffffffffffffffffffffffffffffffffff1614610e73576040517f08c379a0000000000000000000000000000000000000000000000000000000008152600401610e6a9061331d565b60405180910390fd5b6000815111610eb7576040517f08c379a0000000000000000000000000000000000000000000000000000000008152600401610eae90613389565b60405180910390fd5b80600e9080519060200190610ecd929190612382565b5050565b606060018054610ee090612c8b565b80601f0160208091040260200160405190810160405280929190818152602001828054610f0c90612c8b565b8015610f595780601f10610f2e57610100808354040283529160200191610f59565b820191906000526020600020905b815481529060010190602001808311610f3c57829003601f168201915b5050505050905090565b610f75610f6e6114da565b83836119a6565b5050565b610f8a610f846114da565b8361159b565b610fc9576040517f08c379a0000000000000000000000000000000000000000000000000000000008152600401610fc090612ee5565b60405180910390fd5b610fd584848484611b13565b50505050565b60606000600c60008481526020019081526020016000208054610ffd90612c8b565b80601f016020809104026020016040519081016040528092919081815260200182805461102990612c8b565b80156110765780601f1061104b57610100808354040283529160200191611076565b820191906000526020600020905b81548152906001019060200180831161105957829003601f168201915b50505050509050600e816040516020016110919291906134d5565b604051602081830303815290604052915050919050565b6110b06114da565b73ffffffffffffffffffffffffffffffffffffffff166110ce610dcd565b73ffffffffffffffffffffffffffffffffffffffff1614611124576040517f08c379a000000000000000000000000000000000000000000000000000000000815260040161111b9061331d565b60405180910390fd5b6000600b826040516111369190613094565b90815260200160405180910390205414611185576040517f08c379a000000000000000000000000000000000000000000000000000000000815260040161117c9061355b565b60405180910390fd5b6000600d54905080600b8360405161119d9190613094565b90815260200160405180910390208190555081600c600083815260200190815260200160002090805190602001906111d6929190612382565b506111e18382611b6f565b6001600d60008282546111f49190613232565b92505081905550505050565b6000600560008473ffffffffffffffffffffffffffffffffffffffff1673ffffffffffffffffffffffffffffffffffffffff16815260200190815260200160002060008373ffffffffffffffffffffffffffffffffffffffff1673ffffffffffffffffffffffffffffffffffffffff16815260200190815260200160002060009054906101000a900460ff16905092915050565b61129c6114da565b73ffffffffffffffffffffffffffffffffffffffff166112ba610dcd565b73ffffffffffffffffffffffffffffffffffffffff1614611310576040517f08c379a00000000000000000000000000000000000000000000000000000000081526004016113079061331d565b60405180910390fd5b600073ffffffffffffffffffffffffffffffffffffffff168173ffffffffffffffffffffffffffffffffffffffff161415611380576040517f08c379a0000000000000000000000000000000000000000000000000000000008152600401611377906135ed565b60405180910390fd5b611389816118e0565b50565b60007f80ac58cd000000000000000000000000000000000000000000000000000000007bffffffffffffffffffffffffffffffffffffffffffffffffffffffff1916827bffffffffffffffffffffffffffffffffffffffffffffffffffffffff1916148061145757507f5b5e139f000000000000000000000000000000000000000000000000000000007bffffffffffffffffffffffffffffffffffffffffffffffffffffffff1916827bffffffffffffffffffffffffffffffffffffffffffffffffffffffff1916145b80611467575061146682611d49565b5b9050919050565b60008073ffffffffffffffffffffffffffffffffffffffff166002600084815260200190815260200160002060009054906101000a900473ffffffffffffffffffffffffffffffffffffffff1673ffffffffffffffffffffffffffffffffffffffff1614159050919050565b600033905090565b816004600083815260200190815260200160002060006101000a81548173ffffffffffffffffffffffffffffffffffffffff021916908373ffffffffffffffffffffffffffffffffffffffff160217905550808273ffffffffffffffffffffffffffffffffffffffff1661155583610a0f565b73ffffffffffffffffffffffffffffffffffffffff167f8c5be1e5ebec7d5bd14f71427d1e84f3dd0314c0f7b2291e5b200ac8c7c3b92560405160405180910390a45050565b60006115a68261146e565b6115e5576040517f08c379a00000000000000000000000000000000000000000000000000000000081526004016115dc9061367f565b60405180910390fd5b60006115f083610a0f565b90508073ffffffffffffffffffffffffffffffffffffffff168473ffffffffffffffffffffffffffffffffffffffff16148061165f57508373ffffffffffffffffffffffffffffffffffffffff16611647846105f0565b73ffffffffffffffffffffffffffffffffffffffff16145b80611670575061166f8185611200565b5b91505092915050565b8273ffffffffffffffffffffffffffffffffffffffff1661169982610a0f565b73ffffffffffffffffffffffffffffffffffffffff16146116ef576040517f08c379a00000000000000000000000000000000000000000000000000000000081526004016116e690613711565b60405180910390fd5b600073ffffffffffffffffffffffffffffffffffffffff168273ffffffffffffffffffffffffffffffffffffffff16141561175f576040517f08c379a0000000000000000000000000000000000000000000000000000000008152600401611756906137a3565b60405180910390fd5b61176a838383611db3565b6117756000826114e2565b6001600360008573ffffffffffffffffffffffffffffffffffffffff1673ffffffffffffffffffffffffffffffffffffffff16815260200190815260200160002060008282546117c591906131fe565b925050819055506001600360008473ffffffffffffffffffffffffffffffffffffffff1673ffffffffffffffffffffffffffffffffffffffff168152602001908152602001600020600082825461181c9190613232565b92505081905550816002600083815260200190815260200160002060006101000a81548173ffffffffffffffffffffffffffffffffffffffff021916908373ffffffffffffffffffffffffffffffffffffffff160217905550808273ffffffffffffffffffffffffffffffffffffffff168473ffffffffffffffffffffffffffffffffffffffff167fddf252ad1be2c89b69c2b068fc378daa952ba7f163c4a11628f55a4df523b3ef60405160405180910390a46118db838383611ec7565b505050565b6000600a60009054906101000a900473ffffffffffffffffffffffffffffffffffffffff16905081600a60006101000a81548173ffffffffffffffffffffffffffffffffffffffff021916908373ffffffffffffffffffffffffffffffffffffffff1602179055508173ffffffffffffffffffffffffffffffffffffffff168173ffffffffffffffffffffffffffffffffffffffff167f8be0079c531659141344cd1fd0a4f28419497f9722a3daafe3b4186f6b6457e060405160405180910390a35050565b8173ffffffffffffffffffffffffffffffffffffffff168373ffffffffffffffffffffffffffffffffffffffff161415611a15576040517f08c379a0000000000000000000000000000000000000000000000000000000008152600401611a0c9061380f565b60405180910390fd5b80600560008573ffffffffffffffffffffffffffffffffffffffff1673ffffffffffffffffffffffffffffffffffffffff16815260200190815260200160002060008473ffffffffffffffffffffffffffffffffffffffff1673ffffffffffffffffffffffffffffffffffffffff16815260200190815260200160002060006101000a81548160ff0219169083151502179055508173ffffffffffffffffffffffffffffffffffffffff168373ffffffffffffffffffffffffffffffffffffffff167f17307eab39ab6107e8899845ad3d59bd9653f200f220920489ca2b5937696c3183604051611b0691906124d9565b60405180910390a3505050565b611b1e848484611679565b611b2a84848484611ecc565b611b69576040517f08c379a0000000000000000000000000000000000000000000000000000000008152600401611b60906138a1565b60405180910390fd5b50505050565b600073ffffffffffffffffffffffffffffffffffffffff168273ffffffffffffffffffffffffffffffffffffffff161415611bdf576040517f08c379a0000000000000000000000000000000000000000000000000000000008152600401611bd69061390d565b60405180910390fd5b611be88161146e565b15611c28576040517f08c379a0000000000000000000000000000000000000000000000000000000008152600401611c1f90613979565b60405180910390fd5b611c3460008383611db3565b6001600360008473ffffffffffffffffffffffffffffffffffffffff1673ffffffffffffffffffffffffffffffffffffffff1681526020019081526020016000206000828254611c849190613232565b92505081905550816002600083815260200190815260200160002060006101000a81548173ffffffffffffffffffffffffffffffffffffffff021916908373ffffffffffffffffffffffffffffffffffffffff160217905550808273ffffffffffffffffffffffffffffffffffffffff16600073ffffffffffffffffffffffffffffffffffffffff167fddf252ad1be2c89b69c2b068fc378daa952ba7f163c4a11628f55a4df523b3ef60405160405180910390a4611d4560008383611ec7565b5050565b60007f01ffc9a7000000000000000000000000000000000000000000000000000000007bffffffffffffffffffffffffffffffffffffffffffffffffffffffff1916827bffffffffffffffffffffffffffffffffffffffffffffffffffffffff1916149050919050565b611dbe838383612054565b600073ffffffffffffffffffffffffffffffffffffffff168373ffffffffffffffffffffffffffffffffffffffff161415611e0157611dfc81612059565b611e40565b8173ffffffffffffffffffffffffffffffffffffffff168373ffffffffffffffffffffffffffffffffffffffff1614611e3f57611e3e83826120a2565b5b5b600073ffffffffffffffffffffffffffffffffffffffff168273ffffffffffffffffffffffffffffffffffffffff161415611e8357611e7e8161220f565b611ec2565b8273ffffffffffffffffffffffffffffffffffffffff168273ffffffffffffffffffffffffffffffffffffffff1614611ec157611ec082826122e0565b5b5b505050565b505050565b6000611eed8473ffffffffffffffffffffffffffffffffffffffff1661235f565b15612047578373ffffffffffffffffffffffffffffffffffffffff1663150b7a02611f166114da565b8786866040518563ffffffff1660e01b8152600401611f3894939291906139ee565b6020604051808303816000875af1925050508015611f7457506040513d601f19601f82011682018060405250810190611f719190613a4f565b60015b611ff7573d8060008114611fa4576040519150601f19603f3d011682016040523d82523d6000602084013e611fa9565b606091505b50600081511415611fef576040517f08c379a0000000000000000000000000000000000000000000000000000000008152600401611fe6906138a1565b60405180910390fd5b805181602001fd5b63150b7a0260e01b7bffffffffffffffffffffffffffffffffffffffffffffffffffffffff1916817bffffffffffffffffffffffffffffffffffffffffffffffffffffffff19161491505061204c565b600190505b949350505050565b505050565b6008805490506009600083815260200190815260200160002081905550600881908060018154018082558091505060019003906000526020600020016000909190919091505550565b600060016120af84610ac1565b6120b991906131fe565b905060006007600084815260200190815260200160002054905081811461219e576000600660008673ffffffffffffffffffffffffffffffffffffffff1673ffffffffffffffffffffffffffffffffffffffff168152602001908152602001600020600084815260200190815260200160002054905080600660008773ffffffffffffffffffffffffffffffffffffffff1673ffffffffffffffffffffffffffffffffffffffff168152602001908152602001600020600084815260200190815260200160002081905550816007600083815260200190815260200160002081905550505b6007600084815260200190815260200160002060009055600660008573ffffffffffffffffffffffffffffffffffffffff1673ffffffffffffffffffffffffffffffffffffffff16815260200190815260200160002060008381526020019081526020016000206000905550505050565b6000600160088054905061222391906131fe565b905060006009600084815260200190815260200160002054905060006008838154811061225357612252613029565b5b90600052602060002001549050806008838154811061227557612274613029565b5b9060005260206000200181905550816009600083815260200190815260200160002081905550600960008581526020019081526020016000206000905560088054806122c4576122c3613a7c565b5b6001900381819060005260206000200160009055905550505050565b60006122eb83610ac1565b905081600660008573ffffffffffffffffffffffffffffffffffffffff1673ffffffffffffffffffffffffffffffffffffffff168152602001908152602001600020600083815260200190815260200160002081905550806007600084815260200190815260200160002081905550505050565b6000808273ffffffffffffffffffffffffffffffffffffffff163b119050919050565b82805461238e90612c8b565b90600052602060002090601f0160209004810192826123b057600085556123f7565b82601f106123c957805160ff19168380011785556123f7565b828001600101855582156123f7579182015b828111156123f65782518255916020019190600101906123db565b5b5090506124049190612408565b5090565b5b80821115612421576000816000905550600101612409565b5090565b6000604051905090565b600080fd5b600080fd5b60007fffffffff0000000000000000000000000000000000000000000000000000000082169050919050565b61246e81612439565b811461247957600080fd5b50565b60008135905061248b81612465565b92915050565b6000602082840312156124a7576124a661242f565b5b60006124b58482850161247c565b91505092915050565b60008115159050919050565b6124d3816124be565b82525050565b60006020820190506124ee60008301846124ca565b92915050565b600081519050919050565b600082825260208201905092915050565b60005b8381101561252e578082015181840152602081019050612513565b8381111561253d576000848401525b50505050565b6000601f19601f8301169050919050565b600061255f826124f4565b61256981856124ff565b9350612579818560208601612510565b61258281612543565b840191505092915050565b600060208201905081810360008301526125a78184612554565b905092915050565b6000819050919050565b6125c2816125af565b81146125cd57600080fd5b50565b6000813590506125df816125b9565b92915050565b6000602082840312156125fb576125fa61242f565b5b6000612609848285016125d0565b91505092915050565b600073ffffffffffffffffffffffffffffffffffffffff82169050919050565b600061263d82612612565b9050919050565b61264d81612632565b82525050565b60006020820190506126686000830184612644565b92915050565b61267781612632565b811461268257600080fd5b50565b6000813590506126948161266e565b92915050565b600080604083850312156126b1576126b061242f565b5b60006126bf85828601612685565b92505060206126d0858286016125d0565b9150509250929050565b6126e3816125af565b82525050565b60006020820190506126fe60008301846126da565b92915050565b60008060006060848603121561271d5761271c61242f565b5b600061272b86828701612685565b935050602061273c86828701612685565b925050604061274d868287016125d0565b9150509250925092565b600080fd5b600080fd5b7f4e487b7100000000000000000000000000000000000000000000000000000000600052604160045260246000fd5b61279982612543565b810181811067ffffffffffffffff821117156127b8576127b7612761565b5b80604052505050565b60006127cb612425565b90506127d78282612790565b919050565b600067ffffffffffffffff8211156127f7576127f6612761565b5b61280082612543565b9050602081019050919050565b82818337600083830152505050565b600061282f61282a846127dc565b6127c1565b90508281526020810184848401111561284b5761284a61275c565b5b61285684828561280d565b509392505050565b600082601f83011261287357612872612757565b5b813561288384826020860161281c565b91505092915050565b6000602082840312156128a2576128a161242f565b5b600082013567ffffffffffffffff8111156128c0576128bf612434565b5b6128cc8482850161285e565b91505092915050565b6000602082840312156128eb576128ea61242f565b5b60006128f984828501612685565b91505092915050565b600081519050919050565b600082825260208201905092915050565b6000819050602082019050919050565b600082825260208201905092915050565b600061294a826124f4565b612954818561292e565b9350612964818560208601612510565b61296d81612543565b840191505092915050565b6000612984838361293f565b905092915050565b6000602082019050919050565b60006129a482612902565b6129ae818561290d565b9350836020820285016129c08561291e565b8060005b858110156129fc57848403895281516129dd8582612978565b94506129e88361298c565b925060208a019950506001810190506129c4565b50829750879550505050505092915050565b60006020820190508181036000830152612a288184612999565b905092915050565b612a39816124be565b8114612a4457600080fd5b50565b600081359050612a5681612a30565b92915050565b60008060408385031215612a7357612a7261242f565b5b6000612a8185828601612685565b9250506020612a9285828601612a47565b9150509250929050565b600067ffffffffffffffff821115612ab757612ab6612761565b5b612ac082612543565b9050602081019050919050565b6000612ae0612adb84612a9c565b6127c1565b905082815260208101848484011115612afc57612afb61275c565b5b612b0784828561280d565b509392505050565b600082601f830112612b2457612b23612757565b5b8135612b34848260208601612acd565b91505092915050565b60008060008060808587031215612b5757612b5661242f565b5b6000612b6587828801612685565b9450506020612b7687828801612685565b9350506040612b87878288016125d0565b925050606085013567ffffffffffffffff811115612ba857612ba7612434565b5b612bb487828801612b0f565b91505092959194509250565b60008060408385031215612bd757612bd661242f565b5b6000612be585828601612685565b925050602083013567ffffffffffffffff811115612c0657612c05612434565b5b612c128582860161285e565b9150509250929050565b60008060408385031215612c3357612c3261242f565b5b6000612c4185828601612685565b9250506020612c5285828601612685565b9150509250929050565b7f4e487b7100000000000000000000000000000000000000000000000000000000600052602260045260246000fd5b60006002820490506001821680612ca357607f821691505b60208210811415612cb757612cb6612c5c565b5b50919050565b7f4552433732313a20617070726f76656420717565727920666f72206e6f6e657860008201527f697374656e7420746f6b656e0000000000000000000000000000000000000000602082015250565b6000612d19602c836124ff565b9150612d2482612cbd565b604082019050919050565b60006020820190508181036000830152612d4881612d0c565b9050919050565b7f4552433732313a20617070726f76616c20746f2063757272656e74206f776e6560008201527f7200000000000000000000000000000000000000000000000000000000000000602082015250565b6000612dab6021836124ff565b9150612db682612d4f565b604082019050919050565b60006020820190508181036000830152612dda81612d9e565b9050919050565b7f4552433732313a20617070726f76652063616c6c6572206973206e6f74206f7760008201527f6e6572206e6f7220617070726f76656420666f7220616c6c0000000000000000602082015250565b6000612e3d6038836124ff565b9150612e4882612de1565b604082019050919050565b60006020820190508181036000830152612e6c81612e30565b9050919050565b7f4552433732313a207472616e736665722063616c6c6572206973206e6f74206f60008201527f776e6572206e6f7220617070726f766564000000000000000000000000000000602082015250565b6000612ecf6031836124ff565b9150612eda82612e73565b604082019050919050565b60006020820190508181036000830152612efe81612ec2565b9050919050565b7f455243373231456e756d657261626c653a206f776e657220696e646578206f7560008201527f74206f6620626f756e6473000000000000000000000000000000000000000000602082015250565b6000612f61602b836124ff565b9150612f6c82612f05565b604082019050919050565b60006020820190508181036000830152612f9081612f54565b9050919050565b7f455243373231456e756d657261626c653a20676c6f62616c20696e646578206f60008201527f7574206f6620626f756e64730000000000000000000000000000000000000000602082015250565b6000612ff3602c836124ff565b9150612ffe82612f97565b604082019050919050565b6000602082019050818103600083015261302281612fe6565b9050919050565b7f4e487b7100000000000000000000000000000000000000000000000000000000600052603260045260246000fd5b600081905092915050565b600061306e826124f4565b6130788185613058565b9350613088818560208601612510565b80840191505092915050565b60006130a08284613063565b915081905092915050565b7f4552433732313a206f776e657220717565727920666f72206e6f6e657869737460008201527f656e7420746f6b656e0000000000000000000000000000000000000000000000602082015250565b60006131076029836124ff565b9150613112826130ab565b604082019050919050565b60006020820190508181036000830152613136816130fa565b9050919050565b7f4552433732313a2062616c616e636520717565727920666f7220746865207a6560008201527f726f206164647265737300000000000000000000000000000000000000000000602082015250565b6000613199602a836124ff565b91506131a48261313d565b604082019050919050565b600060208201905081810360008301526131c88161318c565b9050919050565b7f4e487b7100000000000000000000000000000000000000000000000000000000600052601160045260246000fd5b6000613209826125af565b9150613214836125af565b925082821015613227576132266131cf565b5b828203905092915050565b600061323d826125af565b9150613248836125af565b9250827fffffffffffffffffffffffffffffffffffffffffffffffffffffffffffffffff0382111561327d5761327c6131cf565b5b828201905092915050565b6000613293826125af565b91507fffffffffffffffffffffffffffffffffffffffffffffffffffffffffffffffff8214156132c6576132c56131cf565b5b600182019050919050565b7f4f776e61626c653a2063616c6c6572206973206e6f7420746865206f776e6572600082015250565b60006133076020836124ff565b9150613312826132d1565b602082019050919050565b60006020820190508181036000830152613336816132fa565b9050919050565b7f73686f756c6420736574206e6f7420656d70747920626173652075726c000000600082015250565b6000613373601d836124ff565b915061337e8261333d565b602082019050919050565b600060208201905081810360008301526133a281613366565b9050919050565b60008190508160005260206000209050919050565b600081546133cb81612c8b565b6133d58186613058565b945060018216600081146133f0576001811461340157613434565b60ff19831686528186019350613434565b61340a856133a9565b60005b8381101561342c5781548189015260018201915060208101905061340d565b838801955050505b50505092915050565b7f2f00000000000000000000000000000000000000000000000000000000000000600082015250565b6000613473600183613058565b915061347e8261343d565b600182019050919050565b7f2e6d657461646174612e6a736f6e000000000000000000000000000000000000600082015250565b60006134bf600e83613058565b91506134ca82613489565b600e82019050919050565b60006134e182856133be565b91506134ec82613466565b91506134f88284613063565b9150613503826134b2565b91508190509392505050565b7f616c7265616479206d696e740000000000000000000000000000000000000000600082015250565b6000613545600c836124ff565b91506135508261350f565b602082019050919050565b6000602082019050818103600083015261357481613538565b9050919050565b7f4f776e61626c653a206e6577206f776e657220697320746865207a65726f206160008201527f6464726573730000000000000000000000000000000000000000000000000000602082015250565b60006135d76026836124ff565b91506135e28261357b565b604082019050919050565b60006020820190508181036000830152613606816135ca565b9050919050565b7f4552433732313a206f70657261746f7220717565727920666f72206e6f6e657860008201527f697374656e7420746f6b656e0000000000000000000000000000000000000000602082015250565b6000613669602c836124ff565b91506136748261360d565b604082019050919050565b600060208201905081810360008301526136988161365c565b9050919050565b7f4552433732313a207472616e736665722066726f6d20696e636f72726563742060008201527f6f776e6572000000000000000000000000000000000000000000000000000000602082015250565b60006136fb6025836124ff565b91506137068261369f565b604082019050919050565b6000602082019050818103600083015261372a816136ee565b9050919050565b7f4552433732313a207472616e7366657220746f20746865207a65726f2061646460008201527f7265737300000000000000000000000000000000000000000000000000000000602082015250565b600061378d6024836124ff565b915061379882613731565b604082019050919050565b600060208201905081810360008301526137bc81613780565b9050919050565b7f4552433732313a20617070726f766520746f2063616c6c657200000000000000600082015250565b60006137f96019836124ff565b9150613804826137c3565b602082019050919050565b60006020820190508181036000830152613828816137ec565b9050919050565b7f4552433732313a207472616e7366657220746f206e6f6e20455243373231526560008201527f63656976657220696d706c656d656e7465720000000000000000000000000000602082015250565b600061388b6032836124ff565b91506138968261382f565b604082019050919050565b600060208201905081810360008301526138ba8161387e565b9050919050565b7f4552433732313a206d696e7420746f20746865207a65726f2061646472657373600082015250565b60006138f76020836124ff565b9150613902826138c1565b602082019050919050565b60006020820190508181036000830152613926816138ea565b9050919050565b7f4552433732313a20746f6b656e20616c7265616479206d696e74656400000000600082015250565b6000613963601c836124ff565b915061396e8261392d565b602082019050919050565b6000602082019050818103600083015261399281613956565b9050919050565b600081519050919050565b600082825260208201905092915050565b60006139c082613999565b6139ca81856139a4565b93506139da818560208601612510565b6139e381612543565b840191505092915050565b6000608082019050613a036000830187612644565b613a106020830186612644565b613a1d60408301856126da565b8181036060830152613a2f81846139b5565b905095945050505050565b600081519050613a4981612465565b92915050565b600060208284031215613a6557613a6461242f565b5b6000613a7384828501613a3a565b91505092915050565b7f4e487b7100000000000000000000000000000000000000000000000000000000600052603160045260246000fdfea2646970667358221220e93d2bfebe9b92afd693ccb136e26a4c35328f0818e45d4703fe58eed6a57d8d64736f6c634300080c0033",
  "immutableReferences": {},
  "source": "pragma solidity ^0.8.0;\n\nimport \"@openzeppelin/contracts/utils/Context.sol\";\nimport \"@openzeppelin/contracts/token/ERC721/extensions/ERC721Enumerable.sol\";\nimport \"@openzeppelin/contracts/access/Ownable.sol\";\n\ncontract RustToken721 is Context, ERC721Enumerable, Ownable {\n    mapping(string => uint256) private _name2token;\n    mapping(uint256 => string) private _token2name;\n    uint256 _localTokenId = 1;\n    string _tokenBaseURI = \"\";\n\n    constructor() ERC721(\"RustToken721\", \"RT\") {}\n\n    function setTokenBaseURI(string memory baseURI) public onlyOwner {\n        require(bytes(baseURI).length > 0, \"should set not empty base url\");\n        _tokenBaseURI = baseURI;\n    }\n\n    function mint(address to, string memory tokenName)\n        public\n        virtual\n        onlyOwner\n    {\n        require(_name2token[tokenName] == 0, \"already mint\");\n\n        uint256 tokenId = _localTokenId;\n        _name2token[tokenName] = tokenId;\n        _token2name[tokenId] = tokenName;\n        _mint(to, tokenId);\n\n        _localTokenId += 1;\n    }\n\n    function tokenBaseURI() public view virtual returns (string memory) {\n        return _tokenBaseURI;\n    }\n\n    function tokenURI(uint256 tokenId)\n        public\n        view\n        virtual\n        override\n        returns (string memory)\n    {\n        string memory tokenName = _token2name[tokenId];\n        return\n            string(\n                abi.encodePacked(\n                    _tokenBaseURI,\n                    \"/\",\n                    tokenName,\n                    \".metadata.json\"\n                )\n            );\n    }\n\n    function ownerAddressOf(string memory tokenName)\n        public\n        view\n        virtual\n        returns (address)\n    {\n        uint256 tokenId = _name2token[tokenName];\n        if (!_exists(tokenId)) {\n            return address(0);\n        }\n        return ownerOf(tokenId);\n    }\n\n    function currentSupply() public view virtual returns (uint256) {\n        return _localTokenId - 1;\n    }\n\n    function usedTokenNames() public view virtual returns (string[] memory) {\n        if (_localTokenId == 1) {\n            return new string[](0);\n        }\n        uint256 len = _localTokenId - 1;\n        string[] memory names = new string[](len);\n        for (uint256 i = 0; i < len; i++) {\n            names[i] = _token2name[i + 1];\n        }\n        return names;\n    }\n}\n",
  "sourcePath": "/Users/akiho/Applications/web3/rust-opensea/ethereum/contracts/ERC721.sol",
  "compiler": {
    "name": "solc",
    "version": "0.8.12+commit.f00d7308.Emscripten.clang"
  },
  "schemaVersion": "3.4.6",
  "updatedAt": "2022-03-18T12:30:01.980Z",
  "networkType": "ethereum",
  "devdoc": {
    "kind": "dev",
    "methods": {
      "approve(address,uint256)": {
        "details": "See {IERC721-approve}."
      },
      "balanceOf(address)": {
        "details": "See {IERC721-balanceOf}."
      },
      "getApproved(uint256)": {
        "details": "See {IERC721-getApproved}."
      },
      "isApprovedForAll(address,address)": {
        "details": "See {IERC721-isApprovedForAll}."
      },
      "name()": {
        "details": "See {IERC721Metadata-name}."
      },
      "owner()": {
        "details": "Returns the address of the current owner."
      },
      "ownerOf(uint256)": {
        "details": "See {IERC721-ownerOf}."
      },
      "renounceOwnership()": {
        "details": "Leaves the contract without owner. It will not be possible to call `onlyOwner` functions anymore. Can only be called by the current owner. NOTE: Renouncing ownership will leave the contract without an owner, thereby removing any functionality that is only available to the owner."
      },
      "safeTransferFrom(address,address,uint256)": {
        "details": "See {IERC721-safeTransferFrom}."
      },
      "safeTransferFrom(address,address,uint256,bytes)": {
        "details": "See {IERC721-safeTransferFrom}."
      },
      "setApprovalForAll(address,bool)": {
        "details": "See {IERC721-setApprovalForAll}."
      },
      "supportsInterface(bytes4)": {
        "details": "See {IERC165-supportsInterface}."
      },
      "symbol()": {
        "details": "See {IERC721Metadata-symbol}."
      },
      "tokenByIndex(uint256)": {
        "details": "See {IERC721Enumerable-tokenByIndex}."
      },
      "tokenOfOwnerByIndex(address,uint256)": {
        "details": "See {IERC721Enumerable-tokenOfOwnerByIndex}."
      },
      "tokenURI(uint256)": {
        "details": "See {IERC721Metadata-tokenURI}."
      },
      "totalSupply()": {
        "details": "See {IERC721Enumerable-totalSupply}."
      },
      "transferFrom(address,address,uint256)": {
        "details": "See {IERC721-transferFrom}."
      },
      "transferOwnership(address)": {
        "details": "Transfers ownership of the contract to a new account (`newOwner`). Can only be called by the current owner."
      }
    },
    "version": 1
  },
  "userdoc": {
    "kind": "user",
    "methods": {},
    "version": 1
  }
}