{
  "contractName": "RustToken1155",
  "abi": [
    {
      "inputs": [],
      "stateMutability": "nonpayable",
      "type": "constructor"
    },
    {
      "anonymous": false,
      "inputs": [
        {
          "indexed": true,
          "internalType": "address",
          "name": "account",
          "type": "address"
        },
        {
          "indexed": true,
          "internalType": "address",
          "name": "operator",
          "type": "address"
        },
        {
          "indexed": false,
          "internalType": "bool",
          "name": "approved",
          "type": "bool"
        }
      ],
      "name": "ApprovalForAll",
      "type": "event"
    },
    {
      "anonymous": false,
      "inputs": [
        {
          "indexed": true,
          "internalType": "address",
          "name": "previousOwner",
          "type": "address"
        },
        {
          "indexed": true,
          "internalType": "address",
          "name": "newOwner",
          "type": "address"
        }
      ],
      "name": "OwnershipTransferred",
      "type": "event"
    },
    {
      "anonymous": false,
      "inputs": [
        {
          "indexed": true,
          "internalType": "address",
          "name": "operator",
          "type": "address"
        },
        {
          "indexed": true,
          "internalType": "address",
          "name": "from",
          "type": "address"
        },
        {
          "indexed": true,
          "internalType": "address",
          "name": "to",
          "type": "address"
        },
        {
          "indexed": false,
          "internalType": "uint256[]",
          "name": "ids",
          "type": "uint256[]"
        },
        {
          "indexed": false,
          "internalType": "uint256[]",
          "name": "values",
          "type": "uint256[]"
        }
      ],
      "name": "TransferBatch",
      "type": "event"
    },
    {
      "anonymous": false,
      "inputs": [
        {
          "indexed": true,
          "internalType": "address",
          "name": "operator",
          "type": "address"
        },
        {
          "indexed": true,
          "internalType": "address",
          "name": "from",
          "type": "address"
        },
        {
          "indexed": true,
          "internalType": "address",
          "name": "to",
          "type": "address"
        },
        {
          "indexed": false,
          "internalType": "uint256",
          "name": "id",
          "type": "uint256"
        },
        {
          "indexed": false,
          "internalType": "uint256",
          "name": "value",
          "type": "uint256"
        }
      ],
      "name": "TransferSingle",
      "type": "event"
    },
    {
      "anonymous": false,
      "inputs": [
        {
          "indexed": false,
          "internalType": "string",
          "name": "value",
          "type": "string"
        },
        {
          "indexed": true,
          "internalType": "uint256",
          "name": "id",
          "type": "uint256"
        }
      ],
      "name": "URI",
      "type": "event"
    },
    {
      "inputs": [
        {
          "internalType": "address",
          "name": "account",
          "type": "address"
        },
        {
          "internalType": "uint256",
          "name": "id",
          "type": "uint256"
        }
      ],
      "name": "balanceOf",
      "outputs": [
        {
          "internalType": "uint256",
          "name": "",
          "type": "uint256"
        }
      ],
      "stateMutability": "view",
      "type": "function",
      "constant": true
    },
    {
      "inputs": [
        {
          "internalType": "address[]",
          "name": "accounts",
          "type": "address[]"
        },
        {
          "internalType": "uint256[]",
          "name": "ids",
          "type": "uint256[]"
        }
      ],
      "name": "balanceOfBatch",
      "outputs": [
        {
          "internalType": "uint256[]",
          "name": "",
          "type": "uint256[]"
        }
      ],
      "stateMutability": "view",
      "type": "function",
      "constant": true
    },
    {
      "inputs": [
        {
          "internalType": "address",
          "name": "account",
          "type": "address"
        },
        {
          "internalType": "address",
          "name": "operator",
          "type": "address"
        }
      ],
      "name": "isApprovedForAll",
      "outputs": [
        {
          "internalType": "bool",
          "name": "",
          "type": "bool"
        }
      ],
      "stateMutability": "view",
      "type": "function",
      "constant": true
    },
    {
      "inputs": [],
      "name": "name",
      "outputs": [
        {
          "internalType": "string",
          "name": "",
          "type": "string"
        }
      ],
      "stateMutability": "view",
      "type": "function",
      "constant": true
    },
    {
      "inputs": [],
      "name": "owner",
      "outputs": [
        {
          "internalType": "address",
          "name": "",
          "type": "address"
        }
      ],
      "stateMutability": "view",
      "type": "function",
      "constant": true
    },
    {
      "inputs": [],
      "name": "renounceOwnership",
      "outputs": [],
      "stateMutability": "nonpayable",
      "type": "function"
    },
    {
      "inputs": [
        {
          "internalType": "address",
          "name": "from",
          "type": "address"
        },
        {
          "internalType": "address",
          "name": "to",
          "type": "address"
        },
        {
          "internalType": "uint256[]",
          "name": "ids",
          "type": "uint256[]"
        },
        {
          "internalType": "uint256[]",
          "name": "amounts",
          "type": "uint256[]"
        },
        {
          "internalType": "bytes",
          "name": "data",
          "type": "bytes"
        }
      ],
      "name": "safeBatchTransferFrom",
      "outputs": [],
      "stateMutability": "nonpayable",
      "type": "function"
    },
    {
      "inputs": [
        {
          "internalType": "address",
          "name": "from",
          "type": "address"
        },
        {
          "internalType": "address",
          "name": "to",
          "type": "address"
        },
        {
          "internalType": "uint256",
          "name": "id",
          "type": "uint256"
        },
        {
          "internalType": "uint256",
          "name": "amount",
          "type": "uint256"
        },
        {
          "internalType": "bytes",
          "name": "data",
          "type": "bytes"
        }
      ],
      "name": "safeTransferFrom",
      "outputs": [],
      "stateMutability": "nonpayable",
      "type": "function"
    },
    {
      "inputs": [
        {
          "internalType": "address",
          "name": "operator",
          "type": "address"
        },
        {
          "internalType": "bool",
          "name": "approved",
          "type": "bool"
        }
      ],
      "name": "setApprovalForAll",
      "outputs": [],
      "stateMutability": "nonpayable",
      "type": "function"
    },
    {
      "inputs": [
        {
          "internalType": "bytes4",
          "name": "interfaceId",
          "type": "bytes4"
        }
      ],
      "name": "supportsInterface",
      "outputs": [
        {
          "internalType": "bool",
          "name": "",
          "type": "bool"
        }
      ],
      "stateMutability": "view",
      "type": "function",
      "constant": true
    },
    {
      "inputs": [],
      "name": "symbol",
      "outputs": [
        {
          "internalType": "string",
          "name": "",
          "type": "string"
        }
      ],
      "stateMutability": "view",
      "type": "function",
      "constant": true
    },
    {
      "inputs": [
        {
          "internalType": "address",
          "name": "newOwner",
          "type": "address"
        }
      ],
      "name": "transferOwnership",
      "outputs": [],
      "stateMutability": "nonpayable",
      "type": "function"
    },
    {
      "inputs": [
        {
          "internalType": "string",
          "name": "baseURI",
          "type": "string"
        }
      ],
      "name": "setTokenBaseURI",
      "outputs": [],
      "stateMutability": "nonpayable",
      "type": "function"
    },
    {
      "inputs": [
        {
          "internalType": "address",
          "name": "to",
          "type": "address"
        },
        {
          "internalType": "string",
          "name": "tokenName",
          "type": "string"
        },
        {
          "internalType": "uint256",
          "name": "amount",
          "type": "uint256"
        }
      ],
      "name": "mint",
      "outputs": [],
      "stateMutability": "nonpayable",
      "type": "function"
    },
    {
      "inputs": [
        {
          "internalType": "address",
          "name": "to",
          "type": "address"
        },
        {
          "internalType": "string[]",
          "name": "tokenNames",
          "type": "string[]"
        },
        {
          "internalType": "uint256[]",
          "name": "amounts",
          "type": "uint256[]"
        }
      ],
      "name": "mintBatch",
      "outputs": [],
      "stateMutability": "nonpayable",
      "type": "function"
    },
    {
      "inputs": [
        {
          "internalType": "uint256",
          "name": "tokenId",
          "type": "uint256"
        }
      ],
      "name": "uri",
      "outputs": [
        {
          "internalType": "string",
          "name": "",
          "type": "string"
        }
      ],
      "stateMutability": "view",
      "type": "function",
      "constant": true
    },
    {
      "inputs": [],
      "name": "currentSupply",
      "outputs": [
        {
          "internalType": "uint256",
          "name": "",
          "type": "uint256"
        }
      ],
      "stateMutability": "view",
      "type": "function",
      "constant": true
    },
    {
      "inputs": [],
      "name": "usedTokenNames",
      "outputs": [
        {
          "internalType": "string[]",
          "name": "",
          "type": "string[]"
        }
      ],
      "stateMutability": "view",
      "type": "function",
      "constant": true
    }
  ],
  "bytecode": "0x608060405260016006556040518060200160405280600081525060079080519060200190620000309291906200020d565b506040518060400160405280600d81526020017f52757374546f6b656e3131353500000000000000000000000000000000000000815250600890805190602001906200007e9291906200020d565b506040518060400160405280600281526020017f525400000000000000000000000000000000000000000000000000000000000081525060099080519060200190620000cc9291906200020d565b50348015620000da57600080fd5b5060405180602001604052806000815250620000fc816200012360201b60201c565b506200011d620001116200013f60201b60201c565b6200014760201b60201c565b62000322565b80600290805190602001906200013b9291906200020d565b5050565b600033905090565b6000600360009054906101000a900473ffffffffffffffffffffffffffffffffffffffff16905081600360006101000a81548173ffffffffffffffffffffffffffffffffffffffff021916908373ffffffffffffffffffffffffffffffffffffffff1602179055508173ffffffffffffffffffffffffffffffffffffffff168173ffffffffffffffffffffffffffffffffffffffff167f8be0079c531659141344cd1fd0a4f28419497f9722a3daafe3b4186f6b6457e060405160405180910390a35050565b8280546200021b90620002ec565b90600052602060002090601f0160209004810192826200023f57600085556200028b565b82601f106200025a57805160ff19168380011785556200028b565b828001600101855582156200028b579182015b828111156200028a5782518255916020019190600101906200026d565b5b5090506200029a91906200029e565b5090565b5b80821115620002b95760008160009055506001016200029f565b5090565b7f4e487b7100000000000000000000000000000000000000000000000000000000600052602260045260246000fd5b600060028204905060018216806200030557607f821691505b602082108114156200031c576200031b620002bd565b5b50919050565b613d9880620003326000396000f3fe608060405234801561001057600080fd5b50600436106101155760003560e01c8063771282f6116100a2578063a22cb46511610071578063a22cb465146102ce578063ba7aef43146102ea578063e985e9c514610306578063f242432a14610336578063f2fde38b1461035257610115565b8063771282f6146102585780638da5cb5b146102765780638ef79e911461029457806395d89b41146102b057610115565b80632eb2c2d6116100e95780632eb2c2d6146101c85780634d8437d8146101e45780634e1273f414610200578063713805da14610230578063715018a61461024e57610115565b8062fdd58e1461011a57806301ffc9a71461014a57806306fdde031461017a5780630e89341c14610198575b600080fd5b610134600480360381019061012f91906122fc565b61036e565b604051610141919061234b565b60405180910390f35b610164600480360381019061015f91906123be565b610437565b6040516101719190612406565b60405180910390f35b610182610519565b60405161018f91906124ba565b60405180910390f35b6101b260048036038101906101ad91906124dc565b6105a7565b6040516101bf91906124ba565b60405180910390f35b6101e260048036038101906101dd9190612706565b610674565b005b6101fe60048036038101906101f99190612957565b610715565b005b61021a60048036038101906102159190612aa5565b6108c1565b6040516102279190612bdb565b60405180910390f35b6102386109da565b6040516102459190612d09565b60405180910390f35b610256610b90565b005b610260610c18565b60405161026d919061234b565b60405180910390f35b61027e610c2e565b60405161028b9190612d3a565b60405180910390f35b6102ae60048036038101906102a99190612d55565b610c58565b005b6102b8610d32565b6040516102c591906124ba565b60405180910390f35b6102e860048036038101906102e39190612dca565b610dc0565b005b61030460048036038101906102ff9190612e0a565b610dd6565b005b610320600480360381019061031b9190612e79565b610f40565b60405161032d9190612406565b60405180910390f35b610350600480360381019061034b9190612eb9565b610fd4565b005b61036c60048036038101906103679190612f50565b611075565b005b60008073ffffffffffffffffffffffffffffffffffffffff168373ffffffffffffffffffffffffffffffffffffffff1614156103df576040517f08c379a00000000000000000000000000000000000000000000000000000000081526004016103d690612fef565b60405180910390fd5b60008083815260200190815260200160002060008473ffffffffffffffffffffffffffffffffffffffff1673ffffffffffffffffffffffffffffffffffffffff16815260200190815260200160002054905092915050565b60007fd9b67a26000000000000000000000000000000000000000000000000000000007bffffffffffffffffffffffffffffffffffffffffffffffffffffffff1916827bffffffffffffffffffffffffffffffffffffffffffffffffffffffff1916148061050257507f0e89341c000000000000000000000000000000000000000000000000000000007bffffffffffffffffffffffffffffffffffffffffffffffffffffffff1916827bffffffffffffffffffffffffffffffffffffffffffffffffffffffff1916145b8061051257506105118261116d565b5b9050919050565b600880546105269061303e565b80601f01602080910402602001604051908101604052809291908181526020018280546105529061303e565b801561059f5780601f106105745761010080835404028352916020019161059f565b820191906000526020600020905b81548152906001019060200180831161058257829003601f168201915b505050505081565b606060006005600084815260200190815260200160002080546105c99061303e565b80601f01602080910402602001604051908101604052809291908181526020018280546105f59061303e565b80156106425780601f1061061757610100808354040283529160200191610642565b820191906000526020600020905b81548152906001019060200180831161062557829003601f168201915b5050505050905060078160405160200161065d9291906131d8565b604051602081830303815290604052915050919050565b61067c6111d7565b73ffffffffffffffffffffffffffffffffffffffff168573ffffffffffffffffffffffffffffffffffffffff1614806106c257506106c1856106bc6111d7565b610f40565b5b610701576040517f08c379a00000000000000000000000000000000000000000000000000000000081526004016106f890613284565b60405180910390fd5b61070e85858585856111df565b5050505050565b600a8251111561072457600080fd5b6000825167ffffffffffffffff8111156107415761074061250e565b5b60405190808252806020026020018201604052801561076f5781602001602082028036833780820191505090505b50905060005b835181101561089f576000848281518110610793576107926132a4565b5b6020026020010151905060006004826040516107af91906132d3565b908152602001604051809103902054146107fe576040517f08c379a00000000000000000000000000000000000000000000000000000000081526004016107f590613336565b60405180910390fd5b600060065490508060048360405161081691906132d3565b9081526020016040518091039020819055508160056000838152602001908152602001600020908051906020019061084f9291906121b1565b5080848481518110610864576108636132a4565b5b6020026020010181815250506001600660008282546108839190613385565b9250508190555050508080610897906133db565b915050610775565b506108bb848284604051806020016040528060008152506114f3565b50505050565b60608151835114610907576040517f08c379a00000000000000000000000000000000000000000000000000000000081526004016108fe90613496565b60405180910390fd5b6000835167ffffffffffffffff8111156109245761092361250e565b5b6040519080825280602002602001820160405280156109525781602001602082028036833780820191505090505b50905060005b84518110156109cf5761099f858281518110610977576109766132a4565b5b6020026020010151858381518110610992576109916132a4565b5b602002602001015161036e565b8282815181106109b2576109b16132a4565b5b602002602001018181525050806109c8906133db565b9050610958565b508091505092915050565b606060016006541415610a3d57600067ffffffffffffffff811115610a0257610a0161250e565b5b604051908082528060200260200182016040528015610a3557816020015b6060815260200190600190039081610a205790505b509050610b8d565b60006001600654610a4e91906134b6565b905060008167ffffffffffffffff811115610a6c57610a6b61250e565b5b604051908082528060200260200182016040528015610a9f57816020015b6060815260200190600190039081610a8a5790505b50905060005b82811015610b865760056000600183610abe9190613385565b81526020019081526020016000208054610ad79061303e565b80601f0160208091040260200160405190810160405280929190818152602001828054610b039061303e565b8015610b505780601f10610b2557610100808354040283529160200191610b50565b820191906000526020600020905b815481529060010190602001808311610b3357829003601f168201915b5050505050828281518110610b6857610b676132a4565b5b60200260200101819052508080610b7e906133db565b915050610aa5565b5080925050505b90565b610b986111d7565b73ffffffffffffffffffffffffffffffffffffffff16610bb6610c2e565b73ffffffffffffffffffffffffffffffffffffffff1614610c0c576040517f08c379a0000000000000000000000000000000000000000000000000000000008152600401610c0390613536565b60405180910390fd5b610c166000611711565b565b60006001600654610c2991906134b6565b905090565b6000600360009054906101000a900473ffffffffffffffffffffffffffffffffffffffff16905090565b610c606111d7565b73ffffffffffffffffffffffffffffffffffffffff16610c7e610c2e565b73ffffffffffffffffffffffffffffffffffffffff1614610cd4576040517f08c379a0000000000000000000000000000000000000000000000000000000008152600401610ccb90613536565b60405180910390fd5b6000815111610d18576040517f08c379a0000000000000000000000000000000000000000000000000000000008152600401610d0f906135a2565b60405180910390fd5b8060079080519060200190610d2e9291906121b1565b5050565b60098054610d3f9061303e565b80601f0160208091040260200160405190810160405280929190818152602001828054610d6b9061303e565b8015610db85780601f10610d8d57610100808354040283529160200191610db8565b820191906000526020600020905b815481529060010190602001808311610d9b57829003601f168201915b505050505081565b610dd2610dcb6111d7565b83836117d7565b5050565b610dde6111d7565b73ffffffffffffffffffffffffffffffffffffffff16610dfc610c2e565b73ffffffffffffffffffffffffffffffffffffffff1614610e52576040517f08c379a0000000000000000000000000000000000000000000000000000000008152600401610e4990613536565b60405180910390fd5b6000600483604051610e6491906132d3565b90815260200160405180910390205414610eb3576040517f08c379a0000000000000000000000000000000000000000000000000000000008152600401610eaa90613336565b60405180910390fd5b6000600654905080600484604051610ecb91906132d3565b90815260200160405180910390208190555082600560008381526020019081526020016000209080519060200190610f049291906121b1565b50610f2084828460405180602001604052806000815250611944565b600160066000828254610f339190613385565b9250508190555050505050565b6000600160008473ffffffffffffffffffffffffffffffffffffffff1673ffffffffffffffffffffffffffffffffffffffff16815260200190815260200160002060008373ffffffffffffffffffffffffffffffffffffffff1673ffffffffffffffffffffffffffffffffffffffff16815260200190815260200160002060009054906101000a900460ff16905092915050565b610fdc6111d7565b73ffffffffffffffffffffffffffffffffffffffff168573ffffffffffffffffffffffffffffffffffffffff16148061102257506110218561101c6111d7565b610f40565b5b611061576040517f08c379a000000000000000000000000000000000000000000000000000000000815260040161105890613634565b60405180910390fd5b61106e8585858585611ada565b5050505050565b61107d6111d7565b73ffffffffffffffffffffffffffffffffffffffff1661109b610c2e565b73ffffffffffffffffffffffffffffffffffffffff16146110f1576040517f08c379a00000000000000000000000000000000000000000000000000000000081526004016110e890613536565b60405180910390fd5b600073ffffffffffffffffffffffffffffffffffffffff168173ffffffffffffffffffffffffffffffffffffffff161415611161576040517f08c379a0000000000000000000000000000000000000000000000000000000008152600401611158906136c6565b60405180910390fd5b61116a81611711565b50565b60007f01ffc9a7000000000000000000000000000000000000000000000000000000007bffffffffffffffffffffffffffffffffffffffffffffffffffffffff1916827bffffffffffffffffffffffffffffffffffffffffffffffffffffffff1916149050919050565b600033905090565b8151835114611223576040517f08c379a000000000000000000000000000000000000000000000000000000000815260040161121a90613758565b60405180910390fd5b600073ffffffffffffffffffffffffffffffffffffffff168473ffffffffffffffffffffffffffffffffffffffff161415611293576040517f08c379a000000000000000000000000000000000000000000000000000000000815260040161128a906137ea565b60405180910390fd5b600061129d6111d7565b90506112ad818787878787611d5c565b60005b845181101561145e5760008582815181106112ce576112cd6132a4565b5b6020026020010151905060008583815181106112ed576112ec6132a4565b5b60200260200101519050600080600084815260200190815260200160002060008b73ffffffffffffffffffffffffffffffffffffffff1673ffffffffffffffffffffffffffffffffffffffff1681526020019081526020016000205490508181101561138e576040517f08c379a00000000000000000000000000000000000000000000000000000000081526004016113859061387c565b60405180910390fd5b81810360008085815260200190815260200160002060008c73ffffffffffffffffffffffffffffffffffffffff1673ffffffffffffffffffffffffffffffffffffffff168152602001908152602001600020819055508160008085815260200190815260200160002060008b73ffffffffffffffffffffffffffffffffffffffff1673ffffffffffffffffffffffffffffffffffffffff16815260200190815260200160002060008282546114439190613385565b9250508190555050505080611457906133db565b90506112b0565b508473ffffffffffffffffffffffffffffffffffffffff168673ffffffffffffffffffffffffffffffffffffffff168273ffffffffffffffffffffffffffffffffffffffff167f4a39dc06d4c0dbc64b70af90fd698a233a518aa5d07e595d983b8c0526c8f7fb87876040516114d592919061389c565b60405180910390a46114eb818787878787611d64565b505050505050565b600073ffffffffffffffffffffffffffffffffffffffff168473ffffffffffffffffffffffffffffffffffffffff161415611563576040517f08c379a000000000000000000000000000000000000000000000000000000000815260040161155a90613945565b60405180910390fd5b81518351146115a7576040517f08c379a000000000000000000000000000000000000000000000000000000000815260040161159e90613758565b60405180910390fd5b60006115b16111d7565b90506115c281600087878787611d5c565b60005b845181101561167b578381815181106115e1576115e06132a4565b5b60200260200101516000808784815181106115ff576115fe6132a4565b5b6020026020010151815260200190815260200160002060008873ffffffffffffffffffffffffffffffffffffffff1673ffffffffffffffffffffffffffffffffffffffff16815260200190815260200160002060008282546116619190613385565b925050819055508080611673906133db565b9150506115c5565b508473ffffffffffffffffffffffffffffffffffffffff16600073ffffffffffffffffffffffffffffffffffffffff168273ffffffffffffffffffffffffffffffffffffffff167f4a39dc06d4c0dbc64b70af90fd698a233a518aa5d07e595d983b8c0526c8f7fb87876040516116f392919061389c565b60405180910390a461170a81600087878787611d64565b5050505050565b6000600360009054906101000a900473ffffffffffffffffffffffffffffffffffffffff16905081600360006101000a81548173ffffffffffffffffffffffffffffffffffffffff021916908373ffffffffffffffffffffffffffffffffffffffff1602179055508173ffffffffffffffffffffffffffffffffffffffff168173ffffffffffffffffffffffffffffffffffffffff167f8be0079c531659141344cd1fd0a4f28419497f9722a3daafe3b4186f6b6457e060405160405180910390a35050565b8173ffffffffffffffffffffffffffffffffffffffff168373ffffffffffffffffffffffffffffffffffffffff161415611846576040517f08c379a000000000000000000000000000000000000000000000000000000000815260040161183d906139d7565b60405180910390fd5b80600160008573ffffffffffffffffffffffffffffffffffffffff1673ffffffffffffffffffffffffffffffffffffffff16815260200190815260200160002060008473ffffffffffffffffffffffffffffffffffffffff1673ffffffffffffffffffffffffffffffffffffffff16815260200190815260200160002060006101000a81548160ff0219169083151502179055508173ffffffffffffffffffffffffffffffffffffffff168373ffffffffffffffffffffffffffffffffffffffff167f17307eab39ab6107e8899845ad3d59bd9653f200f220920489ca2b5937696c31836040516119379190612406565b60405180910390a3505050565b600073ffffffffffffffffffffffffffffffffffffffff168473ffffffffffffffffffffffffffffffffffffffff1614156119b4576040517f08c379a00000000000000000000000000000000000000000000000000000000081526004016119ab90613945565b60405180910390fd5b60006119be6111d7565b90506119df816000876119d088611f3c565b6119d988611f3c565b87611d5c565b8260008086815260200190815260200160002060008773ffffffffffffffffffffffffffffffffffffffff1673ffffffffffffffffffffffffffffffffffffffff1681526020019081526020016000206000828254611a3e9190613385565b925050819055508473ffffffffffffffffffffffffffffffffffffffff16600073ffffffffffffffffffffffffffffffffffffffff168273ffffffffffffffffffffffffffffffffffffffff167fc3d58168c5ae7397731d063d5bbf3d657854427343f4c083240f7aacaa2d0f628787604051611abc9291906139f7565b60405180910390a4611ad381600087878787611fb6565b5050505050565b600073ffffffffffffffffffffffffffffffffffffffff168473ffffffffffffffffffffffffffffffffffffffff161415611b4a576040517f08c379a0000000000000000000000000000000000000000000000000000000008152600401611b41906137ea565b60405180910390fd5b6000611b546111d7565b9050611b74818787611b6588611f3c565b611b6e88611f3c565b87611d5c565b600080600086815260200190815260200160002060008873ffffffffffffffffffffffffffffffffffffffff1673ffffffffffffffffffffffffffffffffffffffff16815260200190815260200160002054905083811015611c0b576040517f08c379a0000000000000000000000000000000000000000000000000000000008152600401611c029061387c565b60405180910390fd5b83810360008087815260200190815260200160002060008973ffffffffffffffffffffffffffffffffffffffff1673ffffffffffffffffffffffffffffffffffffffff168152602001908152602001600020819055508360008087815260200190815260200160002060008873ffffffffffffffffffffffffffffffffffffffff1673ffffffffffffffffffffffffffffffffffffffff1681526020019081526020016000206000828254611cc09190613385565b925050819055508573ffffffffffffffffffffffffffffffffffffffff168773ffffffffffffffffffffffffffffffffffffffff168373ffffffffffffffffffffffffffffffffffffffff167fc3d58168c5ae7397731d063d5bbf3d657854427343f4c083240f7aacaa2d0f628888604051611d3d9291906139f7565b60405180910390a4611d53828888888888611fb6565b50505050505050565b505050505050565b611d838473ffffffffffffffffffffffffffffffffffffffff1661218e565b15611f34578373ffffffffffffffffffffffffffffffffffffffff1663bc197c8187878686866040518663ffffffff1660e01b8152600401611dc9959493929190613a75565b6020604051808303816000875af1925050508015611e0557506040513d601f19601f82011682018060405250810190611e029190613af2565b60015b611eab57611e11613b2c565b806308c379a01415611e6e5750611e26613b4e565b80611e315750611e70565b806040517f08c379a0000000000000000000000000000000000000000000000000000000008152600401611e6591906124ba565b60405180910390fd5b505b6040517f08c379a0000000000000000000000000000000000000000000000000000000008152600401611ea290613c56565b60405180910390fd5b63bc197c8160e01b7bffffffffffffffffffffffffffffffffffffffffffffffffffffffff1916817bffffffffffffffffffffffffffffffffffffffffffffffffffffffff191614611f32576040517f08c379a0000000000000000000000000000000000000000000000000000000008152600401611f2990613ce8565b60405180910390fd5b505b505050505050565b60606000600167ffffffffffffffff811115611f5b57611f5a61250e565b5b604051908082528060200260200182016040528015611f895781602001602082028036833780820191505090505b5090508281600081518110611fa157611fa06132a4565b5b60200260200101818152505080915050919050565b611fd58473ffffffffffffffffffffffffffffffffffffffff1661218e565b15612186578373ffffffffffffffffffffffffffffffffffffffff1663f23a6e6187878686866040518663ffffffff1660e01b815260040161201b959493929190613d08565b6020604051808303816000875af192505050801561205757506040513d601f19601f820116820180604052508101906120549190613af2565b60015b6120fd57612063613b2c565b806308c379a014156120c05750612078613b4e565b8061208357506120c2565b806040517f08c379a00000000000000000000000000000000000000000000000000000000081526004016120b791906124ba565b60405180910390fd5b505b6040517f08c379a00000000000000000000000000000000000000000000000000000000081526004016120f490613c56565b60405180910390fd5b63f23a6e6160e01b7bffffffffffffffffffffffffffffffffffffffffffffffffffffffff1916817bffffffffffffffffffffffffffffffffffffffffffffffffffffffff191614612184576040517f08c379a000000000000000000000000000000000000000000000000000000000815260040161217b90613ce8565b60405180910390fd5b505b505050505050565b6000808273ffffffffffffffffffffffffffffffffffffffff163b119050919050565b8280546121bd9061303e565b90600052602060002090601f0160209004810192826121df5760008555612226565b82601f106121f857805160ff1916838001178555612226565b82800160010185558215612226579182015b8281111561222557825182559160200191906001019061220a565b5b5090506122339190612237565b5090565b5b80821115612250576000816000905550600101612238565b5090565b6000604051905090565b600080fd5b600080fd5b600073ffffffffffffffffffffffffffffffffffffffff82169050919050565b600061229382612268565b9050919050565b6122a381612288565b81146122ae57600080fd5b50565b6000813590506122c08161229a565b92915050565b6000819050919050565b6122d9816122c6565b81146122e457600080fd5b50565b6000813590506122f6816122d0565b92915050565b600080604083850312156123135761231261225e565b5b6000612321858286016122b1565b9250506020612332858286016122e7565b9150509250929050565b612345816122c6565b82525050565b6000602082019050612360600083018461233c565b92915050565b60007fffffffff0000000000000000000000000000000000000000000000000000000082169050919050565b61239b81612366565b81146123a657600080fd5b50565b6000813590506123b881612392565b92915050565b6000602082840312156123d4576123d361225e565b5b60006123e2848285016123a9565b91505092915050565b60008115159050919050565b612400816123eb565b82525050565b600060208201905061241b60008301846123f7565b92915050565b600081519050919050565b600082825260208201905092915050565b60005b8381101561245b578082015181840152602081019050612440565b8381111561246a576000848401525b50505050565b6000601f19601f8301169050919050565b600061248c82612421565b612496818561242c565b93506124a681856020860161243d565b6124af81612470565b840191505092915050565b600060208201905081810360008301526124d48184612481565b905092915050565b6000602082840312156124f2576124f161225e565b5b6000612500848285016122e7565b91505092915050565b600080fd5b7f4e487b7100000000000000000000000000000000000000000000000000000000600052604160045260246000fd5b61254682612470565b810181811067ffffffffffffffff821117156125655761256461250e565b5b80604052505050565b6000612578612254565b9050612584828261253d565b919050565b600067ffffffffffffffff8211156125a4576125a361250e565b5b602082029050602081019050919050565b600080fd5b60006125cd6125c884612589565b61256e565b905080838252602082019050602084028301858111156125f0576125ef6125b5565b5b835b81811015612619578061260588826122e7565b8452602084019350506020810190506125f2565b5050509392505050565b600082601f83011261263857612637612509565b5b81356126488482602086016125ba565b91505092915050565b600080fd5b600067ffffffffffffffff8211156126715761267061250e565b5b61267a82612470565b9050602081019050919050565b82818337600083830152505050565b60006126a96126a484612656565b61256e565b9050828152602081018484840111156126c5576126c4612651565b5b6126d0848285612687565b509392505050565b600082601f8301126126ed576126ec612509565b5b81356126fd848260208601612696565b91505092915050565b600080600080600060a086880312156127225761272161225e565b5b6000612730888289016122b1565b9550506020612741888289016122b1565b945050604086013567ffffffffffffffff81111561276257612761612263565b5b61276e88828901612623565b935050606086013567ffffffffffffffff81111561278f5761278e612263565b5b61279b88828901612623565b925050608086013567ffffffffffffffff8111156127bc576127bb612263565b5b6127c8888289016126d8565b9150509295509295909350565b600067ffffffffffffffff8211156127f0576127ef61250e565b5b602082029050602081019050919050565b600067ffffffffffffffff82111561281c5761281b61250e565b5b61282582612470565b9050602081019050919050565b600061284561284084612801565b61256e565b90508281526020810184848401111561286157612860612651565b5b61286c848285612687565b509392505050565b600082601f83011261288957612888612509565b5b8135612899848260208601612832565b91505092915050565b60006128b56128b0846127d5565b61256e565b905080838252602082019050602084028301858111156128d8576128d76125b5565b5b835b8181101561291f57803567ffffffffffffffff8111156128fd576128fc612509565b5b80860161290a8982612874565b855260208501945050506020810190506128da565b5050509392505050565b600082601f83011261293e5761293d612509565b5b813561294e8482602086016128a2565b91505092915050565b6000806000606084860312156129705761296f61225e565b5b600061297e868287016122b1565b935050602084013567ffffffffffffffff81111561299f5761299e612263565b5b6129ab86828701612929565b925050604084013567ffffffffffffffff8111156129cc576129cb612263565b5b6129d886828701612623565b9150509250925092565b600067ffffffffffffffff8211156129fd576129fc61250e565b5b602082029050602081019050919050565b6000612a21612a1c846129e2565b61256e565b90508083825260208201905060208402830185811115612a4457612a436125b5565b5b835b81811015612a6d5780612a5988826122b1565b845260208401935050602081019050612a46565b5050509392505050565b600082601f830112612a8c57612a8b612509565b5b8135612a9c848260208601612a0e565b91505092915050565b60008060408385031215612abc57612abb61225e565b5b600083013567ffffffffffffffff811115612ada57612ad9612263565b5b612ae685828601612a77565b925050602083013567ffffffffffffffff811115612b0757612b06612263565b5b612b1385828601612623565b9150509250929050565b600081519050919050565b600082825260208201905092915050565b6000819050602082019050919050565b612b52816122c6565b82525050565b6000612b648383612b49565b60208301905092915050565b6000602082019050919050565b6000612b8882612b1d565b612b928185612b28565b9350612b9d83612b39565b8060005b83811015612bce578151612bb58882612b58565b9750612bc083612b70565b925050600181019050612ba1565b5085935050505092915050565b60006020820190508181036000830152612bf58184612b7d565b905092915050565b600081519050919050565b600082825260208201905092915050565b6000819050602082019050919050565b600082825260208201905092915050565b6000612c4582612421565b612c4f8185612c29565b9350612c5f81856020860161243d565b612c6881612470565b840191505092915050565b6000612c7f8383612c3a565b905092915050565b6000602082019050919050565b6000612c9f82612bfd565b612ca98185612c08565b935083602082028501612cbb85612c19565b8060005b85811015612cf75784840389528151612cd88582612c73565b9450612ce383612c87565b925060208a01995050600181019050612cbf565b50829750879550505050505092915050565b60006020820190508181036000830152612d238184612c94565b905092915050565b612d3481612288565b82525050565b6000602082019050612d4f6000830184612d2b565b92915050565b600060208284031215612d6b57612d6a61225e565b5b600082013567ffffffffffffffff811115612d8957612d88612263565b5b612d9584828501612874565b91505092915050565b612da7816123eb565b8114612db257600080fd5b50565b600081359050612dc481612d9e565b92915050565b60008060408385031215612de157612de061225e565b5b6000612def858286016122b1565b9250506020612e0085828601612db5565b9150509250929050565b600080600060608486031215612e2357612e2261225e565b5b6000612e31868287016122b1565b935050602084013567ffffffffffffffff811115612e5257612e51612263565b5b612e5e86828701612874565b9250506040612e6f868287016122e7565b9150509250925092565b60008060408385031215612e9057612e8f61225e565b5b6000612e9e858286016122b1565b9250506020612eaf858286016122b1565b9150509250929050565b600080600080600060a08688031215612ed557612ed461225e565b5b6000612ee3888289016122b1565b9550506020612ef4888289016122b1565b9450506040612f05888289016122e7565b9350506060612f16888289016122e7565b925050608086013567ffffffffffffffff811115612f3757612f36612263565b5b612f43888289016126d8565b9150509295509295909350565b600060208284031215612f6657612f6561225e565b5b6000612f74848285016122b1565b91505092915050565b7f455243313135353a2062616c616e636520717565727920666f7220746865207a60008201527f65726f2061646472657373000000000000000000000000000000000000000000602082015250565b6000612fd9602b8361242c565b9150612fe482612f7d565b604082019050919050565b6000602082019050818103600083015261300881612fcc565b9050919050565b7f4e487b7100000000000000000000000000000000000000000000000000000000600052602260045260246000fd5b6000600282049050600182168061305657607f821691505b6020821081141561306a5761306961300f565b5b50919050565b600081905092915050565b60008190508160005260206000209050919050565b6000815461309d8161303e565b6130a78186613070565b945060018216600081146130c257600181146130d357613106565b60ff19831686528186019350613106565b6130dc8561307b565b60005b838110156130fe578154818901526001820191506020810190506130df565b838801955050505b50505092915050565b7f2f00000000000000000000000000000000000000000000000000000000000000600082015250565b6000613145600183613070565b91506131508261310f565b600182019050919050565b600061316682612421565b6131708185613070565b935061318081856020860161243d565b80840191505092915050565b7f2e6d657461646174612e6a736f6e000000000000000000000000000000000000600082015250565b60006131c2600e83613070565b91506131cd8261318c565b600e82019050919050565b60006131e48285613090565b91506131ef82613138565b91506131fb828461315b565b9150613206826131b5565b91508190509392505050565b7f455243313135353a207472616e736665722063616c6c6572206973206e6f742060008201527f6f776e6572206e6f7220617070726f7665640000000000000000000000000000602082015250565b600061326e60328361242c565b915061327982613212565b604082019050919050565b6000602082019050818103600083015261329d81613261565b9050919050565b7f4e487b7100000000000000000000000000000000000000000000000000000000600052603260045260246000fd5b60006132df828461315b565b915081905092915050565b7f616c7265616479206d696e740000000000000000000000000000000000000000600082015250565b6000613320600c8361242c565b915061332b826132ea565b602082019050919050565b6000602082019050818103600083015261334f81613313565b9050919050565b7f4e487b7100000000000000000000000000000000000000000000000000000000600052601160045260246000fd5b6000613390826122c6565b915061339b836122c6565b9250827fffffffffffffffffffffffffffffffffffffffffffffffffffffffffffffffff038211156133d0576133cf613356565b5b828201905092915050565b60006133e6826122c6565b91507fffffffffffffffffffffffffffffffffffffffffffffffffffffffffffffffff82141561341957613418613356565b5b600182019050919050565b7f455243313135353a206163636f756e747320616e6420696473206c656e67746860008201527f206d69736d617463680000000000000000000000000000000000000000000000602082015250565b600061348060298361242c565b915061348b82613424565b604082019050919050565b600060208201905081810360008301526134af81613473565b9050919050565b60006134c1826122c6565b91506134cc836122c6565b9250828210156134df576134de613356565b5b828203905092915050565b7f4f776e61626c653a2063616c6c6572206973206e6f7420746865206f776e6572600082015250565b600061352060208361242c565b915061352b826134ea565b602082019050919050565b6000602082019050818103600083015261354f81613513565b9050919050565b7f73686f756c6420736574206e6f7420656d70747920626173652075726c000000600082015250565b600061358c601d8361242c565b915061359782613556565b602082019050919050565b600060208201905081810360008301526135bb8161357f565b9050919050565b7f455243313135353a2063616c6c6572206973206e6f74206f776e6572206e6f7260008201527f20617070726f7665640000000000000000000000000000000000000000000000602082015250565b600061361e60298361242c565b9150613629826135c2565b604082019050919050565b6000602082019050818103600083015261364d81613611565b9050919050565b7f4f776e61626c653a206e6577206f776e657220697320746865207a65726f206160008201527f6464726573730000000000000000000000000000000000000000000000000000602082015250565b60006136b060268361242c565b91506136bb82613654565b604082019050919050565b600060208201905081810360008301526136df816136a3565b9050919050565b7f455243313135353a2069647320616e6420616d6f756e7473206c656e6774682060008201527f6d69736d61746368000000000000000000000000000000000000000000000000602082015250565b600061374260288361242c565b915061374d826136e6565b604082019050919050565b6000602082019050818103600083015261377181613735565b9050919050565b7f455243313135353a207472616e7366657220746f20746865207a65726f20616460008201527f6472657373000000000000000000000000000000000000000000000000000000602082015250565b60006137d460258361242c565b91506137df82613778565b604082019050919050565b60006020820190508181036000830152613803816137c7565b9050919050565b7f455243313135353a20696e73756666696369656e742062616c616e636520666f60008201527f72207472616e7366657200000000000000000000000000000000000000000000602082015250565b6000613866602a8361242c565b91506138718261380a565b604082019050919050565b6000602082019050818103600083015261389581613859565b9050919050565b600060408201905081810360008301526138b68185612b7d565b905081810360208301526138ca8184612b7d565b90509392505050565b7f455243313135353a206d696e7420746f20746865207a65726f2061646472657360008201527f7300000000000000000000000000000000000000000000000000000000000000602082015250565b600061392f60218361242c565b915061393a826138d3565b604082019050919050565b6000602082019050818103600083015261395e81613922565b9050919050565b7f455243313135353a2073657474696e6720617070726f76616c2073746174757360008201527f20666f722073656c660000000000000000000000000000000000000000000000602082015250565b60006139c160298361242c565b91506139cc82613965565b604082019050919050565b600060208201905081810360008301526139f0816139b4565b9050919050565b6000604082019050613a0c600083018561233c565b613a19602083018461233c565b9392505050565b600081519050919050565b600082825260208201905092915050565b6000613a4782613a20565b613a518185613a2b565b9350613a6181856020860161243d565b613a6a81612470565b840191505092915050565b600060a082019050613a8a6000830188612d2b565b613a976020830187612d2b565b8181036040830152613aa98186612b7d565b90508181036060830152613abd8185612b7d565b90508181036080830152613ad18184613a3c565b90509695505050505050565b600081519050613aec81612392565b92915050565b600060208284031215613b0857613b0761225e565b5b6000613b1684828501613add565b91505092915050565b60008160e01c9050919050565b600060033d1115613b4b5760046000803e613b48600051613b1f565b90505b90565b600060443d1015613b5e57613be1565b613b66612254565b60043d036004823e80513d602482011167ffffffffffffffff82111715613b8e575050613be1565b808201805167ffffffffffffffff811115613bac5750505050613be1565b80602083010160043d038501811115613bc9575050505050613be1565b613bd88260200185018661253d565b82955050505050505b90565b7f455243313135353a207472616e7366657220746f206e6f6e204552433131353560008201527f526563656976657220696d706c656d656e746572000000000000000000000000602082015250565b6000613c4060348361242c565b9150613c4b82613be4565b604082019050919050565b60006020820190508181036000830152613c6f81613c33565b9050919050565b7f455243313135353a204552433131353552656365697665722072656a6563746560008201527f6420746f6b656e73000000000000000000000000000000000000000000000000602082015250565b6000613cd260288361242c565b9150613cdd82613c76565b604082019050919050565b60006020820190508181036000830152613d0181613cc5565b9050919050565b600060a082019050613d1d6000830188612d2b565b613d2a6020830187612d2b565b613d37604083018661233c565b613d44606083018561233c565b8181036080830152613d568184613a3c565b9050969550505050505056fea2646970667358221220059b8ee24996cc1ecd0a321b4c40f601e6cc779a232b0a2428bb1e1540d89d6464736f6c634300080c0033",
  "immutableReferences": {},
  "source": "pragma solidity ^0.8.0;\n\nimport \"@openzeppelin/contracts/utils/Context.sol\";\nimport \"@openzeppelin/contracts/token/ERC1155/ERC1155.sol\";\nimport \"@openzeppelin/contracts/access/Ownable.sol\";\n\ncontract RustToken1155 is Context, ERC1155, Ownable {\n    mapping(string => uint256) private _name2token;\n    mapping(uint256 => string) private _token2name;\n    uint256 _localTokenId = 1;\n    string _tokenBaseURI = \"\";\n\n    string public name = \"RustToken1155\";\n    string public symbol = \"RT\";\n\n    constructor() ERC1155(\"\") {}\n\n    function setTokenBaseURI(string memory baseURI) public onlyOwner {\n        require(bytes(baseURI).length > 0, \"should set not empty base url\");\n        _tokenBaseURI = baseURI;\n    }\n\n    function mint(\n        address to,\n        string memory tokenName,\n        uint256 amount\n    ) public virtual onlyOwner {\n        require(_name2token[tokenName] == 0, \"already mint\");\n\n        uint256 tokenId = _localTokenId;\n        _name2token[tokenName] = tokenId;\n        _token2name[tokenId] = tokenName;\n        _mint(to, tokenId, amount, \"\");\n\n        _localTokenId += 1;\n    }\n\n    function mintBatch(\n        address to,\n        string[] memory tokenNames,\n        uint256[] memory amounts\n    ) public {\n        require(tokenNames.length <= 10);\n\n        uint256[] memory tokenIds = new uint256[](tokenNames.length);\n        for (uint256 i = 0; i < tokenNames.length; i++) {\n            string memory tokenName = tokenNames[i];\n            require(_name2token[tokenName] == 0, \"already mint\");\n\n            uint256 tokenId = _localTokenId;\n            _name2token[tokenName] = tokenId;\n            _token2name[tokenId] = tokenName;\n            tokenIds[i] = tokenId;\n\n            _localTokenId += 1;\n        }\n\n        _mintBatch(to, tokenIds, amounts, \"\");\n    }\n\n    function uri(uint256 tokenId)\n        public\n        view\n        virtual\n        override\n        returns (string memory)\n    {\n        string memory tokenName = _token2name[tokenId];\n        return\n            string(\n                abi.encodePacked(\n                    _tokenBaseURI,\n                    \"/\",\n                    tokenName,\n                    \".metadata.json\"\n                )\n            );\n    }\n\n    function currentSupply() public view virtual returns (uint256) {\n        return _localTokenId - 1;\n    }\n\n    function usedTokenNames() public view virtual returns (string[] memory) {\n        if (_localTokenId == 1) {\n            return new string[](0);\n        }\n        uint256 len = _localTokenId - 1;\n        string[] memory names = new string[](len);\n        for (uint256 i = 0; i < len; i++) {\n            names[i] = _token2name[i + 1];\n        }\n        return names;\n    }\n}\n",
  "sourcePath": "/Users/akiho/Applications/web3/rust-opensea/ethereum/contracts/ERC1155.sol",
  "compiler": {
    "name": "solc",
    "version": "0.8.12+commit.f00d7308.Emscripten.clang"
  },
  "schemaVersion": "3.4.6",
  "updatedAt": "2022-03-17T02:08:49.322Z",
  "networkType": "ethereum",
  "devdoc": {
    "kind": "dev",
    "methods": {
      "balanceOf(address,uint256)": {
        "details": "See {IERC1155-balanceOf}. Requirements: - `account` cannot be the zero address."
      },
      "balanceOfBatch(address[],uint256[])": {
        "details": "See {IERC1155-balanceOfBatch}. Requirements: - `accounts` and `ids` must have the same length."
      },
      "isApprovedForAll(address,address)": {
        "details": "See {IERC1155-isApprovedForAll}."
      },
      "owner()": {
        "details": "Returns the address of the current owner."
      },
      "renounceOwnership()": {
        "details": "Leaves the contract without owner. It will not be possible to call `onlyOwner` functions anymore. Can only be called by the current owner. NOTE: Renouncing ownership will leave the contract without an owner, thereby removing any functionality that is only available to the owner."
      },
      "safeBatchTransferFrom(address,address,uint256[],uint256[],bytes)": {
        "details": "See {IERC1155-safeBatchTransferFrom}."
      },
      "safeTransferFrom(address,address,uint256,uint256,bytes)": {
        "details": "See {IERC1155-safeTransferFrom}."
      },
      "setApprovalForAll(address,bool)": {
        "details": "See {IERC1155-setApprovalForAll}."
      },
      "supportsInterface(bytes4)": {
        "details": "See {IERC165-supportsInterface}."
      },
      "transferOwnership(address)": {
        "details": "Transfers ownership of the contract to a new account (`newOwner`). Can only be called by the current owner."
      }
    },
    "version": 1
  },
  "userdoc": {
    "kind": "user",
    "methods": {},
    "version": 1
  }
}