{
  "contractName": "RustToken1155",
  "abi": [
    {
      "inputs": [],
      "stateMutability": "nonpayable",
      "type": "constructor"
    },
    {
      "anonymous": false,
      "inputs": [
        {
          "indexed": true,
          "internalType": "address",
          "name": "account",
          "type": "address"
        },
        {
          "indexed": true,
          "internalType": "address",
          "name": "operator",
          "type": "address"
        },
        {
          "indexed": false,
          "internalType": "bool",
          "name": "approved",
          "type": "bool"
        }
      ],
      "name": "ApprovalForAll",
      "type": "event"
    },
    {
      "anonymous": false,
      "inputs": [
        {
          "indexed": true,
          "internalType": "address",
          "name": "previousOwner",
          "type": "address"
        },
        {
          "indexed": true,
          "internalType": "address",
          "name": "newOwner",
          "type": "address"
        }
      ],
      "name": "OwnershipTransferred",
      "type": "event"
    },
    {
      "anonymous": false,
      "inputs": [
        {
          "indexed": true,
          "internalType": "address",
          "name": "operator",
          "type": "address"
        },
        {
          "indexed": true,
          "internalType": "address",
          "name": "from",
          "type": "address"
        },
        {
          "indexed": true,
          "internalType": "address",
          "name": "to",
          "type": "address"
        },
        {
          "indexed": false,
          "internalType": "uint256[]",
          "name": "ids",
          "type": "uint256[]"
        },
        {
          "indexed": false,
          "internalType": "uint256[]",
          "name": "values",
          "type": "uint256[]"
        }
      ],
      "name": "TransferBatch",
      "type": "event"
    },
    {
      "anonymous": false,
      "inputs": [
        {
          "indexed": true,
          "internalType": "address",
          "name": "operator",
          "type": "address"
        },
        {
          "indexed": true,
          "internalType": "address",
          "name": "from",
          "type": "address"
        },
        {
          "indexed": true,
          "internalType": "address",
          "name": "to",
          "type": "address"
        },
        {
          "indexed": false,
          "internalType": "uint256",
          "name": "id",
          "type": "uint256"
        },
        {
          "indexed": false,
          "internalType": "uint256",
          "name": "value",
          "type": "uint256"
        }
      ],
      "name": "TransferSingle",
      "type": "event"
    },
    {
      "anonymous": false,
      "inputs": [
        {
          "indexed": false,
          "internalType": "string",
          "name": "value",
          "type": "string"
        },
        {
          "indexed": true,
          "internalType": "uint256",
          "name": "id",
          "type": "uint256"
        }
      ],
      "name": "URI",
      "type": "event"
    },
    {
      "inputs": [
        {
          "internalType": "address",
          "name": "account",
          "type": "address"
        },
        {
          "internalType": "uint256",
          "name": "id",
          "type": "uint256"
        }
      ],
      "name": "balanceOf",
      "outputs": [
        {
          "internalType": "uint256",
          "name": "",
          "type": "uint256"
        }
      ],
      "stateMutability": "view",
      "type": "function",
      "constant": true
    },
    {
      "inputs": [
        {
          "internalType": "address[]",
          "name": "accounts",
          "type": "address[]"
        },
        {
          "internalType": "uint256[]",
          "name": "ids",
          "type": "uint256[]"
        }
      ],
      "name": "balanceOfBatch",
      "outputs": [
        {
          "internalType": "uint256[]",
          "name": "",
          "type": "uint256[]"
        }
      ],
      "stateMutability": "view",
      "type": "function",
      "constant": true
    },
    {
      "inputs": [
        {
          "internalType": "address",
          "name": "account",
          "type": "address"
        },
        {
          "internalType": "address",
          "name": "operator",
          "type": "address"
        }
      ],
      "name": "isApprovedForAll",
      "outputs": [
        {
          "internalType": "bool",
          "name": "",
          "type": "bool"
        }
      ],
      "stateMutability": "view",
      "type": "function",
      "constant": true
    },
    {
      "inputs": [],
      "name": "name",
      "outputs": [
        {
          "internalType": "string",
          "name": "",
          "type": "string"
        }
      ],
      "stateMutability": "view",
      "type": "function",
      "constant": true
    },
    {
      "inputs": [],
      "name": "owner",
      "outputs": [
        {
          "internalType": "address",
          "name": "",
          "type": "address"
        }
      ],
      "stateMutability": "view",
      "type": "function",
      "constant": true
    },
    {
      "inputs": [],
      "name": "renounceOwnership",
      "outputs": [],
      "stateMutability": "nonpayable",
      "type": "function"
    },
    {
      "inputs": [
        {
          "internalType": "address",
          "name": "from",
          "type": "address"
        },
        {
          "internalType": "address",
          "name": "to",
          "type": "address"
        },
        {
          "internalType": "uint256[]",
          "name": "ids",
          "type": "uint256[]"
        },
        {
          "internalType": "uint256[]",
          "name": "amounts",
          "type": "uint256[]"
        },
        {
          "internalType": "bytes",
          "name": "data",
          "type": "bytes"
        }
      ],
      "name": "safeBatchTransferFrom",
      "outputs": [],
      "stateMutability": "nonpayable",
      "type": "function"
    },
    {
      "inputs": [
        {
          "internalType": "address",
          "name": "from",
          "type": "address"
        },
        {
          "internalType": "address",
          "name": "to",
          "type": "address"
        },
        {
          "internalType": "uint256",
          "name": "id",
          "type": "uint256"
        },
        {
          "internalType": "uint256",
          "name": "amount",
          "type": "uint256"
        },
        {
          "internalType": "bytes",
          "name": "data",
          "type": "bytes"
        }
      ],
      "name": "safeTransferFrom",
      "outputs": [],
      "stateMutability": "nonpayable",
      "type": "function"
    },
    {
      "inputs": [
        {
          "internalType": "address",
          "name": "operator",
          "type": "address"
        },
        {
          "internalType": "bool",
          "name": "approved",
          "type": "bool"
        }
      ],
      "name": "setApprovalForAll",
      "outputs": [],
      "stateMutability": "nonpayable",
      "type": "function"
    },
    {
      "inputs": [
        {
          "internalType": "bytes4",
          "name": "interfaceId",
          "type": "bytes4"
        }
      ],
      "name": "supportsInterface",
      "outputs": [
        {
          "internalType": "bool",
          "name": "",
          "type": "bool"
        }
      ],
      "stateMutability": "view",
      "type": "function",
      "constant": true
    },
    {
      "inputs": [],
      "name": "symbol",
      "outputs": [
        {
          "internalType": "string",
          "name": "",
          "type": "string"
        }
      ],
      "stateMutability": "view",
      "type": "function",
      "constant": true
    },
    {
      "inputs": [
        {
          "internalType": "address",
          "name": "newOwner",
          "type": "address"
        }
      ],
      "name": "transferOwnership",
      "outputs": [],
      "stateMutability": "nonpayable",
      "type": "function"
    },
    {
      "inputs": [
        {
          "internalType": "string",
          "name": "baseURI",
          "type": "string"
        }
      ],
      "name": "setTokenBaseURI",
      "outputs": [],
      "stateMutability": "nonpayable",
      "type": "function"
    },
    {
      "inputs": [
        {
          "internalType": "address",
          "name": "to",
          "type": "address"
        },
        {
          "internalType": "string",
          "name": "tokenName",
          "type": "string"
        },
        {
          "internalType": "uint256",
          "name": "amount",
          "type": "uint256"
        }
      ],
      "name": "mint",
      "outputs": [],
      "stateMutability": "nonpayable",
      "type": "function"
    },
    {
      "inputs": [
        {
          "internalType": "address",
          "name": "to",
          "type": "address"
        },
        {
          "internalType": "string[]",
          "name": "tokenNames",
          "type": "string[]"
        },
        {
          "internalType": "uint256[]",
          "name": "amounts",
          "type": "uint256[]"
        }
      ],
      "name": "mintBatch",
      "outputs": [],
      "stateMutability": "nonpayable",
      "type": "function"
    },
    {
      "inputs": [],
      "name": "tokenBaseURI",
      "outputs": [
        {
          "internalType": "string",
          "name": "",
          "type": "string"
        }
      ],
      "stateMutability": "view",
      "type": "function",
      "constant": true
    },
    {
      "inputs": [
        {
          "internalType": "uint256",
          "name": "tokenId",
          "type": "uint256"
        }
      ],
      "name": "uri",
      "outputs": [
        {
          "internalType": "string",
          "name": "",
          "type": "string"
        }
      ],
      "stateMutability": "view",
      "type": "function",
      "constant": true
    },
    {
      "inputs": [],
      "name": "currentSupply",
      "outputs": [
        {
          "internalType": "uint256",
          "name": "",
          "type": "uint256"
        }
      ],
      "stateMutability": "view",
      "type": "function",
      "constant": true
    },
    {
      "inputs": [],
      "name": "usedTokenNames",
      "outputs": [
        {
          "internalType": "string[]",
          "name": "",
          "type": "string[]"
        }
      ],
      "stateMutability": "view",
      "type": "function",
      "constant": true
    }
  ],
  "bytecode": "0x608060405260016006556040518060200160405280600081525060079080519060200190620000309291906200020d565b506040518060400160405280600d81526020017f52757374546f6b656e3131353500000000000000000000000000000000000000815250600890805190602001906200007e9291906200020d565b506040518060400160405280600281526020017f525400000000000000000000000000000000000000000000000000000000000081525060099080519060200190620000cc9291906200020d565b50348015620000da57600080fd5b5060405180602001604052806000815250620000fc816200012360201b60201c565b506200011d620001116200013f60201b60201c565b6200014760201b60201c565b62000322565b80600290805190602001906200013b9291906200020d565b5050565b600033905090565b6000600360009054906101000a900473ffffffffffffffffffffffffffffffffffffffff16905081600360006101000a81548173ffffffffffffffffffffffffffffffffffffffff021916908373ffffffffffffffffffffffffffffffffffffffff1602179055508173ffffffffffffffffffffffffffffffffffffffff168173ffffffffffffffffffffffffffffffffffffffff167f8be0079c531659141344cd1fd0a4f28419497f9722a3daafe3b4186f6b6457e060405160405180910390a35050565b8280546200021b90620002ec565b90600052602060002090601f0160209004810192826200023f57600085556200028b565b82601f106200025a57805160ff19168380011785556200028b565b828001600101855582156200028b579182015b828111156200028a5782518255916020019190600101906200026d565b5b5090506200029a91906200029e565b5090565b5b80821115620002b95760008160009055506001016200029f565b5090565b7f4e487b7100000000000000000000000000000000000000000000000000000000600052602260045260246000fd5b600060028204905060018216806200030557607f821691505b602082108114156200031c576200031b620002bd565b5b50919050565b613e5380620003326000396000f3fe608060405234801561001057600080fd5b50600436106101205760003560e01c8063715018a6116100ad578063a22cb46511610071578063a22cb465146102f7578063ba7aef4314610313578063e985e9c51461032f578063f242432a1461035f578063f2fde38b1461037b57610120565b8063715018a614610277578063771282f6146102815780638da5cb5b1461029f5780638ef79e91146102bd57806395d89b41146102d957610120565b80632eb2c2d6116100f45780632eb2c2d6146101d35780634d8437d8146101ef5780634e1273f41461020b5780634e99b8001461023b578063713805da1461025957610120565b8062fdd58e1461012557806301ffc9a71461015557806306fdde03146101855780630e89341c146101a3575b600080fd5b61013f600480360381019061013a91906123b7565b610397565b60405161014c9190612406565b60405180910390f35b61016f600480360381019061016a9190612479565b610460565b60405161017c91906124c1565b60405180910390f35b61018d610542565b60405161019a9190612575565b60405180910390f35b6101bd60048036038101906101b89190612597565b6105d0565b6040516101ca9190612575565b60405180910390f35b6101ed60048036038101906101e891906127c1565b61069d565b005b61020960048036038101906102049190612a12565b61073e565b005b61022560048036038101906102209190612b60565b6108ea565b6040516102329190612c96565b60405180910390f35b610243610a03565b6040516102509190612575565b60405180910390f35b610261610a95565b60405161026e9190612dc4565b60405180910390f35b61027f610c4b565b005b610289610cd3565b6040516102969190612406565b60405180910390f35b6102a7610ce9565b6040516102b49190612df5565b60405180910390f35b6102d760048036038101906102d29190612e10565b610d13565b005b6102e1610ded565b6040516102ee9190612575565b60405180910390f35b610311600480360381019061030c9190612e85565b610e7b565b005b61032d60048036038101906103289190612ec5565b610e91565b005b61034960048036038101906103449190612f34565b610ffb565b60405161035691906124c1565b60405180910390f35b61037960048036038101906103749190612f74565b61108f565b005b6103956004803603810190610390919061300b565b611130565b005b60008073ffffffffffffffffffffffffffffffffffffffff168373ffffffffffffffffffffffffffffffffffffffff161415610408576040517f08c379a00000000000000000000000000000000000000000000000000000000081526004016103ff906130aa565b60405180910390fd5b60008083815260200190815260200160002060008473ffffffffffffffffffffffffffffffffffffffff1673ffffffffffffffffffffffffffffffffffffffff16815260200190815260200160002054905092915050565b60007fd9b67a26000000000000000000000000000000000000000000000000000000007bffffffffffffffffffffffffffffffffffffffffffffffffffffffff1916827bffffffffffffffffffffffffffffffffffffffffffffffffffffffff1916148061052b57507f0e89341c000000000000000000000000000000000000000000000000000000007bffffffffffffffffffffffffffffffffffffffffffffffffffffffff1916827bffffffffffffffffffffffffffffffffffffffffffffffffffffffff1916145b8061053b575061053a82611228565b5b9050919050565b6008805461054f906130f9565b80601f016020809104026020016040519081016040528092919081815260200182805461057b906130f9565b80156105c85780601f1061059d576101008083540402835291602001916105c8565b820191906000526020600020905b8154815290600101906020018083116105ab57829003601f168201915b505050505081565b606060006005600084815260200190815260200160002080546105f2906130f9565b80601f016020809104026020016040519081016040528092919081815260200182805461061e906130f9565b801561066b5780601f106106405761010080835404028352916020019161066b565b820191906000526020600020905b81548152906001019060200180831161064e57829003601f168201915b50505050509050600781604051602001610686929190613293565b604051602081830303815290604052915050919050565b6106a5611292565b73ffffffffffffffffffffffffffffffffffffffff168573ffffffffffffffffffffffffffffffffffffffff1614806106eb57506106ea856106e5611292565b610ffb565b5b61072a576040517f08c379a00000000000000000000000000000000000000000000000000000000081526004016107219061333f565b60405180910390fd5b610737858585858561129a565b5050505050565b600a8251111561074d57600080fd5b6000825167ffffffffffffffff81111561076a576107696125c9565b5b6040519080825280602002602001820160405280156107985781602001602082028036833780820191505090505b50905060005b83518110156108c85760008482815181106107bc576107bb61335f565b5b6020026020010151905060006004826040516107d8919061338e565b90815260200160405180910390205414610827576040517f08c379a000000000000000000000000000000000000000000000000000000000815260040161081e906133f1565b60405180910390fd5b600060065490508060048360405161083f919061338e565b9081526020016040518091039020819055508160056000838152602001908152602001600020908051906020019061087892919061226c565b508084848151811061088d5761088c61335f565b5b6020026020010181815250506001600660008282546108ac9190613440565b92505081905550505080806108c090613496565b91505061079e565b506108e4848284604051806020016040528060008152506115ae565b50505050565b60608151835114610930576040517f08c379a000000000000000000000000000000000000000000000000000000000815260040161092790613551565b60405180910390fd5b6000835167ffffffffffffffff81111561094d5761094c6125c9565b5b60405190808252806020026020018201604052801561097b5781602001602082028036833780820191505090505b50905060005b84518110156109f8576109c88582815181106109a05761099f61335f565b5b60200260200101518583815181106109bb576109ba61335f565b5b6020026020010151610397565b8282815181106109db576109da61335f565b5b602002602001018181525050806109f190613496565b9050610981565b508091505092915050565b606060078054610a12906130f9565b80601f0160208091040260200160405190810160405280929190818152602001828054610a3e906130f9565b8015610a8b5780601f10610a6057610100808354040283529160200191610a8b565b820191906000526020600020905b815481529060010190602001808311610a6e57829003601f168201915b5050505050905090565b606060016006541415610af857600067ffffffffffffffff811115610abd57610abc6125c9565b5b604051908082528060200260200182016040528015610af057816020015b6060815260200190600190039081610adb5790505b509050610c48565b60006001600654610b099190613571565b905060008167ffffffffffffffff811115610b2757610b266125c9565b5b604051908082528060200260200182016040528015610b5a57816020015b6060815260200190600190039081610b455790505b50905060005b82811015610c415760056000600183610b799190613440565b81526020019081526020016000208054610b92906130f9565b80601f0160208091040260200160405190810160405280929190818152602001828054610bbe906130f9565b8015610c0b5780601f10610be057610100808354040283529160200191610c0b565b820191906000526020600020905b815481529060010190602001808311610bee57829003601f168201915b5050505050828281518110610c2357610c2261335f565b5b60200260200101819052508080610c3990613496565b915050610b60565b5080925050505b90565b610c53611292565b73ffffffffffffffffffffffffffffffffffffffff16610c71610ce9565b73ffffffffffffffffffffffffffffffffffffffff1614610cc7576040517f08c379a0000000000000000000000000000000000000000000000000000000008152600401610cbe906135f1565b60405180910390fd5b610cd160006117cc565b565b60006001600654610ce49190613571565b905090565b6000600360009054906101000a900473ffffffffffffffffffffffffffffffffffffffff16905090565b610d1b611292565b73ffffffffffffffffffffffffffffffffffffffff16610d39610ce9565b73ffffffffffffffffffffffffffffffffffffffff1614610d8f576040517f08c379a0000000000000000000000000000000000000000000000000000000008152600401610d86906135f1565b60405180910390fd5b6000815111610dd3576040517f08c379a0000000000000000000000000000000000000000000000000000000008152600401610dca9061365d565b60405180910390fd5b8060079080519060200190610de992919061226c565b5050565b60098054610dfa906130f9565b80601f0160208091040260200160405190810160405280929190818152602001828054610e26906130f9565b8015610e735780601f10610e4857610100808354040283529160200191610e73565b820191906000526020600020905b815481529060010190602001808311610e5657829003601f168201915b505050505081565b610e8d610e86611292565b8383611892565b5050565b610e99611292565b73ffffffffffffffffffffffffffffffffffffffff16610eb7610ce9565b73ffffffffffffffffffffffffffffffffffffffff1614610f0d576040517f08c379a0000000000000000000000000000000000000000000000000000000008152600401610f04906135f1565b60405180910390fd5b6000600483604051610f1f919061338e565b90815260200160405180910390205414610f6e576040517f08c379a0000000000000000000000000000000000000000000000000000000008152600401610f65906133f1565b60405180910390fd5b6000600654905080600484604051610f86919061338e565b90815260200160405180910390208190555082600560008381526020019081526020016000209080519060200190610fbf92919061226c565b50610fdb848284604051806020016040528060008152506119ff565b600160066000828254610fee9190613440565b9250508190555050505050565b6000600160008473ffffffffffffffffffffffffffffffffffffffff1673ffffffffffffffffffffffffffffffffffffffff16815260200190815260200160002060008373ffffffffffffffffffffffffffffffffffffffff1673ffffffffffffffffffffffffffffffffffffffff16815260200190815260200160002060009054906101000a900460ff16905092915050565b611097611292565b73ffffffffffffffffffffffffffffffffffffffff168573ffffffffffffffffffffffffffffffffffffffff1614806110dd57506110dc856110d7611292565b610ffb565b5b61111c576040517f08c379a0000000000000000000000000000000000000000000000000000000008152600401611113906136ef565b60405180910390fd5b6111298585858585611b95565b5050505050565b611138611292565b73ffffffffffffffffffffffffffffffffffffffff16611156610ce9565b73ffffffffffffffffffffffffffffffffffffffff16146111ac576040517f08c379a00000000000000000000000000000000000000000000000000000000081526004016111a3906135f1565b60405180910390fd5b600073ffffffffffffffffffffffffffffffffffffffff168173ffffffffffffffffffffffffffffffffffffffff16141561121c576040517f08c379a000000000000000000000000000000000000000000000000000000000815260040161121390613781565b60405180910390fd5b611225816117cc565b50565b60007f01ffc9a7000000000000000000000000000000000000000000000000000000007bffffffffffffffffffffffffffffffffffffffffffffffffffffffff1916827bffffffffffffffffffffffffffffffffffffffffffffffffffffffff1916149050919050565b600033905090565b81518351146112de576040517f08c379a00000000000000000000000000000000000000000000000000000000081526004016112d590613813565b60405180910390fd5b600073ffffffffffffffffffffffffffffffffffffffff168473ffffffffffffffffffffffffffffffffffffffff16141561134e576040517f08c379a0000000000000000000000000000000000000000000000000000000008152600401611345906138a5565b60405180910390fd5b6000611358611292565b9050611368818787878787611e17565b60005b84518110156115195760008582815181106113895761138861335f565b5b6020026020010151905060008583815181106113a8576113a761335f565b5b60200260200101519050600080600084815260200190815260200160002060008b73ffffffffffffffffffffffffffffffffffffffff1673ffffffffffffffffffffffffffffffffffffffff16815260200190815260200160002054905081811015611449576040517f08c379a000000000000000000000000000000000000000000000000000000000815260040161144090613937565b60405180910390fd5b81810360008085815260200190815260200160002060008c73ffffffffffffffffffffffffffffffffffffffff1673ffffffffffffffffffffffffffffffffffffffff168152602001908152602001600020819055508160008085815260200190815260200160002060008b73ffffffffffffffffffffffffffffffffffffffff1673ffffffffffffffffffffffffffffffffffffffff16815260200190815260200160002060008282546114fe9190613440565b925050819055505050508061151290613496565b905061136b565b508473ffffffffffffffffffffffffffffffffffffffff168673ffffffffffffffffffffffffffffffffffffffff168273ffffffffffffffffffffffffffffffffffffffff167f4a39dc06d4c0dbc64b70af90fd698a233a518aa5d07e595d983b8c0526c8f7fb8787604051611590929190613957565b60405180910390a46115a6818787878787611e1f565b505050505050565b600073ffffffffffffffffffffffffffffffffffffffff168473ffffffffffffffffffffffffffffffffffffffff16141561161e576040517f08c379a000000000000000000000000000000000000000000000000000000000815260040161161590613a00565b60405180910390fd5b8151835114611662576040517f08c379a000000000000000000000000000000000000000000000000000000000815260040161165990613813565b60405180910390fd5b600061166c611292565b905061167d81600087878787611e17565b60005b84518110156117365783818151811061169c5761169b61335f565b5b60200260200101516000808784815181106116ba576116b961335f565b5b6020026020010151815260200190815260200160002060008873ffffffffffffffffffffffffffffffffffffffff1673ffffffffffffffffffffffffffffffffffffffff168152602001908152602001600020600082825461171c9190613440565b92505081905550808061172e90613496565b915050611680565b508473ffffffffffffffffffffffffffffffffffffffff16600073ffffffffffffffffffffffffffffffffffffffff168273ffffffffffffffffffffffffffffffffffffffff167f4a39dc06d4c0dbc64b70af90fd698a233a518aa5d07e595d983b8c0526c8f7fb87876040516117ae929190613957565b60405180910390a46117c581600087878787611e1f565b5050505050565b6000600360009054906101000a900473ffffffffffffffffffffffffffffffffffffffff16905081600360006101000a81548173ffffffffffffffffffffffffffffffffffffffff021916908373ffffffffffffffffffffffffffffffffffffffff1602179055508173ffffffffffffffffffffffffffffffffffffffff168173ffffffffffffffffffffffffffffffffffffffff167f8be0079c531659141344cd1fd0a4f28419497f9722a3daafe3b4186f6b6457e060405160405180910390a35050565b8173ffffffffffffffffffffffffffffffffffffffff168373ffffffffffffffffffffffffffffffffffffffff161415611901576040517f08c379a00000000000000000000000000000000000000000000000000000000081526004016118f890613a92565b60405180910390fd5b80600160008573ffffffffffffffffffffffffffffffffffffffff1673ffffffffffffffffffffffffffffffffffffffff16815260200190815260200160002060008473ffffffffffffffffffffffffffffffffffffffff1673ffffffffffffffffffffffffffffffffffffffff16815260200190815260200160002060006101000a81548160ff0219169083151502179055508173ffffffffffffffffffffffffffffffffffffffff168373ffffffffffffffffffffffffffffffffffffffff167f17307eab39ab6107e8899845ad3d59bd9653f200f220920489ca2b5937696c31836040516119f291906124c1565b60405180910390a3505050565b600073ffffffffffffffffffffffffffffffffffffffff168473ffffffffffffffffffffffffffffffffffffffff161415611a6f576040517f08c379a0000000000000000000000000000000000000000000000000000000008152600401611a6690613a00565b60405180910390fd5b6000611a79611292565b9050611a9a81600087611a8b88611ff7565b611a9488611ff7565b87611e17565b8260008086815260200190815260200160002060008773ffffffffffffffffffffffffffffffffffffffff1673ffffffffffffffffffffffffffffffffffffffff1681526020019081526020016000206000828254611af99190613440565b925050819055508473ffffffffffffffffffffffffffffffffffffffff16600073ffffffffffffffffffffffffffffffffffffffff168273ffffffffffffffffffffffffffffffffffffffff167fc3d58168c5ae7397731d063d5bbf3d657854427343f4c083240f7aacaa2d0f628787604051611b77929190613ab2565b60405180910390a4611b8e81600087878787612071565b5050505050565b600073ffffffffffffffffffffffffffffffffffffffff168473ffffffffffffffffffffffffffffffffffffffff161415611c05576040517f08c379a0000000000000000000000000000000000000000000000000000000008152600401611bfc906138a5565b60405180910390fd5b6000611c0f611292565b9050611c2f818787611c2088611ff7565b611c2988611ff7565b87611e17565b600080600086815260200190815260200160002060008873ffffffffffffffffffffffffffffffffffffffff1673ffffffffffffffffffffffffffffffffffffffff16815260200190815260200160002054905083811015611cc6576040517f08c379a0000000000000000000000000000000000000000000000000000000008152600401611cbd90613937565b60405180910390fd5b83810360008087815260200190815260200160002060008973ffffffffffffffffffffffffffffffffffffffff1673ffffffffffffffffffffffffffffffffffffffff168152602001908152602001600020819055508360008087815260200190815260200160002060008873ffffffffffffffffffffffffffffffffffffffff1673ffffffffffffffffffffffffffffffffffffffff1681526020019081526020016000206000828254611d7b9190613440565b925050819055508573ffffffffffffffffffffffffffffffffffffffff168773ffffffffffffffffffffffffffffffffffffffff168373ffffffffffffffffffffffffffffffffffffffff167fc3d58168c5ae7397731d063d5bbf3d657854427343f4c083240f7aacaa2d0f628888604051611df8929190613ab2565b60405180910390a4611e0e828888888888612071565b50505050505050565b505050505050565b611e3e8473ffffffffffffffffffffffffffffffffffffffff16612249565b15611fef578373ffffffffffffffffffffffffffffffffffffffff1663bc197c8187878686866040518663ffffffff1660e01b8152600401611e84959493929190613b30565b6020604051808303816000875af1925050508015611ec057506040513d601f19601f82011682018060405250810190611ebd9190613bad565b60015b611f6657611ecc613be7565b806308c379a01415611f295750611ee1613c09565b80611eec5750611f2b565b806040517f08c379a0000000000000000000000000000000000000000000000000000000008152600401611f209190612575565b60405180910390fd5b505b6040517f08c379a0000000000000000000000000000000000000000000000000000000008152600401611f5d90613d11565b60405180910390fd5b63bc197c8160e01b7bffffffffffffffffffffffffffffffffffffffffffffffffffffffff1916817bffffffffffffffffffffffffffffffffffffffffffffffffffffffff191614611fed576040517f08c379a0000000000000000000000000000000000000000000000000000000008152600401611fe490613da3565b60405180910390fd5b505b505050505050565b60606000600167ffffffffffffffff811115612016576120156125c9565b5b6040519080825280602002602001820160405280156120445781602001602082028036833780820191505090505b509050828160008151811061205c5761205b61335f565b5b60200260200101818152505080915050919050565b6120908473ffffffffffffffffffffffffffffffffffffffff16612249565b15612241578373ffffffffffffffffffffffffffffffffffffffff1663f23a6e6187878686866040518663ffffffff1660e01b81526004016120d6959493929190613dc3565b6020604051808303816000875af192505050801561211257506040513d601f19601f8201168201806040525081019061210f9190613bad565b60015b6121b85761211e613be7565b806308c379a0141561217b5750612133613c09565b8061213e575061217d565b806040517f08c379a00000000000000000000000000000000000000000000000000000000081526004016121729190612575565b60405180910390fd5b505b6040517f08c379a00000000000000000000000000000000000000000000000000000000081526004016121af90613d11565b60405180910390fd5b63f23a6e6160e01b7bffffffffffffffffffffffffffffffffffffffffffffffffffffffff1916817bffffffffffffffffffffffffffffffffffffffffffffffffffffffff19161461223f576040517f08c379a000000000000000000000000000000000000000000000000000000000815260040161223690613da3565b60405180910390fd5b505b505050505050565b6000808273ffffffffffffffffffffffffffffffffffffffff163b119050919050565b828054612278906130f9565b90600052602060002090601f01602090048101928261229a57600085556122e1565b82601f106122b357805160ff19168380011785556122e1565b828001600101855582156122e1579182015b828111156122e05782518255916020019190600101906122c5565b5b5090506122ee91906122f2565b5090565b5b8082111561230b5760008160009055506001016122f3565b5090565b6000604051905090565b600080fd5b600080fd5b600073ffffffffffffffffffffffffffffffffffffffff82169050919050565b600061234e82612323565b9050919050565b61235e81612343565b811461236957600080fd5b50565b60008135905061237b81612355565b92915050565b6000819050919050565b61239481612381565b811461239f57600080fd5b50565b6000813590506123b18161238b565b92915050565b600080604083850312156123ce576123cd612319565b5b60006123dc8582860161236c565b92505060206123ed858286016123a2565b9150509250929050565b61240081612381565b82525050565b600060208201905061241b60008301846123f7565b92915050565b60007fffffffff0000000000000000000000000000000000000000000000000000000082169050919050565b61245681612421565b811461246157600080fd5b50565b6000813590506124738161244d565b92915050565b60006020828403121561248f5761248e612319565b5b600061249d84828501612464565b91505092915050565b60008115159050919050565b6124bb816124a6565b82525050565b60006020820190506124d660008301846124b2565b92915050565b600081519050919050565b600082825260208201905092915050565b60005b838110156125165780820151818401526020810190506124fb565b83811115612525576000848401525b50505050565b6000601f19601f8301169050919050565b6000612547826124dc565b61255181856124e7565b93506125618185602086016124f8565b61256a8161252b565b840191505092915050565b6000602082019050818103600083015261258f818461253c565b905092915050565b6000602082840312156125ad576125ac612319565b5b60006125bb848285016123a2565b91505092915050565b600080fd5b7f4e487b7100000000000000000000000000000000000000000000000000000000600052604160045260246000fd5b6126018261252b565b810181811067ffffffffffffffff821117156126205761261f6125c9565b5b80604052505050565b600061263361230f565b905061263f82826125f8565b919050565b600067ffffffffffffffff82111561265f5761265e6125c9565b5b602082029050602081019050919050565b600080fd5b600061268861268384612644565b612629565b905080838252602082019050602084028301858111156126ab576126aa612670565b5b835b818110156126d457806126c088826123a2565b8452602084019350506020810190506126ad565b5050509392505050565b600082601f8301126126f3576126f26125c4565b5b8135612703848260208601612675565b91505092915050565b600080fd5b600067ffffffffffffffff82111561272c5761272b6125c9565b5b6127358261252b565b9050602081019050919050565b82818337600083830152505050565b600061276461275f84612711565b612629565b9050828152602081018484840111156127805761277f61270c565b5b61278b848285612742565b509392505050565b600082601f8301126127a8576127a76125c4565b5b81356127b8848260208601612751565b91505092915050565b600080600080600060a086880312156127dd576127dc612319565b5b60006127eb8882890161236c565b95505060206127fc8882890161236c565b945050604086013567ffffffffffffffff81111561281d5761281c61231e565b5b612829888289016126de565b935050606086013567ffffffffffffffff81111561284a5761284961231e565b5b612856888289016126de565b925050608086013567ffffffffffffffff8111156128775761287661231e565b5b61288388828901612793565b9150509295509295909350565b600067ffffffffffffffff8211156128ab576128aa6125c9565b5b602082029050602081019050919050565b600067ffffffffffffffff8211156128d7576128d66125c9565b5b6128e08261252b565b9050602081019050919050565b60006129006128fb846128bc565b612629565b90508281526020810184848401111561291c5761291b61270c565b5b612927848285612742565b509392505050565b600082601f830112612944576129436125c4565b5b81356129548482602086016128ed565b91505092915050565b600061297061296b84612890565b612629565b9050808382526020820190506020840283018581111561299357612992612670565b5b835b818110156129da57803567ffffffffffffffff8111156129b8576129b76125c4565b5b8086016129c5898261292f565b85526020850194505050602081019050612995565b5050509392505050565b600082601f8301126129f9576129f86125c4565b5b8135612a0984826020860161295d565b91505092915050565b600080600060608486031215612a2b57612a2a612319565b5b6000612a398682870161236c565b935050602084013567ffffffffffffffff811115612a5a57612a5961231e565b5b612a66868287016129e4565b925050604084013567ffffffffffffffff811115612a8757612a8661231e565b5b612a93868287016126de565b9150509250925092565b600067ffffffffffffffff821115612ab857612ab76125c9565b5b602082029050602081019050919050565b6000612adc612ad784612a9d565b612629565b90508083825260208201905060208402830185811115612aff57612afe612670565b5b835b81811015612b285780612b14888261236c565b845260208401935050602081019050612b01565b5050509392505050565b600082601f830112612b4757612b466125c4565b5b8135612b57848260208601612ac9565b91505092915050565b60008060408385031215612b7757612b76612319565b5b600083013567ffffffffffffffff811115612b9557612b9461231e565b5b612ba185828601612b32565b925050602083013567ffffffffffffffff811115612bc257612bc161231e565b5b612bce858286016126de565b9150509250929050565b600081519050919050565b600082825260208201905092915050565b6000819050602082019050919050565b612c0d81612381565b82525050565b6000612c1f8383612c04565b60208301905092915050565b6000602082019050919050565b6000612c4382612bd8565b612c4d8185612be3565b9350612c5883612bf4565b8060005b83811015612c89578151612c708882612c13565b9750612c7b83612c2b565b925050600181019050612c5c565b5085935050505092915050565b60006020820190508181036000830152612cb08184612c38565b905092915050565b600081519050919050565b600082825260208201905092915050565b6000819050602082019050919050565b600082825260208201905092915050565b6000612d00826124dc565b612d0a8185612ce4565b9350612d1a8185602086016124f8565b612d238161252b565b840191505092915050565b6000612d3a8383612cf5565b905092915050565b6000602082019050919050565b6000612d5a82612cb8565b612d648185612cc3565b935083602082028501612d7685612cd4565b8060005b85811015612db25784840389528151612d938582612d2e565b9450612d9e83612d42565b925060208a01995050600181019050612d7a565b50829750879550505050505092915050565b60006020820190508181036000830152612dde8184612d4f565b905092915050565b612def81612343565b82525050565b6000602082019050612e0a6000830184612de6565b92915050565b600060208284031215612e2657612e25612319565b5b600082013567ffffffffffffffff811115612e4457612e4361231e565b5b612e508482850161292f565b91505092915050565b612e62816124a6565b8114612e6d57600080fd5b50565b600081359050612e7f81612e59565b92915050565b60008060408385031215612e9c57612e9b612319565b5b6000612eaa8582860161236c565b9250506020612ebb85828601612e70565b9150509250929050565b600080600060608486031215612ede57612edd612319565b5b6000612eec8682870161236c565b935050602084013567ffffffffffffffff811115612f0d57612f0c61231e565b5b612f198682870161292f565b9250506040612f2a868287016123a2565b9150509250925092565b60008060408385031215612f4b57612f4a612319565b5b6000612f598582860161236c565b9250506020612f6a8582860161236c565b9150509250929050565b600080600080600060a08688031215612f9057612f8f612319565b5b6000612f9e8882890161236c565b9550506020612faf8882890161236c565b9450506040612fc0888289016123a2565b9350506060612fd1888289016123a2565b925050608086013567ffffffffffffffff811115612ff257612ff161231e565b5b612ffe88828901612793565b9150509295509295909350565b60006020828403121561302157613020612319565b5b600061302f8482850161236c565b91505092915050565b7f455243313135353a2062616c616e636520717565727920666f7220746865207a60008201527f65726f2061646472657373000000000000000000000000000000000000000000602082015250565b6000613094602b836124e7565b915061309f82613038565b604082019050919050565b600060208201905081810360008301526130c381613087565b9050919050565b7f4e487b7100000000000000000000000000000000000000000000000000000000600052602260045260246000fd5b6000600282049050600182168061311157607f821691505b60208210811415613125576131246130ca565b5b50919050565b600081905092915050565b60008190508160005260206000209050919050565b60008154613158816130f9565b613162818661312b565b9450600182166000811461317d576001811461318e576131c1565b60ff198316865281860193506131c1565b61319785613136565b60005b838110156131b95781548189015260018201915060208101905061319a565b838801955050505b50505092915050565b7f2f00000000000000000000000000000000000000000000000000000000000000600082015250565b600061320060018361312b565b915061320b826131ca565b600182019050919050565b6000613221826124dc565b61322b818561312b565b935061323b8185602086016124f8565b80840191505092915050565b7f2e6d657461646174612e6a736f6e000000000000000000000000000000000000600082015250565b600061327d600e8361312b565b915061328882613247565b600e82019050919050565b600061329f828561314b565b91506132aa826131f3565b91506132b68284613216565b91506132c182613270565b91508190509392505050565b7f455243313135353a207472616e736665722063616c6c6572206973206e6f742060008201527f6f776e6572206e6f7220617070726f7665640000000000000000000000000000602082015250565b60006133296032836124e7565b9150613334826132cd565b604082019050919050565b600060208201905081810360008301526133588161331c565b9050919050565b7f4e487b7100000000000000000000000000000000000000000000000000000000600052603260045260246000fd5b600061339a8284613216565b915081905092915050565b7f616c7265616479206d696e740000000000000000000000000000000000000000600082015250565b60006133db600c836124e7565b91506133e6826133a5565b602082019050919050565b6000602082019050818103600083015261340a816133ce565b9050919050565b7f4e487b7100000000000000000000000000000000000000000000000000000000600052601160045260246000fd5b600061344b82612381565b915061345683612381565b9250827fffffffffffffffffffffffffffffffffffffffffffffffffffffffffffffffff0382111561348b5761348a613411565b5b828201905092915050565b60006134a182612381565b91507fffffffffffffffffffffffffffffffffffffffffffffffffffffffffffffffff8214156134d4576134d3613411565b5b600182019050919050565b7f455243313135353a206163636f756e747320616e6420696473206c656e67746860008201527f206d69736d617463680000000000000000000000000000000000000000000000602082015250565b600061353b6029836124e7565b9150613546826134df565b604082019050919050565b6000602082019050818103600083015261356a8161352e565b9050919050565b600061357c82612381565b915061358783612381565b92508282101561359a57613599613411565b5b828203905092915050565b7f4f776e61626c653a2063616c6c6572206973206e6f7420746865206f776e6572600082015250565b60006135db6020836124e7565b91506135e6826135a5565b602082019050919050565b6000602082019050818103600083015261360a816135ce565b9050919050565b7f73686f756c6420736574206e6f7420656d70747920626173652075726c000000600082015250565b6000613647601d836124e7565b915061365282613611565b602082019050919050565b600060208201905081810360008301526136768161363a565b9050919050565b7f455243313135353a2063616c6c6572206973206e6f74206f776e6572206e6f7260008201527f20617070726f7665640000000000000000000000000000000000000000000000602082015250565b60006136d96029836124e7565b91506136e48261367d565b604082019050919050565b60006020820190508181036000830152613708816136cc565b9050919050565b7f4f776e61626c653a206e6577206f776e657220697320746865207a65726f206160008201527f6464726573730000000000000000000000000000000000000000000000000000602082015250565b600061376b6026836124e7565b91506137768261370f565b604082019050919050565b6000602082019050818103600083015261379a8161375e565b9050919050565b7f455243313135353a2069647320616e6420616d6f756e7473206c656e6774682060008201527f6d69736d61746368000000000000000000000000000000000000000000000000602082015250565b60006137fd6028836124e7565b9150613808826137a1565b604082019050919050565b6000602082019050818103600083015261382c816137f0565b9050919050565b7f455243313135353a207472616e7366657220746f20746865207a65726f20616460008201527f6472657373000000000000000000000000000000000000000000000000000000602082015250565b600061388f6025836124e7565b915061389a82613833565b604082019050919050565b600060208201905081810360008301526138be81613882565b9050919050565b7f455243313135353a20696e73756666696369656e742062616c616e636520666f60008201527f72207472616e7366657200000000000000000000000000000000000000000000602082015250565b6000613921602a836124e7565b915061392c826138c5565b604082019050919050565b6000602082019050818103600083015261395081613914565b9050919050565b600060408201905081810360008301526139718185612c38565b905081810360208301526139858184612c38565b90509392505050565b7f455243313135353a206d696e7420746f20746865207a65726f2061646472657360008201527f7300000000000000000000000000000000000000000000000000000000000000602082015250565b60006139ea6021836124e7565b91506139f58261398e565b604082019050919050565b60006020820190508181036000830152613a19816139dd565b9050919050565b7f455243313135353a2073657474696e6720617070726f76616c2073746174757360008201527f20666f722073656c660000000000000000000000000000000000000000000000602082015250565b6000613a7c6029836124e7565b9150613a8782613a20565b604082019050919050565b60006020820190508181036000830152613aab81613a6f565b9050919050565b6000604082019050613ac760008301856123f7565b613ad460208301846123f7565b9392505050565b600081519050919050565b600082825260208201905092915050565b6000613b0282613adb565b613b0c8185613ae6565b9350613b1c8185602086016124f8565b613b258161252b565b840191505092915050565b600060a082019050613b456000830188612de6565b613b526020830187612de6565b8181036040830152613b648186612c38565b90508181036060830152613b788185612c38565b90508181036080830152613b8c8184613af7565b90509695505050505050565b600081519050613ba78161244d565b92915050565b600060208284031215613bc357613bc2612319565b5b6000613bd184828501613b98565b91505092915050565b60008160e01c9050919050565b600060033d1115613c065760046000803e613c03600051613bda565b90505b90565b600060443d1015613c1957613c9c565b613c2161230f565b60043d036004823e80513d602482011167ffffffffffffffff82111715613c49575050613c9c565b808201805167ffffffffffffffff811115613c675750505050613c9c565b80602083010160043d038501811115613c84575050505050613c9c565b613c93826020018501866125f8565b82955050505050505b90565b7f455243313135353a207472616e7366657220746f206e6f6e204552433131353560008201527f526563656976657220696d706c656d656e746572000000000000000000000000602082015250565b6000613cfb6034836124e7565b9150613d0682613c9f565b604082019050919050565b60006020820190508181036000830152613d2a81613cee565b9050919050565b7f455243313135353a204552433131353552656365697665722072656a6563746560008201527f6420746f6b656e73000000000000000000000000000000000000000000000000602082015250565b6000613d8d6028836124e7565b9150613d9882613d31565b604082019050919050565b60006020820190508181036000830152613dbc81613d80565b9050919050565b600060a082019050613dd86000830188612de6565b613de56020830187612de6565b613df260408301866123f7565b613dff60608301856123f7565b8181036080830152613e118184613af7565b9050969550505050505056fea26469706673582212205c420d9634e7c75c382727553dd1bf4f6f2a927bc75d743e7ecc8726f26f0ebb64736f6c634300080c0033",
  "immutableReferences": {},
  "source": "pragma solidity ^0.8.0;\n\nimport \"@openzeppelin/contracts/utils/Context.sol\";\nimport \"@openzeppelin/contracts/token/ERC1155/ERC1155.sol\";\nimport \"@openzeppelin/contracts/access/Ownable.sol\";\n\ncontract RustToken1155 is Context, ERC1155, Ownable {\n    mapping(string => uint256) private _name2token;\n    mapping(uint256 => string) private _token2name;\n    uint256 _localTokenId = 1;\n    string _tokenBaseURI = \"\";\n\n    string public name = \"RustToken1155\";\n    string public symbol = \"RT\";\n\n    constructor() ERC1155(\"\") {}\n\n    function setTokenBaseURI(string memory baseURI) public onlyOwner {\n        require(bytes(baseURI).length > 0, \"should set not empty base url\");\n        _tokenBaseURI = baseURI;\n    }\n\n    function mint(\n        address to,\n        string memory tokenName,\n        uint256 amount\n    ) public virtual onlyOwner {\n        require(_name2token[tokenName] == 0, \"already mint\");\n\n        uint256 tokenId = _localTokenId;\n        _name2token[tokenName] = tokenId;\n        _token2name[tokenId] = tokenName;\n        _mint(to, tokenId, amount, \"\");\n\n        _localTokenId += 1;\n    }\n\n    function mintBatch(\n        address to,\n        string[] memory tokenNames,\n        uint256[] memory amounts\n    ) public {\n        require(tokenNames.length <= 10);\n\n        uint256[] memory tokenIds = new uint256[](tokenNames.length);\n        for (uint256 i = 0; i < tokenNames.length; i++) {\n            string memory tokenName = tokenNames[i];\n            require(_name2token[tokenName] == 0, \"already mint\");\n\n            uint256 tokenId = _localTokenId;\n            _name2token[tokenName] = tokenId;\n            _token2name[tokenId] = tokenName;\n            tokenIds[i] = tokenId;\n\n            _localTokenId += 1;\n        }\n\n        _mintBatch(to, tokenIds, amounts, \"\");\n    }\n\n    function tokenBaseURI() public view virtual returns (string memory) {\n        return _tokenBaseURI;\n    }\n\n    function uri(uint256 tokenId)\n        public\n        view\n        virtual\n        override\n        returns (string memory)\n    {\n        string memory tokenName = _token2name[tokenId];\n        return\n            string(\n                abi.encodePacked(\n                    _tokenBaseURI,\n                    \"/\",\n                    tokenName,\n                    \".metadata.json\"\n                )\n            );\n    }\n\n    function currentSupply() public view virtual returns (uint256) {\n        return _localTokenId - 1;\n    }\n\n    function usedTokenNames() public view virtual returns (string[] memory) {\n        if (_localTokenId == 1) {\n            return new string[](0);\n        }\n        uint256 len = _localTokenId - 1;\n        string[] memory names = new string[](len);\n        for (uint256 i = 0; i < len; i++) {\n            names[i] = _token2name[i + 1];\n        }\n        return names;\n    }\n}\n",
  "sourcePath": "/Users/akiho/Applications/web3/rust-opensea/ethereum/contracts/ERC1155.sol",
  "compiler": {
    "name": "solc",
    "version": "0.8.12+commit.f00d7308.Emscripten.clang"
  },
  "schemaVersion": "3.4.6",
  "updatedAt": "2022-03-17T10:59:19.951Z",
  "networkType": "ethereum",
  "devdoc": {
    "kind": "dev",
    "methods": {
      "balanceOf(address,uint256)": {
        "details": "See {IERC1155-balanceOf}. Requirements: - `account` cannot be the zero address."
      },
      "balanceOfBatch(address[],uint256[])": {
        "details": "See {IERC1155-balanceOfBatch}. Requirements: - `accounts` and `ids` must have the same length."
      },
      "isApprovedForAll(address,address)": {
        "details": "See {IERC1155-isApprovedForAll}."
      },
      "owner()": {
        "details": "Returns the address of the current owner."
      },
      "renounceOwnership()": {
        "details": "Leaves the contract without owner. It will not be possible to call `onlyOwner` functions anymore. Can only be called by the current owner. NOTE: Renouncing ownership will leave the contract without an owner, thereby removing any functionality that is only available to the owner."
      },
      "safeBatchTransferFrom(address,address,uint256[],uint256[],bytes)": {
        "details": "See {IERC1155-safeBatchTransferFrom}."
      },
      "safeTransferFrom(address,address,uint256,uint256,bytes)": {
        "details": "See {IERC1155-safeTransferFrom}."
      },
      "setApprovalForAll(address,bool)": {
        "details": "See {IERC1155-setApprovalForAll}."
      },
      "supportsInterface(bytes4)": {
        "details": "See {IERC165-supportsInterface}."
      },
      "transferOwnership(address)": {
        "details": "Transfers ownership of the contract to a new account (`newOwner`). Can only be called by the current owner."
      }
    },
    "version": 1
  },
  "userdoc": {
    "kind": "user",
    "methods": {},
    "version": 1
  }
}