{
  "contractName": "RustToken721",
  "abi": [
    {
      "inputs": [],
      "stateMutability": "nonpayable",
      "type": "constructor"
    },
    {
      "anonymous": false,
      "inputs": [
        {
          "indexed": true,
          "internalType": "address",
          "name": "owner",
          "type": "address"
        },
        {
          "indexed": true,
          "internalType": "address",
          "name": "approved",
          "type": "address"
        },
        {
          "indexed": true,
          "internalType": "uint256",
          "name": "tokenId",
          "type": "uint256"
        }
      ],
      "name": "Approval",
      "type": "event"
    },
    {
      "anonymous": false,
      "inputs": [
        {
          "indexed": true,
          "internalType": "address",
          "name": "owner",
          "type": "address"
        },
        {
          "indexed": true,
          "internalType": "address",
          "name": "operator",
          "type": "address"
        },
        {
          "indexed": false,
          "internalType": "bool",
          "name": "approved",
          "type": "bool"
        }
      ],
      "name": "ApprovalForAll",
      "type": "event"
    },
    {
      "anonymous": false,
      "inputs": [
        {
          "indexed": true,
          "internalType": "address",
          "name": "previousOwner",
          "type": "address"
        },
        {
          "indexed": true,
          "internalType": "address",
          "name": "newOwner",
          "type": "address"
        }
      ],
      "name": "OwnershipTransferred",
      "type": "event"
    },
    {
      "anonymous": false,
      "inputs": [
        {
          "indexed": true,
          "internalType": "address",
          "name": "from",
          "type": "address"
        },
        {
          "indexed": true,
          "internalType": "address",
          "name": "to",
          "type": "address"
        },
        {
          "indexed": true,
          "internalType": "uint256",
          "name": "tokenId",
          "type": "uint256"
        }
      ],
      "name": "Transfer",
      "type": "event"
    },
    {
      "inputs": [
        {
          "internalType": "address",
          "name": "to",
          "type": "address"
        },
        {
          "internalType": "uint256",
          "name": "tokenId",
          "type": "uint256"
        }
      ],
      "name": "approve",
      "outputs": [],
      "stateMutability": "nonpayable",
      "type": "function"
    },
    {
      "inputs": [
        {
          "internalType": "address",
          "name": "owner",
          "type": "address"
        }
      ],
      "name": "balanceOf",
      "outputs": [
        {
          "internalType": "uint256",
          "name": "",
          "type": "uint256"
        }
      ],
      "stateMutability": "view",
      "type": "function",
      "constant": true
    },
    {
      "inputs": [
        {
          "internalType": "uint256",
          "name": "tokenId",
          "type": "uint256"
        }
      ],
      "name": "getApproved",
      "outputs": [
        {
          "internalType": "address",
          "name": "",
          "type": "address"
        }
      ],
      "stateMutability": "view",
      "type": "function",
      "constant": true
    },
    {
      "inputs": [
        {
          "internalType": "address",
          "name": "owner",
          "type": "address"
        },
        {
          "internalType": "address",
          "name": "operator",
          "type": "address"
        }
      ],
      "name": "isApprovedForAll",
      "outputs": [
        {
          "internalType": "bool",
          "name": "",
          "type": "bool"
        }
      ],
      "stateMutability": "view",
      "type": "function",
      "constant": true
    },
    {
      "inputs": [],
      "name": "name",
      "outputs": [
        {
          "internalType": "string",
          "name": "",
          "type": "string"
        }
      ],
      "stateMutability": "view",
      "type": "function",
      "constant": true
    },
    {
      "inputs": [],
      "name": "owner",
      "outputs": [
        {
          "internalType": "address",
          "name": "",
          "type": "address"
        }
      ],
      "stateMutability": "view",
      "type": "function",
      "constant": true
    },
    {
      "inputs": [
        {
          "internalType": "uint256",
          "name": "tokenId",
          "type": "uint256"
        }
      ],
      "name": "ownerOf",
      "outputs": [
        {
          "internalType": "address",
          "name": "",
          "type": "address"
        }
      ],
      "stateMutability": "view",
      "type": "function",
      "constant": true
    },
    {
      "inputs": [],
      "name": "renounceOwnership",
      "outputs": [],
      "stateMutability": "nonpayable",
      "type": "function"
    },
    {
      "inputs": [
        {
          "internalType": "address",
          "name": "from",
          "type": "address"
        },
        {
          "internalType": "address",
          "name": "to",
          "type": "address"
        },
        {
          "internalType": "uint256",
          "name": "tokenId",
          "type": "uint256"
        }
      ],
      "name": "safeTransferFrom",
      "outputs": [],
      "stateMutability": "nonpayable",
      "type": "function"
    },
    {
      "inputs": [
        {
          "internalType": "address",
          "name": "from",
          "type": "address"
        },
        {
          "internalType": "address",
          "name": "to",
          "type": "address"
        },
        {
          "internalType": "uint256",
          "name": "tokenId",
          "type": "uint256"
        },
        {
          "internalType": "bytes",
          "name": "_data",
          "type": "bytes"
        }
      ],
      "name": "safeTransferFrom",
      "outputs": [],
      "stateMutability": "nonpayable",
      "type": "function"
    },
    {
      "inputs": [
        {
          "internalType": "address",
          "name": "operator",
          "type": "address"
        },
        {
          "internalType": "bool",
          "name": "approved",
          "type": "bool"
        }
      ],
      "name": "setApprovalForAll",
      "outputs": [],
      "stateMutability": "nonpayable",
      "type": "function"
    },
    {
      "inputs": [
        {
          "internalType": "bytes4",
          "name": "interfaceId",
          "type": "bytes4"
        }
      ],
      "name": "supportsInterface",
      "outputs": [
        {
          "internalType": "bool",
          "name": "",
          "type": "bool"
        }
      ],
      "stateMutability": "view",
      "type": "function",
      "constant": true
    },
    {
      "inputs": [],
      "name": "symbol",
      "outputs": [
        {
          "internalType": "string",
          "name": "",
          "type": "string"
        }
      ],
      "stateMutability": "view",
      "type": "function",
      "constant": true
    },
    {
      "inputs": [
        {
          "internalType": "uint256",
          "name": "index",
          "type": "uint256"
        }
      ],
      "name": "tokenByIndex",
      "outputs": [
        {
          "internalType": "uint256",
          "name": "",
          "type": "uint256"
        }
      ],
      "stateMutability": "view",
      "type": "function",
      "constant": true
    },
    {
      "inputs": [
        {
          "internalType": "address",
          "name": "owner",
          "type": "address"
        },
        {
          "internalType": "uint256",
          "name": "index",
          "type": "uint256"
        }
      ],
      "name": "tokenOfOwnerByIndex",
      "outputs": [
        {
          "internalType": "uint256",
          "name": "",
          "type": "uint256"
        }
      ],
      "stateMutability": "view",
      "type": "function",
      "constant": true
    },
    {
      "inputs": [],
      "name": "totalSupply",
      "outputs": [
        {
          "internalType": "uint256",
          "name": "",
          "type": "uint256"
        }
      ],
      "stateMutability": "view",
      "type": "function",
      "constant": true
    },
    {
      "inputs": [
        {
          "internalType": "address",
          "name": "from",
          "type": "address"
        },
        {
          "internalType": "address",
          "name": "to",
          "type": "address"
        },
        {
          "internalType": "uint256",
          "name": "tokenId",
          "type": "uint256"
        }
      ],
      "name": "transferFrom",
      "outputs": [],
      "stateMutability": "nonpayable",
      "type": "function"
    },
    {
      "inputs": [
        {
          "internalType": "address",
          "name": "newOwner",
          "type": "address"
        }
      ],
      "name": "transferOwnership",
      "outputs": [],
      "stateMutability": "nonpayable",
      "type": "function"
    },
    {
      "inputs": [
        {
          "internalType": "string",
          "name": "baseURI",
          "type": "string"
        }
      ],
      "name": "setTokenBaseURI",
      "outputs": [],
      "stateMutability": "nonpayable",
      "type": "function"
    },
    {
      "inputs": [
        {
          "internalType": "address",
          "name": "to",
          "type": "address"
        },
        {
          "internalType": "string",
          "name": "tokenName",
          "type": "string"
        }
      ],
      "name": "mint",
      "outputs": [],
      "stateMutability": "nonpayable",
      "type": "function"
    },
    {
      "inputs": [
        {
          "internalType": "uint256",
          "name": "tokenId",
          "type": "uint256"
        }
      ],
      "name": "tokenURI",
      "outputs": [
        {
          "internalType": "string",
          "name": "",
          "type": "string"
        }
      ],
      "stateMutability": "view",
      "type": "function",
      "constant": true
    },
    {
      "inputs": [
        {
          "internalType": "string",
          "name": "tokenName",
          "type": "string"
        }
      ],
      "name": "ownerAddressOf",
      "outputs": [
        {
          "internalType": "address",
          "name": "",
          "type": "address"
        }
      ],
      "stateMutability": "view",
      "type": "function",
      "constant": true
    },
    {
      "inputs": [],
      "name": "currentSupply",
      "outputs": [
        {
          "internalType": "uint256",
          "name": "",
          "type": "uint256"
        }
      ],
      "stateMutability": "view",
      "type": "function",
      "constant": true
    },
    {
      "inputs": [],
      "name": "usedTokenNames",
      "outputs": [
        {
          "internalType": "string[]",
          "name": "",
          "type": "string[]"
        }
      ],
      "stateMutability": "view",
      "type": "function",
      "constant": true
    }
  ],
  "bytecode": "0x60806040526001600d5560405180602001604052806000815250600e908051906020019062000030929190620001d3565b503480156200003e57600080fd5b506040518060400160405280600c81526020017f52757374546f6b656e37323100000000000000000000000000000000000000008152506040518060400160405280600281526020017f52540000000000000000000000000000000000000000000000000000000000008152508160009080519060200190620000c3929190620001d3565b508060019080519060200190620000dc929190620001d3565b505050620000ff620000f36200010560201b60201c565b6200010d60201b60201c565b620002e8565b600033905090565b6000600a60009054906101000a900473ffffffffffffffffffffffffffffffffffffffff16905081600a60006101000a81548173ffffffffffffffffffffffffffffffffffffffff021916908373ffffffffffffffffffffffffffffffffffffffff1602179055508173ffffffffffffffffffffffffffffffffffffffff168173ffffffffffffffffffffffffffffffffffffffff167f8be0079c531659141344cd1fd0a4f28419497f9722a3daafe3b4186f6b6457e060405160405180910390a35050565b828054620001e190620002b2565b90600052602060002090601f01602090048101928262000205576000855562000251565b82601f106200022057805160ff191683800117855562000251565b8280016001018555821562000251579182015b828111156200025057825182559160200191906001019062000233565b5b50905062000260919062000264565b5090565b5b808211156200027f57600081600090555060010162000265565b5090565b7f4e487b7100000000000000000000000000000000000000000000000000000000600052602260045260246000fd5b60006002820490506001821680620002cb57607f821691505b60208210811415620002e257620002e162000283565b5b50919050565b613a1680620002f86000396000f3fe608060405234801561001057600080fd5b50600436106101585760003560e01c8063713805da116100c3578063a22cb4651161007c578063a22cb465146103db578063b88d4fde146103f7578063c87b56dd14610413578063d0def52114610443578063e985e9c51461045f578063f2fde38b1461048f57610158565b8063713805da1461033d578063715018a61461035b578063771282f6146103655780638da5cb5b146103835780638ef79e91146103a157806395d89b41146103bd57610158565b80632f745c59116101155780632f745c591461023157806342842e0e146102615780634f6ccce71461027d57806350c8fc35146102ad5780636352211e146102dd57806370a082311461030d57610158565b806301ffc9a71461015d57806306fdde031461018d578063081812fc146101ab578063095ea7b3146101db57806318160ddd146101f757806323b872dd14610215575b600080fd5b610177600480360381019061017291906123c6565b6104ab565b604051610184919061240e565b60405180910390f35b610195610525565b6040516101a291906124c2565b60405180910390f35b6101c560048036038101906101c0919061251a565b6105b7565b6040516101d29190612588565b60405180910390f35b6101f560048036038101906101f091906125cf565b61063c565b005b6101ff610754565b60405161020c919061261e565b60405180910390f35b61022f600480360381019061022a9190612639565b610761565b005b61024b600480360381019061024691906125cf565b6107c1565b604051610258919061261e565b60405180910390f35b61027b60048036038101906102769190612639565b610866565b005b6102976004803603810190610292919061251a565b610886565b6040516102a4919061261e565b60405180910390f35b6102c760048036038101906102c291906127c1565b6108f7565b6040516102d49190612588565b60405180910390f35b6102f760048036038101906102f2919061251a565b610944565b6040516103049190612588565b60405180910390f35b6103276004803603810190610322919061280a565b6109f6565b604051610334919061261e565b60405180910390f35b610345610aae565b6040516103529190612943565b60405180910390f35b610363610c64565b005b61036d610cec565b60405161037a919061261e565b60405180910390f35b61038b610d02565b6040516103989190612588565b60405180910390f35b6103bb60048036038101906103b691906127c1565b610d2c565b005b6103c5610e06565b6040516103d291906124c2565b60405180910390f35b6103f560048036038101906103f09190612991565b610e98565b005b610411600480360381019061040c9190612a72565b610eae565b005b61042d6004803603810190610428919061251a565b610f10565b60405161043a91906124c2565b60405180910390f35b61045d60048036038101906104589190612af5565b610fdd565b005b61047960048036038101906104749190612b51565b611135565b604051610486919061240e565b60405180910390f35b6104a960048036038101906104a4919061280a565b6111c9565b005b60007f780e9d63000000000000000000000000000000000000000000000000000000007bffffffffffffffffffffffffffffffffffffffffffffffffffffffff1916827bffffffffffffffffffffffffffffffffffffffffffffffffffffffff1916148061051e575061051d826112c1565b5b9050919050565b60606000805461053490612bc0565b80601f016020809104026020016040519081016040528092919081815260200182805461056090612bc0565b80156105ad5780601f10610582576101008083540402835291602001916105ad565b820191906000526020600020905b81548152906001019060200180831161059057829003601f168201915b5050505050905090565b60006105c2826113a3565b610601576040517f08c379a00000000000000000000000000000000000000000000000000000000081526004016105f890612c64565b60405180910390fd5b6004600083815260200190815260200160002060009054906101000a900473ffffffffffffffffffffffffffffffffffffffff169050919050565b600061064782610944565b90508073ffffffffffffffffffffffffffffffffffffffff168373ffffffffffffffffffffffffffffffffffffffff1614156106b8576040517f08c379a00000000000000000000000000000000000000000000000000000000081526004016106af90612cf6565b60405180910390fd5b8073ffffffffffffffffffffffffffffffffffffffff166106d761140f565b73ffffffffffffffffffffffffffffffffffffffff16148061070657506107058161070061140f565b611135565b5b610745576040517f08c379a000000000000000000000000000000000000000000000000000000000815260040161073c90612d88565b60405180910390fd5b61074f8383611417565b505050565b6000600880549050905090565b61077261076c61140f565b826114d0565b6107b1576040517f08c379a00000000000000000000000000000000000000000000000000000000081526004016107a890612e1a565b60405180910390fd5b6107bc8383836115ae565b505050565b60006107cc836109f6565b821061080d576040517f08c379a000000000000000000000000000000000000000000000000000000000815260040161080490612eac565b60405180910390fd5b600660008473ffffffffffffffffffffffffffffffffffffffff1673ffffffffffffffffffffffffffffffffffffffff168152602001908152602001600020600083815260200190815260200160002054905092915050565b61088183838360405180602001604052806000815250610eae565b505050565b6000610890610754565b82106108d1576040517f08c379a00000000000000000000000000000000000000000000000000000000081526004016108c890612f3e565b60405180910390fd5b600882815481106108e5576108e4612f5e565b5b90600052602060002001549050919050565b600080600b8360405161090a9190612fc9565b9081526020016040518091039020549050610924816113a3565b61093257600091505061093f565b61093b81610944565b9150505b919050565b6000806002600084815260200190815260200160002060009054906101000a900473ffffffffffffffffffffffffffffffffffffffff169050600073ffffffffffffffffffffffffffffffffffffffff168173ffffffffffffffffffffffffffffffffffffffff1614156109ed576040517f08c379a00000000000000000000000000000000000000000000000000000000081526004016109e490613052565b60405180910390fd5b80915050919050565b60008073ffffffffffffffffffffffffffffffffffffffff168273ffffffffffffffffffffffffffffffffffffffff161415610a67576040517f08c379a0000000000000000000000000000000000000000000000000000000008152600401610a5e906130e4565b60405180910390fd5b600360008373ffffffffffffffffffffffffffffffffffffffff1673ffffffffffffffffffffffffffffffffffffffff168152602001908152602001600020549050919050565b60606001600d541415610b1157600067ffffffffffffffff811115610ad657610ad5612696565b5b604051908082528060200260200182016040528015610b0957816020015b6060815260200190600190039081610af45790505b509050610c61565b60006001600d54610b229190613133565b905060008167ffffffffffffffff811115610b4057610b3f612696565b5b604051908082528060200260200182016040528015610b7357816020015b6060815260200190600190039081610b5e5790505b50905060005b82811015610c5a57600c6000600183610b929190613167565b81526020019081526020016000208054610bab90612bc0565b80601f0160208091040260200160405190810160405280929190818152602001828054610bd790612bc0565b8015610c245780601f10610bf957610100808354040283529160200191610c24565b820191906000526020600020905b815481529060010190602001808311610c0757829003601f168201915b5050505050828281518110610c3c57610c3b612f5e565b5b60200260200101819052508080610c52906131bd565b915050610b79565b5080925050505b90565b610c6c61140f565b73ffffffffffffffffffffffffffffffffffffffff16610c8a610d02565b73ffffffffffffffffffffffffffffffffffffffff1614610ce0576040517f08c379a0000000000000000000000000000000000000000000000000000000008152600401610cd790613252565b60405180910390fd5b610cea6000611815565b565b60006001600d54610cfd9190613133565b905090565b6000600a60009054906101000a900473ffffffffffffffffffffffffffffffffffffffff16905090565b610d3461140f565b73ffffffffffffffffffffffffffffffffffffffff16610d52610d02565b73ffffffffffffffffffffffffffffffffffffffff1614610da8576040517f08c379a0000000000000000000000000000000000000000000000000000000008152600401610d9f90613252565b60405180910390fd5b6000815111610dec576040517f08c379a0000000000000000000000000000000000000000000000000000000008152600401610de3906132be565b60405180910390fd5b80600e9080519060200190610e029291906122b7565b5050565b606060018054610e1590612bc0565b80601f0160208091040260200160405190810160405280929190818152602001828054610e4190612bc0565b8015610e8e5780601f10610e6357610100808354040283529160200191610e8e565b820191906000526020600020905b815481529060010190602001808311610e7157829003601f168201915b5050505050905090565b610eaa610ea361140f565b83836118db565b5050565b610ebf610eb961140f565b836114d0565b610efe576040517f08c379a0000000000000000000000000000000000000000000000000000000008152600401610ef590612e1a565b60405180910390fd5b610f0a84848484611a48565b50505050565b60606000600c60008481526020019081526020016000208054610f3290612bc0565b80601f0160208091040260200160405190810160405280929190818152602001828054610f5e90612bc0565b8015610fab5780601f10610f8057610100808354040283529160200191610fab565b820191906000526020600020905b815481529060010190602001808311610f8e57829003601f168201915b50505050509050600e81604051602001610fc692919061340a565b604051602081830303815290604052915050919050565b610fe561140f565b73ffffffffffffffffffffffffffffffffffffffff16611003610d02565b73ffffffffffffffffffffffffffffffffffffffff1614611059576040517f08c379a000000000000000000000000000000000000000000000000000000000815260040161105090613252565b60405180910390fd5b6000600b8260405161106b9190612fc9565b908152602001604051809103902054146110ba576040517f08c379a00000000000000000000000000000000000000000000000000000000081526004016110b190613490565b60405180910390fd5b6000600d54905080600b836040516110d29190612fc9565b90815260200160405180910390208190555081600c6000838152602001908152602001600020908051906020019061110b9291906122b7565b506111168382611aa4565b6001600d60008282546111299190613167565b92505081905550505050565b6000600560008473ffffffffffffffffffffffffffffffffffffffff1673ffffffffffffffffffffffffffffffffffffffff16815260200190815260200160002060008373ffffffffffffffffffffffffffffffffffffffff1673ffffffffffffffffffffffffffffffffffffffff16815260200190815260200160002060009054906101000a900460ff16905092915050565b6111d161140f565b73ffffffffffffffffffffffffffffffffffffffff166111ef610d02565b73ffffffffffffffffffffffffffffffffffffffff1614611245576040517f08c379a000000000000000000000000000000000000000000000000000000000815260040161123c90613252565b60405180910390fd5b600073ffffffffffffffffffffffffffffffffffffffff168173ffffffffffffffffffffffffffffffffffffffff1614156112b5576040517f08c379a00000000000000000000000000000000000000000000000000000000081526004016112ac90613522565b60405180910390fd5b6112be81611815565b50565b60007f80ac58cd000000000000000000000000000000000000000000000000000000007bffffffffffffffffffffffffffffffffffffffffffffffffffffffff1916827bffffffffffffffffffffffffffffffffffffffffffffffffffffffff1916148061138c57507f5b5e139f000000000000000000000000000000000000000000000000000000007bffffffffffffffffffffffffffffffffffffffffffffffffffffffff1916827bffffffffffffffffffffffffffffffffffffffffffffffffffffffff1916145b8061139c575061139b82611c7e565b5b9050919050565b60008073ffffffffffffffffffffffffffffffffffffffff166002600084815260200190815260200160002060009054906101000a900473ffffffffffffffffffffffffffffffffffffffff1673ffffffffffffffffffffffffffffffffffffffff1614159050919050565b600033905090565b816004600083815260200190815260200160002060006101000a81548173ffffffffffffffffffffffffffffffffffffffff021916908373ffffffffffffffffffffffffffffffffffffffff160217905550808273ffffffffffffffffffffffffffffffffffffffff1661148a83610944565b73ffffffffffffffffffffffffffffffffffffffff167f8c5be1e5ebec7d5bd14f71427d1e84f3dd0314c0f7b2291e5b200ac8c7c3b92560405160405180910390a45050565b60006114db826113a3565b61151a576040517f08c379a0000000000000000000000000000000000000000000000000000000008152600401611511906135b4565b60405180910390fd5b600061152583610944565b90508073ffffffffffffffffffffffffffffffffffffffff168473ffffffffffffffffffffffffffffffffffffffff16148061159457508373ffffffffffffffffffffffffffffffffffffffff1661157c846105b7565b73ffffffffffffffffffffffffffffffffffffffff16145b806115a557506115a48185611135565b5b91505092915050565b8273ffffffffffffffffffffffffffffffffffffffff166115ce82610944565b73ffffffffffffffffffffffffffffffffffffffff1614611624576040517f08c379a000000000000000000000000000000000000000000000000000000000815260040161161b90613646565b60405180910390fd5b600073ffffffffffffffffffffffffffffffffffffffff168273ffffffffffffffffffffffffffffffffffffffff161415611694576040517f08c379a000000000000000000000000000000000000000000000000000000000815260040161168b906136d8565b60405180910390fd5b61169f838383611ce8565b6116aa600082611417565b6001600360008573ffffffffffffffffffffffffffffffffffffffff1673ffffffffffffffffffffffffffffffffffffffff16815260200190815260200160002060008282546116fa9190613133565b925050819055506001600360008473ffffffffffffffffffffffffffffffffffffffff1673ffffffffffffffffffffffffffffffffffffffff16815260200190815260200160002060008282546117519190613167565b92505081905550816002600083815260200190815260200160002060006101000a81548173ffffffffffffffffffffffffffffffffffffffff021916908373ffffffffffffffffffffffffffffffffffffffff160217905550808273ffffffffffffffffffffffffffffffffffffffff168473ffffffffffffffffffffffffffffffffffffffff167fddf252ad1be2c89b69c2b068fc378daa952ba7f163c4a11628f55a4df523b3ef60405160405180910390a4611810838383611dfc565b505050565b6000600a60009054906101000a900473ffffffffffffffffffffffffffffffffffffffff16905081600a60006101000a81548173ffffffffffffffffffffffffffffffffffffffff021916908373ffffffffffffffffffffffffffffffffffffffff1602179055508173ffffffffffffffffffffffffffffffffffffffff168173ffffffffffffffffffffffffffffffffffffffff167f8be0079c531659141344cd1fd0a4f28419497f9722a3daafe3b4186f6b6457e060405160405180910390a35050565b8173ffffffffffffffffffffffffffffffffffffffff168373ffffffffffffffffffffffffffffffffffffffff16141561194a576040517f08c379a000000000000000000000000000000000000000000000000000000000815260040161194190613744565b60405180910390fd5b80600560008573ffffffffffffffffffffffffffffffffffffffff1673ffffffffffffffffffffffffffffffffffffffff16815260200190815260200160002060008473ffffffffffffffffffffffffffffffffffffffff1673ffffffffffffffffffffffffffffffffffffffff16815260200190815260200160002060006101000a81548160ff0219169083151502179055508173ffffffffffffffffffffffffffffffffffffffff168373ffffffffffffffffffffffffffffffffffffffff167f17307eab39ab6107e8899845ad3d59bd9653f200f220920489ca2b5937696c3183604051611a3b919061240e565b60405180910390a3505050565b611a538484846115ae565b611a5f84848484611e01565b611a9e576040517f08c379a0000000000000000000000000000000000000000000000000000000008152600401611a95906137d6565b60405180910390fd5b50505050565b600073ffffffffffffffffffffffffffffffffffffffff168273ffffffffffffffffffffffffffffffffffffffff161415611b14576040517f08c379a0000000000000000000000000000000000000000000000000000000008152600401611b0b90613842565b60405180910390fd5b611b1d816113a3565b15611b5d576040517f08c379a0000000000000000000000000000000000000000000000000000000008152600401611b54906138ae565b60405180910390fd5b611b6960008383611ce8565b6001600360008473ffffffffffffffffffffffffffffffffffffffff1673ffffffffffffffffffffffffffffffffffffffff1681526020019081526020016000206000828254611bb99190613167565b92505081905550816002600083815260200190815260200160002060006101000a81548173ffffffffffffffffffffffffffffffffffffffff021916908373ffffffffffffffffffffffffffffffffffffffff160217905550808273ffffffffffffffffffffffffffffffffffffffff16600073ffffffffffffffffffffffffffffffffffffffff167fddf252ad1be2c89b69c2b068fc378daa952ba7f163c4a11628f55a4df523b3ef60405160405180910390a4611c7a60008383611dfc565b5050565b60007f01ffc9a7000000000000000000000000000000000000000000000000000000007bffffffffffffffffffffffffffffffffffffffffffffffffffffffff1916827bffffffffffffffffffffffffffffffffffffffffffffffffffffffff1916149050919050565b611cf3838383611f89565b600073ffffffffffffffffffffffffffffffffffffffff168373ffffffffffffffffffffffffffffffffffffffff161415611d3657611d3181611f8e565b611d75565b8173ffffffffffffffffffffffffffffffffffffffff168373ffffffffffffffffffffffffffffffffffffffff1614611d7457611d738382611fd7565b5b5b600073ffffffffffffffffffffffffffffffffffffffff168273ffffffffffffffffffffffffffffffffffffffff161415611db857611db381612144565b611df7565b8273ffffffffffffffffffffffffffffffffffffffff168273ffffffffffffffffffffffffffffffffffffffff1614611df657611df58282612215565b5b5b505050565b505050565b6000611e228473ffffffffffffffffffffffffffffffffffffffff16612294565b15611f7c578373ffffffffffffffffffffffffffffffffffffffff1663150b7a02611e4b61140f565b8786866040518563ffffffff1660e01b8152600401611e6d9493929190613923565b6020604051808303816000875af1925050508015611ea957506040513d601f19601f82011682018060405250810190611ea69190613984565b60015b611f2c573d8060008114611ed9576040519150601f19603f3d011682016040523d82523d6000602084013e611ede565b606091505b50600081511415611f24576040517f08c379a0000000000000000000000000000000000000000000000000000000008152600401611f1b906137d6565b60405180910390fd5b805181602001fd5b63150b7a0260e01b7bffffffffffffffffffffffffffffffffffffffffffffffffffffffff1916817bffffffffffffffffffffffffffffffffffffffffffffffffffffffff191614915050611f81565b600190505b949350505050565b505050565b6008805490506009600083815260200190815260200160002081905550600881908060018154018082558091505060019003906000526020600020016000909190919091505550565b60006001611fe4846109f6565b611fee9190613133565b90506000600760008481526020019081526020016000205490508181146120d3576000600660008673ffffffffffffffffffffffffffffffffffffffff1673ffffffffffffffffffffffffffffffffffffffff168152602001908152602001600020600084815260200190815260200160002054905080600660008773ffffffffffffffffffffffffffffffffffffffff1673ffffffffffffffffffffffffffffffffffffffff168152602001908152602001600020600084815260200190815260200160002081905550816007600083815260200190815260200160002081905550505b6007600084815260200190815260200160002060009055600660008573ffffffffffffffffffffffffffffffffffffffff1673ffffffffffffffffffffffffffffffffffffffff16815260200190815260200160002060008381526020019081526020016000206000905550505050565b600060016008805490506121589190613133565b905060006009600084815260200190815260200160002054905060006008838154811061218857612187612f5e565b5b9060005260206000200154905080600883815481106121aa576121a9612f5e565b5b9060005260206000200181905550816009600083815260200190815260200160002081905550600960008581526020019081526020016000206000905560088054806121f9576121f86139b1565b5b6001900381819060005260206000200160009055905550505050565b6000612220836109f6565b905081600660008573ffffffffffffffffffffffffffffffffffffffff1673ffffffffffffffffffffffffffffffffffffffff168152602001908152602001600020600083815260200190815260200160002081905550806007600084815260200190815260200160002081905550505050565b6000808273ffffffffffffffffffffffffffffffffffffffff163b119050919050565b8280546122c390612bc0565b90600052602060002090601f0160209004810192826122e5576000855561232c565b82601f106122fe57805160ff191683800117855561232c565b8280016001018555821561232c579182015b8281111561232b578251825591602001919060010190612310565b5b509050612339919061233d565b5090565b5b8082111561235657600081600090555060010161233e565b5090565b6000604051905090565b600080fd5b600080fd5b60007fffffffff0000000000000000000000000000000000000000000000000000000082169050919050565b6123a38161236e565b81146123ae57600080fd5b50565b6000813590506123c08161239a565b92915050565b6000602082840312156123dc576123db612364565b5b60006123ea848285016123b1565b91505092915050565b60008115159050919050565b612408816123f3565b82525050565b600060208201905061242360008301846123ff565b92915050565b600081519050919050565b600082825260208201905092915050565b60005b83811015612463578082015181840152602081019050612448565b83811115612472576000848401525b50505050565b6000601f19601f8301169050919050565b600061249482612429565b61249e8185612434565b93506124ae818560208601612445565b6124b781612478565b840191505092915050565b600060208201905081810360008301526124dc8184612489565b905092915050565b6000819050919050565b6124f7816124e4565b811461250257600080fd5b50565b600081359050612514816124ee565b92915050565b6000602082840312156125305761252f612364565b5b600061253e84828501612505565b91505092915050565b600073ffffffffffffffffffffffffffffffffffffffff82169050919050565b600061257282612547565b9050919050565b61258281612567565b82525050565b600060208201905061259d6000830184612579565b92915050565b6125ac81612567565b81146125b757600080fd5b50565b6000813590506125c9816125a3565b92915050565b600080604083850312156125e6576125e5612364565b5b60006125f4858286016125ba565b925050602061260585828601612505565b9150509250929050565b612618816124e4565b82525050565b6000602082019050612633600083018461260f565b92915050565b60008060006060848603121561265257612651612364565b5b6000612660868287016125ba565b9350506020612671868287016125ba565b925050604061268286828701612505565b9150509250925092565b600080fd5b600080fd5b7f4e487b7100000000000000000000000000000000000000000000000000000000600052604160045260246000fd5b6126ce82612478565b810181811067ffffffffffffffff821117156126ed576126ec612696565b5b80604052505050565b600061270061235a565b905061270c82826126c5565b919050565b600067ffffffffffffffff82111561272c5761272b612696565b5b61273582612478565b9050602081019050919050565b82818337600083830152505050565b600061276461275f84612711565b6126f6565b9050828152602081018484840111156127805761277f612691565b5b61278b848285612742565b509392505050565b600082601f8301126127a8576127a761268c565b5b81356127b8848260208601612751565b91505092915050565b6000602082840312156127d7576127d6612364565b5b600082013567ffffffffffffffff8111156127f5576127f4612369565b5b61280184828501612793565b91505092915050565b6000602082840312156128205761281f612364565b5b600061282e848285016125ba565b91505092915050565b600081519050919050565b600082825260208201905092915050565b6000819050602082019050919050565b600082825260208201905092915050565b600061287f82612429565b6128898185612863565b9350612899818560208601612445565b6128a281612478565b840191505092915050565b60006128b98383612874565b905092915050565b6000602082019050919050565b60006128d982612837565b6128e38185612842565b9350836020820285016128f585612853565b8060005b85811015612931578484038952815161291285826128ad565b945061291d836128c1565b925060208a019950506001810190506128f9565b50829750879550505050505092915050565b6000602082019050818103600083015261295d81846128ce565b905092915050565b61296e816123f3565b811461297957600080fd5b50565b60008135905061298b81612965565b92915050565b600080604083850312156129a8576129a7612364565b5b60006129b6858286016125ba565b92505060206129c78582860161297c565b9150509250929050565b600067ffffffffffffffff8211156129ec576129eb612696565b5b6129f582612478565b9050602081019050919050565b6000612a15612a10846129d1565b6126f6565b905082815260208101848484011115612a3157612a30612691565b5b612a3c848285612742565b509392505050565b600082601f830112612a5957612a5861268c565b5b8135612a69848260208601612a02565b91505092915050565b60008060008060808587031215612a8c57612a8b612364565b5b6000612a9a878288016125ba565b9450506020612aab878288016125ba565b9350506040612abc87828801612505565b925050606085013567ffffffffffffffff811115612add57612adc612369565b5b612ae987828801612a44565b91505092959194509250565b60008060408385031215612b0c57612b0b612364565b5b6000612b1a858286016125ba565b925050602083013567ffffffffffffffff811115612b3b57612b3a612369565b5b612b4785828601612793565b9150509250929050565b60008060408385031215612b6857612b67612364565b5b6000612b76858286016125ba565b9250506020612b87858286016125ba565b9150509250929050565b7f4e487b7100000000000000000000000000000000000000000000000000000000600052602260045260246000fd5b60006002820490506001821680612bd857607f821691505b60208210811415612bec57612beb612b91565b5b50919050565b7f4552433732313a20617070726f76656420717565727920666f72206e6f6e657860008201527f697374656e7420746f6b656e0000000000000000000000000000000000000000602082015250565b6000612c4e602c83612434565b9150612c5982612bf2565b604082019050919050565b60006020820190508181036000830152612c7d81612c41565b9050919050565b7f4552433732313a20617070726f76616c20746f2063757272656e74206f776e6560008201527f7200000000000000000000000000000000000000000000000000000000000000602082015250565b6000612ce0602183612434565b9150612ceb82612c84565b604082019050919050565b60006020820190508181036000830152612d0f81612cd3565b9050919050565b7f4552433732313a20617070726f76652063616c6c6572206973206e6f74206f7760008201527f6e6572206e6f7220617070726f76656420666f7220616c6c0000000000000000602082015250565b6000612d72603883612434565b9150612d7d82612d16565b604082019050919050565b60006020820190508181036000830152612da181612d65565b9050919050565b7f4552433732313a207472616e736665722063616c6c6572206973206e6f74206f60008201527f776e6572206e6f7220617070726f766564000000000000000000000000000000602082015250565b6000612e04603183612434565b9150612e0f82612da8565b604082019050919050565b60006020820190508181036000830152612e3381612df7565b9050919050565b7f455243373231456e756d657261626c653a206f776e657220696e646578206f7560008201527f74206f6620626f756e6473000000000000000000000000000000000000000000602082015250565b6000612e96602b83612434565b9150612ea182612e3a565b604082019050919050565b60006020820190508181036000830152612ec581612e89565b9050919050565b7f455243373231456e756d657261626c653a20676c6f62616c20696e646578206f60008201527f7574206f6620626f756e64730000000000000000000000000000000000000000602082015250565b6000612f28602c83612434565b9150612f3382612ecc565b604082019050919050565b60006020820190508181036000830152612f5781612f1b565b9050919050565b7f4e487b7100000000000000000000000000000000000000000000000000000000600052603260045260246000fd5b600081905092915050565b6000612fa382612429565b612fad8185612f8d565b9350612fbd818560208601612445565b80840191505092915050565b6000612fd58284612f98565b915081905092915050565b7f4552433732313a206f776e657220717565727920666f72206e6f6e657869737460008201527f656e7420746f6b656e0000000000000000000000000000000000000000000000602082015250565b600061303c602983612434565b915061304782612fe0565b604082019050919050565b6000602082019050818103600083015261306b8161302f565b9050919050565b7f4552433732313a2062616c616e636520717565727920666f7220746865207a6560008201527f726f206164647265737300000000000000000000000000000000000000000000602082015250565b60006130ce602a83612434565b91506130d982613072565b604082019050919050565b600060208201905081810360008301526130fd816130c1565b9050919050565b7f4e487b7100000000000000000000000000000000000000000000000000000000600052601160045260246000fd5b600061313e826124e4565b9150613149836124e4565b92508282101561315c5761315b613104565b5b828203905092915050565b6000613172826124e4565b915061317d836124e4565b9250827fffffffffffffffffffffffffffffffffffffffffffffffffffffffffffffffff038211156131b2576131b1613104565b5b828201905092915050565b60006131c8826124e4565b91507fffffffffffffffffffffffffffffffffffffffffffffffffffffffffffffffff8214156131fb576131fa613104565b5b600182019050919050565b7f4f776e61626c653a2063616c6c6572206973206e6f7420746865206f776e6572600082015250565b600061323c602083612434565b915061324782613206565b602082019050919050565b6000602082019050818103600083015261326b8161322f565b9050919050565b7f73686f756c6420736574206e6f7420656d70747920626173652075726c000000600082015250565b60006132a8601d83612434565b91506132b382613272565b602082019050919050565b600060208201905081810360008301526132d78161329b565b9050919050565b60008190508160005260206000209050919050565b6000815461330081612bc0565b61330a8186612f8d565b94506001821660008114613325576001811461333657613369565b60ff19831686528186019350613369565b61333f856132de565b60005b8381101561336157815481890152600182019150602081019050613342565b838801955050505b50505092915050565b7f2f00000000000000000000000000000000000000000000000000000000000000600082015250565b60006133a8600183612f8d565b91506133b382613372565b600182019050919050565b7f2e6d657461646174612e6a736f6e000000000000000000000000000000000000600082015250565b60006133f4600e83612f8d565b91506133ff826133be565b600e82019050919050565b600061341682856132f3565b91506134218261339b565b915061342d8284612f98565b9150613438826133e7565b91508190509392505050565b7f616c7265616479206d696e740000000000000000000000000000000000000000600082015250565b600061347a600c83612434565b915061348582613444565b602082019050919050565b600060208201905081810360008301526134a98161346d565b9050919050565b7f4f776e61626c653a206e6577206f776e657220697320746865207a65726f206160008201527f6464726573730000000000000000000000000000000000000000000000000000602082015250565b600061350c602683612434565b9150613517826134b0565b604082019050919050565b6000602082019050818103600083015261353b816134ff565b9050919050565b7f4552433732313a206f70657261746f7220717565727920666f72206e6f6e657860008201527f697374656e7420746f6b656e0000000000000000000000000000000000000000602082015250565b600061359e602c83612434565b91506135a982613542565b604082019050919050565b600060208201905081810360008301526135cd81613591565b9050919050565b7f4552433732313a207472616e736665722066726f6d20696e636f72726563742060008201527f6f776e6572000000000000000000000000000000000000000000000000000000602082015250565b6000613630602583612434565b915061363b826135d4565b604082019050919050565b6000602082019050818103600083015261365f81613623565b9050919050565b7f4552433732313a207472616e7366657220746f20746865207a65726f2061646460008201527f7265737300000000000000000000000000000000000000000000000000000000602082015250565b60006136c2602483612434565b91506136cd82613666565b604082019050919050565b600060208201905081810360008301526136f1816136b5565b9050919050565b7f4552433732313a20617070726f766520746f2063616c6c657200000000000000600082015250565b600061372e601983612434565b9150613739826136f8565b602082019050919050565b6000602082019050818103600083015261375d81613721565b9050919050565b7f4552433732313a207472616e7366657220746f206e6f6e20455243373231526560008201527f63656976657220696d706c656d656e7465720000000000000000000000000000602082015250565b60006137c0603283612434565b91506137cb82613764565b604082019050919050565b600060208201905081810360008301526137ef816137b3565b9050919050565b7f4552433732313a206d696e7420746f20746865207a65726f2061646472657373600082015250565b600061382c602083612434565b9150613837826137f6565b602082019050919050565b6000602082019050818103600083015261385b8161381f565b9050919050565b7f4552433732313a20746f6b656e20616c7265616479206d696e74656400000000600082015250565b6000613898601c83612434565b91506138a382613862565b602082019050919050565b600060208201905081810360008301526138c78161388b565b9050919050565b600081519050919050565b600082825260208201905092915050565b60006138f5826138ce565b6138ff81856138d9565b935061390f818560208601612445565b61391881612478565b840191505092915050565b60006080820190506139386000830187612579565b6139456020830186612579565b613952604083018561260f565b818103606083015261396481846138ea565b905095945050505050565b60008151905061397e8161239a565b92915050565b60006020828403121561399a57613999612364565b5b60006139a88482850161396f565b91505092915050565b7f4e487b7100000000000000000000000000000000000000000000000000000000600052603160045260246000fdfea2646970667358221220ed4f49d40c8316d1c69b71bbb6aa6e4487621979a9ab0f7e363c12803ad200a764736f6c634300080c0033",
  "immutableReferences": {},
  "source": "pragma solidity ^0.8.0;\n\nimport \"@openzeppelin/contracts/utils/Context.sol\";\nimport \"@openzeppelin/contracts/token/ERC721/extensions/ERC721Enumerable.sol\";\nimport \"@openzeppelin/contracts/access/Ownable.sol\";\n\ncontract RustToken721 is Context, ERC721Enumerable, Ownable {\n    mapping(string => uint256) private _name2token;\n    mapping(uint256 => string) private _token2name;\n    uint256 _localTokenId = 1;\n    string _tokenBaseURI = \"\";\n\n    constructor() ERC721(\"RustToken721\", \"RT\") {}\n\n    function setTokenBaseURI(string memory baseURI) public onlyOwner {\n        require(bytes(baseURI).length > 0, \"should set not empty base url\");\n        _tokenBaseURI = baseURI;\n    }\n\n    function mint(address to, string memory tokenName)\n        public\n        virtual\n        onlyOwner\n    {\n        require(_name2token[tokenName] == 0, \"already mint\");\n\n        uint256 tokenId = _localTokenId;\n        _name2token[tokenName] = tokenId;\n        _token2name[tokenId] = tokenName;\n        _mint(to, tokenId);\n\n        _localTokenId += 1;\n    }\n\n    function tokenURI(uint256 tokenId)\n        public\n        view\n        virtual\n        override\n        returns (string memory)\n    {\n        string memory tokenName = _token2name[tokenId];\n        return\n            string(\n                abi.encodePacked(\n                    _tokenBaseURI,\n                    \"/\",\n                    tokenName,\n                    \".metadata.json\"\n                )\n            );\n    }\n\n    function ownerAddressOf(string memory tokenName)\n        public\n        view\n        virtual\n        returns (address)\n    {\n        uint256 tokenId = _name2token[tokenName];\n        if (!_exists(tokenId)) {\n            return address(0);\n        }\n        return ownerOf(tokenId);\n    }\n\n    function currentSupply() public view virtual returns (uint256) {\n        return _localTokenId - 1;\n    }\n\n    function usedTokenNames() public view virtual returns (string[] memory) {\n        if (_localTokenId == 1) {\n            return new string[](0);\n        }\n        uint256 len = _localTokenId - 1;\n        string[] memory names = new string[](len);\n        for (uint256 i = 0; i < len; i++) {\n            names[i] = _token2name[i + 1];\n        }\n        return names;\n    }\n}\n",
  "sourcePath": "/Users/akiho/Applications/web3/rust-opensea/ethereum/contracts/ERC721.sol",
  "compiler": {
    "name": "solc",
    "version": "0.8.12+commit.f00d7308.Emscripten.clang"
  },
  "schemaVersion": "3.4.6",
  "updatedAt": "2022-03-17T02:08:49.308Z",
  "networkType": "ethereum",
  "devdoc": {
    "kind": "dev",
    "methods": {
      "approve(address,uint256)": {
        "details": "See {IERC721-approve}."
      },
      "balanceOf(address)": {
        "details": "See {IERC721-balanceOf}."
      },
      "getApproved(uint256)": {
        "details": "See {IERC721-getApproved}."
      },
      "isApprovedForAll(address,address)": {
        "details": "See {IERC721-isApprovedForAll}."
      },
      "name()": {
        "details": "See {IERC721Metadata-name}."
      },
      "owner()": {
        "details": "Returns the address of the current owner."
      },
      "ownerOf(uint256)": {
        "details": "See {IERC721-ownerOf}."
      },
      "renounceOwnership()": {
        "details": "Leaves the contract without owner. It will not be possible to call `onlyOwner` functions anymore. Can only be called by the current owner. NOTE: Renouncing ownership will leave the contract without an owner, thereby removing any functionality that is only available to the owner."
      },
      "safeTransferFrom(address,address,uint256)": {
        "details": "See {IERC721-safeTransferFrom}."
      },
      "safeTransferFrom(address,address,uint256,bytes)": {
        "details": "See {IERC721-safeTransferFrom}."
      },
      "setApprovalForAll(address,bool)": {
        "details": "See {IERC721-setApprovalForAll}."
      },
      "supportsInterface(bytes4)": {
        "details": "See {IERC165-supportsInterface}."
      },
      "symbol()": {
        "details": "See {IERC721Metadata-symbol}."
      },
      "tokenByIndex(uint256)": {
        "details": "See {IERC721Enumerable-tokenByIndex}."
      },
      "tokenOfOwnerByIndex(address,uint256)": {
        "details": "See {IERC721Enumerable-tokenOfOwnerByIndex}."
      },
      "tokenURI(uint256)": {
        "details": "See {IERC721Metadata-tokenURI}."
      },
      "totalSupply()": {
        "details": "See {IERC721Enumerable-totalSupply}."
      },
      "transferFrom(address,address,uint256)": {
        "details": "See {IERC721-transferFrom}."
      },
      "transferOwnership(address)": {
        "details": "Transfers ownership of the contract to a new account (`newOwner`). Can only be called by the current owner."
      }
    },
    "version": 1
  },
  "userdoc": {
    "kind": "user",
    "methods": {},
    "version": 1
  }
}